{
  "contractName": "Admin",
  "abi": [
    {
      "constant": false,
      "inputs": [
        {
          "name": "_admin",
          "type": "address"
        }
      ],
      "name": "removeAdmin",
      "outputs": [],
      "payable": false,
      "stateMutability": "nonpayable",
      "type": "function"
    },
    {
      "constant": true,
      "inputs": [
        {
          "name": "",
          "type": "address"
        }
      ],
      "name": "isAdmin",
      "outputs": [
        {
          "name": "",
          "type": "bool"
        }
      ],
      "payable": false,
      "stateMutability": "view",
      "type": "function"
    },
    {
      "constant": false,
      "inputs": [
        {
          "name": "_admin",
          "type": "address"
        }
      ],
      "name": "addAdmin",
      "outputs": [],
      "payable": false,
      "stateMutability": "nonpayable",
      "type": "function"
    },
    {
      "constant": true,
      "inputs": [],
      "name": "owner",
      "outputs": [
        {
          "name": "",
          "type": "address"
        }
      ],
      "payable": false,
      "stateMutability": "view",
      "type": "function"
    },
    {
      "inputs": [],
      "payable": false,
      "stateMutability": "nonpayable",
      "type": "constructor"
    }
  ],
  "bytecode": "0x6060604052341561000f57600080fd5b336000806101000a81548173ffffffffffffffffffffffffffffffffffffffff021916908373ffffffffffffffffffffffffffffffffffffffff16021790555061008c6000809054906101000a900473ffffffffffffffffffffffffffffffffffffffff1661009164010000000002610255176401000000009004565b610146565b6000809054906101000a900473ffffffffffffffffffffffffffffffffffffffff1673ffffffffffffffffffffffffffffffffffffffff163373ffffffffffffffffffffffffffffffffffffffff161415156100ec57600080fd5b60018060008373ffffffffffffffffffffffffffffffffffffffff1673ffffffffffffffffffffffffffffffffffffffff16815260200190815260200160002060006101000a81548160ff02191690831515021790555050565b61035b806101556000396000f300606060405260043610610062576000357c0100000000000000000000000000000000000000000000000000000000900463ffffffff1680631785f53c1461006757806324d7806c146100a057806370480275146100f15780638da5cb5b1461012a575b600080fd5b341561007257600080fd5b61009e600480803573ffffffffffffffffffffffffffffffffffffffff1690602001909190505061017f565b005b34156100ab57600080fd5b6100d7600480803573ffffffffffffffffffffffffffffffffffffffff16906020019091905050610235565b604051808215151515815260200191505060405180910390f35b34156100fc57600080fd5b610128600480803573ffffffffffffffffffffffffffffffffffffffff16906020019091905050610255565b005b341561013557600080fd5b61013d61030a565b604051808273ffffffffffffffffffffffffffffffffffffffff1673ffffffffffffffffffffffffffffffffffffffff16815260200191505060405180910390f35b6000809054906101000a900473ffffffffffffffffffffffffffffffffffffffff1673ffffffffffffffffffffffffffffffffffffffff163373ffffffffffffffffffffffffffffffffffffffff161415156101da57600080fd5b6000600160008373ffffffffffffffffffffffffffffffffffffffff1673ffffffffffffffffffffffffffffffffffffffff16815260200190815260200160002060006101000a81548160ff02191690831515021790555050565b60016020528060005260406000206000915054906101000a900460ff1681565b6000809054906101000a900473ffffffffffffffffffffffffffffffffffffffff1673ffffffffffffffffffffffffffffffffffffffff163373ffffffffffffffffffffffffffffffffffffffff161415156102b057600080fd5b60018060008373ffffffffffffffffffffffffffffffffffffffff1673ffffffffffffffffffffffffffffffffffffffff16815260200190815260200160002060006101000a81548160ff02191690831515021790555050565b6000809054906101000a900473ffffffffffffffffffffffffffffffffffffffff16815600a165627a7a72305820ec088fb65403dac21527d124c5aefb46fa07f1c71f19d0280298937fb44b97580029",
  "source": "pragma solidity ^0.4.18;\r\n\r\ncontract Admin {\r\n  address public owner;\r\n  mapping(address => bool) public isAdmin;\r\n\r\n  modifier onlyOwner() {\r\n    require(msg.sender == owner);\r\n    _;\r\n  }\r\n\r\n  modifier onlyAdmin() {\r\n    require(isAdmin[msg.sender]);\r\n    _;\r\n  }\r\n\r\n  function Admin() public {\r\n    owner = msg.sender;\r\n    addAdmin(owner);\r\n  }\r\n\r\n  function addAdmin(address _admin) public onlyOwner {\r\n    isAdmin[_admin] = true;\r\n  }\r\n\r\n  function removeAdmin(address _admin) public onlyOwner {\r\n    isAdmin[_admin] = false;\r\n  }\r\n}\r\n\r\n// To add a tree do the following:\r\n// - Create a new Tree with the ID, owner, treeValue and power to generate fruits\r\n// - Update the treeBalances and treeOwner mappings\r\ncontract Trees is Admin {\r\n  event LogWaterTree(uint256 indexed treeId, address indexed owner, uint256 date);\r\n  event LogRewardPicked(uint256 indexed treeId, address indexed owner, uint256 date, uint256 amount);\r\n\r\n  // Get the tree information given the id\r\n  mapping(uint256 => Tree) public treeDetails;\r\n  // A mapping with all the tree IDs of that owner\r\n  mapping(address => uint256[]) public ownerTreesIds;\r\n  // Tree id and the days the tree has been watered\r\n  // Tree id => day number => isWatered\r\n  mapping(uint256 => mapping(uint256 => bool)) public treeWater;\r\n\r\n  struct Tree {\r\n    uint256 ID;\r\n    address owner;\r\n    uint256 purchaseDate;\r\n    uint256 treePower; // How much ether that tree is generating from 0 to 100 where 100 is the total power combined of all the trees\r\n    uint256 salePrice;\r\n    uint256 timesExchanged;\r\n    uint256[] waterTreeDates;\r\n    bool onSale;\r\n    uint256 lastRewardPickedDate; // When did you take the last reward\r\n  }\r\n\r\n  uint256[] public trees;\r\n  uint256[] public treesOnSale;\r\n  uint256 public lastTreeId;\r\n  address public defaultTreesOwner = msg.sender;\r\n  uint256 public defaultTreesPower = 1; // 10% of the total power\r\n  uint256 public defaultSalePrice = 1 ether;\r\n  uint256 public totalTreePower;\r\n  uint256 public timeBetweenRewards = 1 days;\r\n\r\n  // This will be called automatically by the server\r\n  // The contract itself will hold the initial trees\r\n  function generateTrees(uint256 _amountToGenerate) public onlyAdmin {\r\n    for(uint256 i = 0; i < _amountToGenerate; i++) {\r\n        uint256 newTreeId = lastTreeId + 1;\r\n        lastTreeId += 1;\r\n        uint256[] memory emptyArray;\r\n        Tree memory newTree = Tree(newTreeId, defaultTreesOwner, now, defaultTreesPower, defaultSalePrice, 0, emptyArray, true, 0);\r\n\r\n        // Update the treeBalances and treeOwner mappings\r\n        // We add the tree to the same array position to find it easier\r\n        ownerTreesIds[defaultTreesOwner].push(newTreeId);\r\n        treeDetails[newTreeId] = newTree;\r\n        treesOnSale.push(newTreeId);\r\n        totalTreePower += defaultTreesPower;\r\n    }\r\n  }\r\n\r\n  // This is payable, the user will send the payment here\r\n  // We delete the tree from the owner first and we add that to the receiver\r\n  // When you sell you're actually putting the tree on the market, not losing it yet\r\n  function putTreeOnSale(uint256 _treeNumber, uint256 _salePrice) public {\r\n    require(msg.sender == treeDetails[_treeNumber].owner);\r\n    require(!treeDetails[_treeNumber].onSale);\r\n    require(_salePrice > 0);\r\n\r\n    treesOnSale.push(_treeNumber);\r\n    treeDetails[_treeNumber].salePrice = _salePrice;\r\n    treeDetails[_treeNumber].onSale = true;\r\n  }\r\n\r\n  // To buy a tree paying ether\r\n  function buyTree(uint256 _treeNumber, address _originalOwner) public payable {\r\n    require(msg.sender != treeDetails[_treeNumber].owner);\r\n    require(treeDetails[_treeNumber].onSale);\r\n    require(msg.value >= treeDetails[_treeNumber].salePrice);\r\n    address newOwner = msg.sender;\r\n    // Move id from old to new owner\r\n    // Find the tree of that user and delete it\r\n    for(uint256 i = 0; i < ownerTreesIds[_originalOwner].length; i++) {\r\n        if(ownerTreesIds[_originalOwner][i] == _treeNumber) delete ownerTreesIds[_originalOwner][i];\r\n    }\r\n    // Remove the tree from the array of trees on sale\r\n    for(uint256 a = 0; a < treesOnSale.length; a++) {\r\n        if(treesOnSale[a] == _treeNumber) {\r\n            delete treesOnSale[a];\r\n            break;\r\n        }\r\n    }\r\n    ownerTreesIds[newOwner].push(_treeNumber);\r\n    treeDetails[_treeNumber].onSale = false;\r\n    if(treeDetails[_treeNumber].timesExchanged == 0) {\r\n        // Reward the owner for the initial trees as a way of monetization. Keep half for the treasury\r\n        owner.transfer(msg.value / 2);\r\n    } else {\r\n        treeDetails[_treeNumber].owner.transfer(msg.value * 90 / 100); // Keep 0.1% in the treasury\r\n    }\r\n    treeDetails[_treeNumber].owner = newOwner;\r\n    treeDetails[_treeNumber].timesExchanged += 1;\r\n  }\r\n\r\n  // To take a tree out of the market without selling it\r\n  function cancelTreeSell(uint256 _treeId) public {\r\n    require(msg.sender == treeDetails[_treeId].owner);\r\n    require(treeDetails[_treeId].onSale);\r\n    // Remove the tree from the array of trees on sale\r\n    for(uint256 a = 0; a < treesOnSale.length; a++) {\r\n        if(treesOnSale[a] == _treeId) {\r\n            delete treesOnSale[a];\r\n            break;\r\n        }\r\n    }\r\n    treeDetails[_treeId].onSale = false;\r\n  }\r\n\r\n  // Improves the treePower\r\n  function waterTree(uint256 _treeId) public {\r\n    require(_treeId > 0);\r\n    require(msg.sender == treeDetails[_treeId].owner);\r\n    uint256[] memory waterDates = treeDetails[_treeId].waterTreeDates;\r\n    uint256 timeSinceLastWater;\r\n    // We want to store at what day the tree was watered\r\n    uint256 day;\r\n    if(waterDates.length > 0) {\r\n        timeSinceLastWater = now - waterDates[waterDates.length - 1];\r\n        day = waterDates[waterDates.length - 1] / 1 days;\r\n    }else {\r\n        timeSinceLastWater = timeBetweenRewards;\r\n        day = 1;\r\n    }\r\n    require(timeSinceLastWater >= timeBetweenRewards);\r\n    treeWater[_treeId][day] = true;\r\n    treeDetails[_treeId].waterTreeDates.push(now);\r\n    treeDetails[_treeId].treePower += 1;\r\n    totalTreePower += 1;\r\n    LogWaterTree(_treeId, msg.sender, now);\r\n  }\r\n\r\n  // To get the ether from the rewards\r\n  function pickReward(uint256 _treeId) public {\r\n    require(msg.sender == treeDetails[_treeId].owner);\r\n    require(now - treeDetails[_treeId].lastRewardPickedDate > timeBetweenRewards);\r\n\r\n    uint256[] memory formatedId = new uint256[](1);\r\n    formatedId[0] = _treeId;\r\n    uint256[] memory rewards = checkRewards(formatedId);\r\n    treeDetails[_treeId].lastRewardPickedDate = now;\r\n    msg.sender.transfer(rewards[0]);\r\n    LogRewardPicked(_treeId, msg.sender, now, rewards[0]);\r\n  }\r\n\r\n  // To see if a tree is already watered or not\r\n  function checkTreesWatered(uint256[] _treeIds) public constant returns(bool[]) {\r\n    bool[] memory results = new bool[](_treeIds.length);\r\n    uint256 timeSinceLastWater;\r\n    for(uint256 i = 0; i < _treeIds.length; i++) {\r\n        uint256[] memory waterDates = treeDetails[_treeIds[i]].waterTreeDates;\r\n        if(waterDates.length > 0) {\r\n            timeSinceLastWater = now - waterDates[waterDates.length - 1];\r\n            results[i] = timeSinceLastWater < timeBetweenRewards;\r\n        } else {\r\n            results[i] = false;\r\n        }\r\n    }\r\n    return results;\r\n  }\r\n\r\n  // Returns an array of how much ether all those trees have generated today\r\n  // All the tree power combiined for instance 10293\r\n  // The tree power for this tree for instance 298\r\n  // What percentage do you get: 2%\r\n  // Total money in the treasury: 102 ETH\r\n  // A 10% of the total is distributed daily across all the users\r\n  // For instance 10.2 ETH today\r\n  // So if you pick your rewards right now, you'll get a 2% of 10.2 ETH which is 0.204 ETH\r\n  function checkRewards(uint256[] _treeIds) public constant returns(uint256[]) {\r\n    uint256 amountInTreasuryToDistribute = this.balance / 10;\r\n    uint256[] memory results = new uint256[](_treeIds.length);\r\n    for(uint256 i = 0; i < _treeIds.length; i++) {\r\n        // Important to multiply by 100 to\r\n        uint256 yourPercentage = treeDetails[_treeIds[i]].treePower * 1 ether / totalTreePower;\r\n        uint256 amountYouGet = yourPercentage * amountInTreasuryToDistribute / 1 ether;\r\n        results[i] = amountYouGet;\r\n    }\r\n    return results;\r\n  }\r\n\r\n  // To get all the tree IDs of one user\r\n  function getTreeIds(address _account) public constant returns(uint256[]) {\r\n    if(_account != address(0)) return ownerTreesIds[_account];\r\n    else return ownerTreesIds[msg.sender];\r\n  }\r\n\r\n  // To get all the trees on sale\r\n  function getTreesOnSale() public constant returns(uint256[]) {\r\n      return treesOnSale;\r\n  }\r\n\r\n  // To extract the ether in an emergency\r\n  function emergencyExtract() public onlyOwner {\r\n    owner.transfer(this.balance);\r\n  }\r\n}\r\n",
  "sourcePath": "C:\\Users\\merunas\\Desktop\\money-trees\\contracts\\Trees.sol",
  "compiler": {
    "name": "solc",
    "version": "0.4.18+commit.9cf6e910.Emscripten.clang"
  },
  "schemaVersion": "1.0.1",
  "updatedAt": "2018-02-06T17:29:03.720Z"
}