{
  "contractName": "Trees",
  "abi": [
    {
      "constant": true,
      "inputs": [
        {
          "name": "_account",
          "type": "address"
        }
      ],
      "name": "getTreeIds",
      "outputs": [
        {
          "components": [
            {
              "name": "ID",
              "type": "uint256"
            },
            {
              "name": "owner",
              "type": "address"
            },
            {
              "name": "treeValue",
              "type": "uint256"
            },
            {
              "name": "treePower",
              "type": "uint256"
            },
            {
              "name": "onSale",
              "type": "bool"
            }
          ],
          "name": "",
          "type": "uint256[]"
        }
      ],
      "payable": false,
      "stateMutability": "view",
      "type": "function"
    },
    {
      "constant": false,
      "inputs": [
        {
          "name": "_admin",
          "type": "address"
        }
      ],
      "name": "removeAdmin",
      "outputs": [
        {
          "name": "",
          "type": "address"
        }
      ],
      "payable": false,
      "stateMutability": "nonpayable",
      "type": "function"
    },
    {
      "constant": true,
      "inputs": [
        {
          "name": "",
          "type": "address"
        }
      ],
      "name": "isAdmin",
      "outputs": [
        {
          "name": "",
          "type": "bool"
        }
      ],
      "payable": false,
      "stateMutability": "view",
      "type": "function"
    },
    {
      "constant": false,
      "inputs": [
        {
          "name": "_treeNumber",
          "type": "uint256"
        },
        {
          "name": "_originalOwner",
          "type": "address"
        }
      ],
      "name": "buyTree",
      "outputs": [
        {
          "name": "",
          "type": "bool"
        }
      ],
      "payable": true,
      "stateMutability": "payable",
      "type": "function"
    },
    {
      "constant": true,
      "inputs": [
        {
          "name": "_treeNumber",
          "type": "uint256"
        },
        {
          "name": "_originalOwner",
          "type": "address"
        }
      ],
      "name": "defaultTreesPower",
      "outputs": [
        {
          "name": "",
          "type": "uint256"
        }
      ],
      "payable": false,
      "stateMutability": "view",
      "type": "function"
    },
    {
      "constant": false,
      "inputs": [],
      "name": "generateTree",
      "outputs": [
        {
          "name": "",
          "type": "uint256"
        }
      ],
      "payable": false,
      "stateMutability": "nonpayable",
      "type": "function"
    },
    {
      "constant": true,
      "inputs": [],
      "name": "defaultTreesOwner",
      "outputs": [
        {
          "name": "",
          "type": "address"
        }
      ],
      "payable": false,
      "stateMutability": "view",
      "type": "function"
    },
    {
      "constant": true,
      "inputs": [
        {
          "name": "",
          "type": "address"
        },
        {
          "name": "",
          "type": "uint256"
        }
      ],
      "name": "ownerTreesIds",
      "outputs": [
        {
          "name": "",
          "type": "uint256"
        }
      ],
      "payable": false,
      "stateMutability": "view",
      "type": "function"
    },
    {
      "constant": false,
      "inputs": [
        {
          "name": "_treeNumber",
          "type": "uint256"
        }
      ],
      "name": "putTreeOnSale",
      "outputs": [],
      "payable": false,
      "stateMutability": "nonpayable",
      "type": "function"
    },
    {
      "constant": false,
      "inputs": [
        {
          "name": "_admin",
          "type": "address"
        }
      ],
      "name": "addAdmin",
      "outputs": [
        {
          "name": "",
          "type": "uint256"
        }
      ],
      "payable": false,
      "stateMutability": "nonpayable",
      "type": "function"
    },
    {
      "constant": true,
      "inputs": [
        {
          "name": "",
          "type": "uint256"
        },
        {
          "name": "",
          "type": "uint256"
        }
      ],
      "name": "trees",
      "outputs": [
        {
          "name": "",
          "type": "uint256"
        },
        {
          "name": "owner",
          "type": "address"
        },
        {
          "name": "treeValue",
          "type": "uint256"
        },
        {
          "name": "treePower",
          "type": "uint256"
        },
        {
          "name": "onSale",
          "type": "bool"
        }
      ],
      "payable": false,
      "stateMutability": "view",
      "type": "function"
    },
    {
      "constant": true,
      "inputs": [],
      "name": "getTreesOnSale",
      "outputs": [
        {
          "name": "",
          "type": "uint256[]"
        }
      ],
      "payable": false,
      "stateMutability": "view",
      "type": "function"
    },
    {
      "constant": true,
      "inputs": [],
      "name": "owner",
      "outputs": [
        {
          "name": "",
          "type": "address"
        }
      ],
      "payable": false,
      "stateMutability": "view",
      "type": "function"
    },
    {
      "constant": true,
      "inputs": [],
      "name": "lastTreeId",
      "outputs": [
        {
          "name": "",
          "type": "uint256"
        }
      ],
      "payable": false,
      "stateMutability": "view",
      "type": "function"
    },
    {
      "constant": true,
      "inputs": [
        {
          "name": "",
          "type": "uint256"
        }
      ],
      "name": "treeDetails",
      "outputs": [
        {
          "components": [
            {
              "name": "ID",
              "type": "uint256"
            },
            {
              "name": "owner",
              "type": "address"
            },
            {
              "name": "treeValue",
              "type": "uint256"
            },
            {
              "name": "treePower",
              "type": "uint256"
            },
            {
              "name": "onSale",
              "type": "bool"
            }
          ],
          "name": "ID",
          "type": "uint256"
        },
        {
          "name": "owner",
          "type": "address"
        },
        {
          "name": "purchaseDate",
          "type": "uint256"
        },
        {
          "name": "treePower",
          "type": "uint256"
        },
        {
          "name": "onSale",
          "type": "bool"
        }
      ],
      "payable": false,
      "stateMutability": "view",
      "type": "function"
    },
    {
      "constant": true,
      "inputs": [
        {
          "name": "",
          "type": "uint256"
        }
      ],
      "name": "treesOnSale",
      "outputs": [
        {
          "components": [
            {
              "name": "ID",
              "type": "uint256"
            },
            {
              "name": "owner",
              "type": "address"
            },
            {
              "name": "treeValue",
              "type": "uint256"
            },
            {
              "name": "treePower",
              "type": "uint256"
            },
            {
              "name": "onSale",
              "type": "bool"
            }
          ],
          "name": "",
          "type": "uint256"
        },
        {
          "name": "owner",
          "type": "address"
        },
        {
          "name": "treeValue",
          "type": "uint256"
        },
        {
          "name": "treePower",
          "type": "uint256"
        },
        {
          "name": "onSale",
          "type": "bool"
        }
      ],
      "payable": false,
      "stateMutability": "view",
      "type": "function"
    },
    {
      "constant": true,
      "inputs": [
        {
          "name": "",
          "type": "uint256"
        }
      ],
      "name": "treesOnSale",
      "outputs": [
        {
          "name": "",
          "type": "uint256"
        }
      ],
      "payable": false,
      "stateMutability": "view",
      "type": "function"
    },
    {
      "constant": false,
      "inputs": [
        {
          "name": "_treeNumber",
          "type": "uint256"
        },
        {
          "name": "_receiver",
          "type": "address"
        }
      ],
      "name": "putTreeOnSale",
      "outputs": [],
      "payable": true,
      "stateMutability": "payable",
      "type": "function"
    }
  ],
  "bytecode": "0x606060405233600760006101000a81548173ffffffffffffffffffffffffffffffffffffffff021916908373ffffffffffffffffffffffffffffffffffffffff160217905550600a600855336000806101000a81548173ffffffffffffffffffffffffffffffffffffffff021916908373ffffffffffffffffffffffffffffffffffffffff1602179055506100c76000809054906101000a900473ffffffffffffffffffffffffffffffffffffffff166100cc64010000000002610dd5176401000000009004565b610181565b6000809054906101000a900473ffffffffffffffffffffffffffffffffffffffff1673ffffffffffffffffffffffffffffffffffffffff163373ffffffffffffffffffffffffffffffffffffffff1614151561012757600080fd5b60018060008373ffffffffffffffffffffffffffffffffffffffff1673ffffffffffffffffffffffffffffffffffffffff16815260200190815260200160002060006101000a81548160ff02191690831515021790555050565b611097806101906000396000f3006060604052600436106100e6576000357c0100000000000000000000000000000000000000000000000000000000900463ffffffff1680630a425a33146100eb5780631785f53c1461017957806324d7806c146101b25780632ab28ce414610203578063388a15261461023a57806340f555a51461026357806353458f5e1461027857806363aa289b146102cd57806365c501e01461032357806370480275146103465780637a5080221461037f5780637f64727b146103b65780638da5cb5b14610420578063b1ae988714610475578063cb14a5cf1461049e578063e5c7bc6c14610521575b600080fd5b34156100f657600080fd5b610122600480803573ffffffffffffffffffffffffffffffffffffffff16906020019091905050610558565b6040518080602001828103825283818151815260200191508051906020019060200280838360005b8381101561016557808201518184015260208101905061014a565b505050509050019250505060405180910390f35b341561018457600080fd5b6101b0600480803573ffffffffffffffffffffffffffffffffffffffff169060200190919050506106c1565b005b34156101bd57600080fd5b6101e9600480803573ffffffffffffffffffffffffffffffffffffffff16906020019091905050610777565b604051808215151515815260200191505060405180910390f35b610238600480803590602001909190803573ffffffffffffffffffffffffffffffffffffffff16906020019091905050610797565b005b341561024557600080fd5b61024d610a4a565b6040518082815260200191505060405180910390f35b341561026e57600080fd5b610276610a50565b005b341561028357600080fd5b61028b610c83565b604051808273ffffffffffffffffffffffffffffffffffffffff1673ffffffffffffffffffffffffffffffffffffffff16815260200191505060405180910390f35b34156102d857600080fd5b61030d600480803573ffffffffffffffffffffffffffffffffffffffff16906020019091908035906020019091905050610ca9565b6040518082815260200191505060405180910390f35b341561032e57600080fd5b6103446004808035906020019091905050610cda565b005b341561035157600080fd5b61037d600480803573ffffffffffffffffffffffffffffffffffffffff16906020019091905050610dd5565b005b341561038a57600080fd5b6103a06004808035906020019091905050610e8a565b6040518082815260200191505060405180910390f35b34156103c157600080fd5b6103c9610eae565b6040518080602001828103825283818151815260200191508051906020019060200280838360005b8381101561040c5780820151818401526020810190506103f1565b505050509050019250505060405180910390f35b341561042b57600080fd5b610433610f0c565b604051808273ffffffffffffffffffffffffffffffffffffffff1673ffffffffffffffffffffffffffffffffffffffff16815260200191505060405180910390f35b341561048057600080fd5b610488610f31565b6040518082815260200191505060405180910390f35b34156104a957600080fd5b6104bf6004808035906020019091905050610f37565b604051808681526020018573ffffffffffffffffffffffffffffffffffffffff1673ffffffffffffffffffffffffffffffffffffffff168152602001848152602001838152602001821515151581526020019550505050505060405180910390f35b341561052c57600080fd5b6105426004808035906020019091905050610f9a565b6040518082815260200191505060405180910390f35b610560610fbe565b600073ffffffffffffffffffffffffffffffffffffffff168273ffffffffffffffffffffffffffffffffffffffff1614151561062b57600360008373ffffffffffffffffffffffffffffffffffffffff1673ffffffffffffffffffffffffffffffffffffffff16815260200190815260200160002080548060200260200160405190810160405280929190818152602001828054801561061f57602002820191906000526020600020905b81548152602001906001019080831161060b575b505050505090506106bc565b600360003373ffffffffffffffffffffffffffffffffffffffff1673ffffffffffffffffffffffffffffffffffffffff1681526020019081526020016000208054806020026020016040519081016040528092919081815260200182805480156106b457602002820191906000526020600020905b8154815260200190600101908083116106a0575b505050505090505b919050565b6000809054906101000a900473ffffffffffffffffffffffffffffffffffffffff1673ffffffffffffffffffffffffffffffffffffffff163373ffffffffffffffffffffffffffffffffffffffff1614151561071c57600080fd5b6000600160008373ffffffffffffffffffffffffffffffffffffffff1673ffffffffffffffffffffffffffffffffffffffff16815260200190815260200160002060006101000a81548160ff02191690831515021790555050565b60016020528060005260406000206000915054906101000a900460ff1681565b60008060006002600086815260200190815260200160002060010160009054906101000a900473ffffffffffffffffffffffffffffffffffffffff1673ffffffffffffffffffffffffffffffffffffffff163373ffffffffffffffffffffffffffffffffffffffff161415151561080d57600080fd5b6002600086815260200190815260200160002060040160009054906101000a900460ff16151561083c57600080fd5b339250600091505b600360008573ffffffffffffffffffffffffffffffffffffffff1673ffffffffffffffffffffffffffffffffffffffff1681526020019081526020016000208054905082101561095957600360008573ffffffffffffffffffffffffffffffffffffffff1673ffffffffffffffffffffffffffffffffffffffff168152602001908152602001600020828154811015156108da57fe5b90600052602060002090015490508481141561094c57600360008573ffffffffffffffffffffffffffffffffffffffff1673ffffffffffffffffffffffffffffffffffffffff1681526020019081526020016000208281548110151561093c57fe5b9060005260206000209001600090555b8180600101925050610844565b600360008473ffffffffffffffffffffffffffffffffffffffff1673ffffffffffffffffffffffffffffffffffffffff16815260200190815260200160002080548060010182816109aa9190610fd2565b916000526020600020900160008790919091505550826002600087815260200190815260200160002060010160006101000a81548173ffffffffffffffffffffffffffffffffffffffff021916908373ffffffffffffffffffffffffffffffffffffffff16021790555060006002600087815260200190815260200160002060040160006101000a81548160ff0219169083151502179055505050505050565b60085481565b6000610a5a610ffe565b600160003373ffffffffffffffffffffffffffffffffffffffff1673ffffffffffffffffffffffffffffffffffffffff16815260200190815260200160002060009054906101000a900460ff161515610ab257600080fd5b6001600654019150600160066000828254019250508190555060a060405190810160405280838152602001600760009054906101000a900473ffffffffffffffffffffffffffffffffffffffff1673ffffffffffffffffffffffffffffffffffffffff168152602001428152602001600854815260200160011515815250905060036000600760009054906101000a900473ffffffffffffffffffffffffffffffffffffffff1673ffffffffffffffffffffffffffffffffffffffff1673ffffffffffffffffffffffffffffffffffffffff1681526020019081526020016000208054806001018281610ba59190610fd2565b91600052602060002090016000849091909150555080600260008481526020019081526020016000206000820151816000015560208201518160010160006101000a81548173ffffffffffffffffffffffffffffffffffffffff021916908373ffffffffffffffffffffffffffffffffffffffff160217905550604082015181600201556060820151816003015560808201518160040160006101000a81548160ff02191690831515021790555090505060058054806001018281610c6a9190610fd2565b9160005260206000209001600084909190915055505050565b600760009054906101000a900473ffffffffffffffffffffffffffffffffffffffff1681565b600360205281600052604060002081815481101515610cc457fe5b9060005260206000209001600091509150505481565b6002600082815260200190815260200160002060010160009054906101000a900473ffffffffffffffffffffffffffffffffffffffff1673ffffffffffffffffffffffffffffffffffffffff163373ffffffffffffffffffffffffffffffffffffffff16141515610d4a57600080fd5b6002600082815260200190815260200160002060040160009054906101000a900460ff16151515610d7a57600080fd5b60058054806001018281610d8e9190610fd2565b91600052602060002090016000839091909150555060016002600083815260200190815260200160002060040160006101000a81548160ff02191690831515021790555050565b6000809054906101000a900473ffffffffffffffffffffffffffffffffffffffff1673ffffffffffffffffffffffffffffffffffffffff163373ffffffffffffffffffffffffffffffffffffffff16141515610e3057600080fd5b60018060008373ffffffffffffffffffffffffffffffffffffffff1673ffffffffffffffffffffffffffffffffffffffff16815260200190815260200160002060006101000a81548160ff02191690831515021790555050565b600481815481101515610e9957fe5b90600052602060002090016000915090505481565b610eb6610fbe565b6005805480602002602001604051908101604052809291908181526020018280548015610f0257602002820191906000526020600020905b815481526020019060010190808311610eee575b5050505050905090565b6000809054906101000a900473ffffffffffffffffffffffffffffffffffffffff1681565b60065481565b60026020528060005260406000206000915090508060000154908060010160009054906101000a900473ffffffffffffffffffffffffffffffffffffffff16908060020154908060030154908060040160009054906101000a900460ff16905085565b600581815481101515610fa957fe5b90600052602060002090016000915090505481565b602060405190810160405280600081525090565b815481835581811511610ff957818360005260206000209182019101610ff89190611046565b5b505050565b60a06040519081016040528060008152602001600073ffffffffffffffffffffffffffffffffffffffff16815260200160008152602001600081526020016000151581525090565b61106891905b8082111561106457600081600090555060010161104c565b5090565b905600a165627a7a723058200ce86e251c45ea03b78b2c15c332db53363e709edb6faa09b2d0c5db4b3bf4a20029",
  "source": "pragma solidity ^0.4.18;\r\n\r\ncontract Admin {\r\n  address public owner;\r\n  mapping(address => bool) public isAdmin;\r\n\r\n  modifier onlyOwner() {\r\n    require(msg.sender == owner);\r\n    _;\r\n  }\r\n\r\n  modifier onlyAdmin() {\r\n    require(isAdmin[msg.sender]);\r\n    _;\r\n  }\r\n\r\n  function Admin() public {\r\n    owner = msg.sender;\r\n    addAdmin(owner);\r\n  }\r\n\r\n  function addAdmin(address _admin) public onlyOwner {\r\n    isAdmin[_admin] = true;\r\n  }\r\n\r\n  function removeAdmin(address _admin) public onlyOwner {\r\n    isAdmin[_admin] = false;\r\n  }\r\n}\r\n\r\n// To add a tree do the following:\r\n// - Create a new Tree with the ID, owner, treeValue and power to generate fruits\r\n// - Update the treeBalances and treeOwner mappings\r\ncontract Trees is Admin {\r\n  // Get the tree information given the id\r\n  mapping(uint256 => Tree) public treeDetails;\r\n  // A mapping with all the tree IDs of that owner\r\n  mapping(address => uint256[]) public ownerTreesIds;\r\n\r\n  struct Tree {\r\n    uint256 ID;\r\n    address owner;\r\n    uint256 purchaseDate;\r\n    uint256 treePower; // How much ether that tree is generating from 0 to 100 where 100 is the total power combined of all the trees\r\n    bool onSale;\r\n  }\r\n\r\n  uint256[] public trees;\r\n  uint256[] public treesOnSale;\r\n  uint256 public lastTreeId;\r\n  address public defaultTreesOwner = msg.sender;\r\n  uint256 public defaultTreesPower = 10; // 10% of the total power\r\n\r\n  // This will be called automatically by the server\r\n  // The contract itself will hold the initial trees\r\n  function generateTree() public onlyAdmin {\r\n    uint256 newTreeId = lastTreeId + 1;\r\n    lastTreeId += 1;\r\n    Tree memory newTree = Tree(newTreeId, defaultTreesOwner, now, defaultTreesPower, true);\r\n\r\n    // Update the treeBalances and treeOwner mappings\r\n    // We add the tree to the same array position to find it easier\r\n    ownerTreesIds[defaultTreesOwner].push(newTreeId);\r\n    treeDetails[newTreeId] = newTree;\r\n    treesOnSale.push(newTreeId);\r\n  }\r\n\r\n  // This is payable, the user will send the payment here\r\n  // We delete the tree from the owner first and we add that to the receiver\r\n  // When you sell you're actually putting the tree on the market, not losing it yet\r\n  function putTreeOnSale(uint256 _treeNumber) public {\r\n    require(msg.sender == treeDetails[_treeNumber].owner);\r\n    require(!treeDetails[_treeNumber].onSale);\r\n\r\n    treesOnSale.push(_treeNumber);\r\n    treeDetails[_treeNumber].onSale = true;\r\n  }\r\n\r\n  function buyTree(uint256 _treeNumber, address _originalOwner) public payable {\r\n    require(msg.sender != treeDetails[_treeNumber].owner);\r\n    require(treeDetails[_treeNumber].onSale);\r\n\r\n    address newOwner = msg.sender;\r\n\r\n    // Move id from old to new owner\r\n    // Find the tree of that user and delete it\r\n    for(uint256 i = 0; i < ownerTreesIds[_originalOwner].length; i++) {\r\n        uint256 treeId = ownerTreesIds[_originalOwner][i];\r\n        if(treeId == _treeNumber) delete ownerTreesIds[_originalOwner][i];\r\n    }\r\n\r\n    ownerTreesIds[newOwner].push(_treeNumber);\r\n    treeDetails[_treeNumber].owner = newOwner;\r\n    treeDetails[_treeNumber].onSale = false;\r\n  }\r\n\r\n  // To get all the tree IDs of one user\r\n  function getTreeIds(address _account) public constant returns(uint256[]) {\r\n    if(_account != address(0)) return ownerTreesIds[_account];\r\n    else return ownerTreesIds[msg.sender];\r\n  }\r\n\r\n  // To get all the trees on sale\r\n  function getTreesOnSale() public constant returns(uint256[]) {\r\n      return treesOnSale;\r\n  }\r\n}\r\n",
  "sourcePath": "C:\\Users\\merunas\\Desktop\\money-trees\\contracts\\Trees.sol",
  "compiler": {
    "name": "solc",
    "version": "0.4.18+commit.9cf6e910.Emscripten.clang"
  },
  "schemaVersion": "1.0.1",
  "updatedAt": "2018-01-22T22:33:36.584Z"
}