{
  "contractName": "Trees",
  "abi": [
    {
      "constant": true,
      "inputs": [
        {
          "name": "_account",
          "type": "address"
        }
      ],
      "name": "getTreeIds",
      "outputs": [
        {
          "name": "",
          "type": "uint256[]"
        }
      ],
      "payable": false,
      "stateMutability": "view",
      "type": "function"
    },
    {
      "constant": false,
      "inputs": [
        {
          "name": "_admin",
          "type": "address"
        }
      ],
      "name": "removeAdmin",
      "outputs": [],
      "payable": false,
      "stateMutability": "nonpayable",
      "type": "function"
    },
    {
      "constant": true,
      "inputs": [
        {
          "name": "",
          "type": "address"
        }
      ],
      "name": "isAdmin",
      "outputs": [
        {
          "name": "",
          "type": "bool"
        }
      ],
      "payable": false,
      "stateMutability": "view",
      "type": "function"
    },
    {
      "constant": false,
      "inputs": [
        {
          "name": "_treeNumber",
          "type": "uint256"
        },
        {
          "name": "_originalOwner",
          "type": "address"
        }
      ],
      "name": "buyTree",
      "outputs": [],
      "payable": true,
      "stateMutability": "payable",
      "type": "function"
    },
    {
      "constant": true,
      "inputs": [],
      "name": "defaultTreesPower",
      "outputs": [
        {
          "name": "",
          "type": "uint256"
        }
      ],
      "payable": false,
      "stateMutability": "view",
      "type": "function"
    },
    {
      "constant": true,
      "inputs": [
        {
          "name": "",
          "type": "uint256"
        },
        {
          "name": "",
          "type": "uint256"
        }
      ],
      "name": "treeWater",
      "outputs": [
        {
          "name": "",
          "type": "bool"
        }
      ],
      "payable": false,
      "stateMutability": "view",
      "type": "function"
    },
    {
      "constant": true,
      "inputs": [],
      "name": "defaultSalePrice",
      "outputs": [
        {
          "name": "",
          "type": "uint256"
        }
      ],
      "payable": false,
      "stateMutability": "view",
      "type": "function"
    },
    {
      "constant": true,
      "inputs": [],
      "name": "defaultTreesOwner",
      "outputs": [
        {
          "name": "",
          "type": "address"
        }
      ],
      "payable": false,
      "stateMutability": "view",
      "type": "function"
    },
    {
      "constant": false,
      "inputs": [
        {
          "name": "_treeId",
          "type": "uint256"
        }
      ],
      "name": "pickReward",
      "outputs": [],
      "payable": false,
      "stateMutability": "nonpayable",
      "type": "function"
    },
    {
      "constant": false,
      "inputs": [],
      "name": "emergencyExtract",
      "outputs": [],
      "payable": false,
      "stateMutability": "nonpayable",
      "type": "function"
    },
    {
      "constant": true,
      "inputs": [
        {
          "name": "",
          "type": "address"
        },
        {
          "name": "",
          "type": "uint256"
        }
      ],
      "name": "ownerTreesIds",
      "outputs": [
        {
          "name": "",
          "type": "uint256"
        }
      ],
      "payable": false,
      "stateMutability": "view",
      "type": "function"
    },
    {
      "constant": false,
      "inputs": [
        {
          "name": "_admin",
          "type": "address"
        }
      ],
      "name": "addAdmin",
      "outputs": [],
      "payable": false,
      "stateMutability": "nonpayable",
      "type": "function"
    },
    {
      "constant": false,
      "inputs": [
        {
          "name": "_treeNumber",
          "type": "uint256"
        },
        {
          "name": "_salePrice",
          "type": "uint256"
        }
      ],
      "name": "putTreeOnSale",
      "outputs": [],
      "payable": false,
      "stateMutability": "nonpayable",
      "type": "function"
    },
    {
      "constant": true,
      "inputs": [
        {
          "name": "",
          "type": "uint256"
        }
      ],
      "name": "trees",
      "outputs": [
        {
          "name": "",
          "type": "uint256"
        }
      ],
      "payable": false,
      "stateMutability": "view",
      "type": "function"
    },
    {
      "constant": true,
      "inputs": [],
      "name": "getTreesOnSale",
      "outputs": [
        {
          "name": "",
          "type": "uint256[]"
        }
      ],
      "payable": false,
      "stateMutability": "view",
      "type": "function"
    },
    {
      "constant": true,
      "inputs": [],
      "name": "totalTreePower",
      "outputs": [
        {
          "name": "",
          "type": "uint256"
        }
      ],
      "payable": false,
      "stateMutability": "view",
      "type": "function"
    },
    {
      "constant": true,
      "inputs": [
        {
          "name": "_treeIds",
          "type": "uint256[]"
        }
      ],
      "name": "checkRewards",
      "outputs": [
        {
          "name": "",
          "type": "uint256[]"
        }
      ],
      "payable": false,
      "stateMutability": "view",
      "type": "function"
    },
    {
      "constant": true,
      "inputs": [],
      "name": "owner",
      "outputs": [
        {
          "name": "",
          "type": "address"
        }
      ],
      "payable": false,
      "stateMutability": "view",
      "type": "function"
    },
    {
      "constant": false,
      "inputs": [
        {
          "name": "_treeId",
          "type": "uint256"
        }
      ],
      "name": "waterTree",
      "outputs": [],
      "payable": false,
      "stateMutability": "nonpayable",
      "type": "function"
    },
    {
      "constant": false,
      "inputs": [
        {
          "name": "_treeId",
          "type": "uint256"
        }
      ],
      "name": "cancelTreeSell",
      "outputs": [],
      "payable": false,
      "stateMutability": "nonpayable",
      "type": "function"
    },
    {
      "constant": true,
      "inputs": [],
      "name": "lastTreeId",
      "outputs": [
        {
          "name": "",
          "type": "uint256"
        }
      ],
      "payable": false,
      "stateMutability": "view",
      "type": "function"
    },
    {
      "constant": false,
      "inputs": [
        {
          "name": "_amountToGenerate",
          "type": "uint256"
        }
      ],
      "name": "generateTrees",
      "outputs": [],
      "payable": false,
      "stateMutability": "nonpayable",
      "type": "function"
    },
    {
      "constant": true,
      "inputs": [],
      "name": "timeBetweenRewards",
      "outputs": [
        {
          "name": "",
          "type": "uint256"
        }
      ],
      "payable": false,
      "stateMutability": "view",
      "type": "function"
    },
    {
      "constant": true,
      "inputs": [
        {
          "name": "_treeIds",
          "type": "uint256[]"
        }
      ],
      "name": "checkTreesWatered",
      "outputs": [
        {
          "name": "",
          "type": "bool[]"
        }
      ],
      "payable": false,
      "stateMutability": "view",
      "type": "function"
    },
    {
      "constant": true,
      "inputs": [
        {
          "name": "",
          "type": "uint256"
        }
      ],
      "name": "treeDetails",
      "outputs": [
        {
          "name": "ID",
          "type": "uint256"
        },
        {
          "name": "owner",
          "type": "address"
        },
        {
          "name": "purchaseDate",
          "type": "uint256"
        },
        {
          "name": "treePower",
          "type": "uint256"
        },
        {
          "name": "salePrice",
          "type": "uint256"
        },
        {
          "name": "timesExchanged",
          "type": "uint256"
        },
        {
          "name": "onSale",
          "type": "bool"
        },
        {
          "name": "lastRewardPickedDate",
          "type": "uint256"
        }
      ],
      "payable": false,
      "stateMutability": "view",
      "type": "function"
    },
    {
      "constant": true,
      "inputs": [
        {
          "name": "",
          "type": "uint256"
        }
      ],
      "name": "treesOnSale",
      "outputs": [
        {
          "name": "",
          "type": "uint256"
        }
      ],
      "payable": false,
      "stateMutability": "view",
      "type": "function"
    },
    {
      "anonymous": false,
      "inputs": [
        {
          "indexed": true,
          "name": "treeId",
          "type": "uint256"
        },
        {
          "indexed": true,
          "name": "owner",
          "type": "address"
        },
        {
          "indexed": false,
          "name": "date",
          "type": "uint256"
        }
      ],
      "name": "LogWaterTree",
      "type": "event"
    },
    {
      "anonymous": false,
      "inputs": [
        {
          "indexed": true,
          "name": "treeId",
          "type": "uint256"
        },
        {
          "indexed": true,
          "name": "owner",
          "type": "address"
        },
        {
          "indexed": false,
          "name": "date",
          "type": "uint256"
        },
        {
          "indexed": false,
          "name": "amount",
          "type": "uint256"
        }
      ],
      "name": "LogRewardPicked",
      "type": "event"
    }
  ],
  "bytecode": "0x606060405233600860006101000a81548173ffffffffffffffffffffffffffffffffffffffff021916908373ffffffffffffffffffffffffffffffffffffffff1602179055506001600955670de0b6b3a7640000600a5562015180600c55336000806101000a81548173ffffffffffffffffffffffffffffffffffffffff021916908373ffffffffffffffffffffffffffffffffffffffff1602179055506100da6000809054906101000a900473ffffffffffffffffffffffffffffffffffffffff166100df64010000000002611260176401000000009004565b610194565b6000809054906101000a900473ffffffffffffffffffffffffffffffffffffffff1673ffffffffffffffffffffffffffffffffffffffff163373ffffffffffffffffffffffffffffffffffffffff1614151561013a57600080fd5b60018060008373ffffffffffffffffffffffffffffffffffffffff1673ffffffffffffffffffffffffffffffffffffffff16815260200190815260200160002060006101000a81548160ff02191690831515021790555050565b611fc5806101a36000396000f300606060405260043610610154576000357c0100000000000000000000000000000000000000000000000000000000900463ffffffff1680630a425a33146101595780631785f53c146101e757806324d7806c146102205780632ab28ce414610271578063388a1526146102a85780634398fbd6146102d157806345ed68e81461031557806353458f5e1461033e57806356196d87146103935780635fa51277146103b657806363aa289b146103cb578063704802751461042157806379f3b4811461045a5780637a508022146104865780637f64727b146104bd5780637fdafafa14610527578063859f63dc146105505780638da5cb5b146105ff578063998b723b146106545780639b35108714610677578063b1ae98871461069a578063c4ad32be146106c3578063c6132eb3146106e6578063c93ab4c31461070f578063cb14a5cf146107be578063e5c7bc6c14610856575b600080fd5b341561016457600080fd5b610190600480803573ffffffffffffffffffffffffffffffffffffffff1690602001909190505061088d565b6040518080602001828103825283818151815260200191508051906020019060200280838360005b838110156101d35780820151818401526020810190506101b8565b505050509050019250505060405180910390f35b34156101f257600080fd5b61021e600480803573ffffffffffffffffffffffffffffffffffffffff169060200190919050506109f6565b005b341561022b57600080fd5b610257600480803573ffffffffffffffffffffffffffffffffffffffff16906020019091905050610aac565b604051808215151515815260200191505060405180910390f35b6102a6600480803590602001909190803573ffffffffffffffffffffffffffffffffffffffff16906020019091905050610acc565b005b34156102b357600080fd5b6102bb610f41565b6040518082815260200191505060405180910390f35b34156102dc57600080fd5b6102fb6004808035906020019091908035906020019091905050610f47565b604051808215151515815260200191505060405180910390f35b341561032057600080fd5b610328610f76565b6040518082815260200191505060405180910390f35b341561034957600080fd5b610351610f7c565b604051808273ffffffffffffffffffffffffffffffffffffffff1673ffffffffffffffffffffffffffffffffffffffff16815260200191505060405180910390f35b341561039e57600080fd5b6103b46004808035906020019091905050610fa2565b005b34156103c157600080fd5b6103c961115a565b005b34156103d657600080fd5b61040b600480803573ffffffffffffffffffffffffffffffffffffffff1690602001909190803590602001909190505061122f565b6040518082815260200191505060405180910390f35b341561042c57600080fd5b610458600480803573ffffffffffffffffffffffffffffffffffffffff16906020019091905050611260565b005b341561046557600080fd5b6104846004808035906020019091908035906020019091905050611315565b005b341561049157600080fd5b6104a7600480803590602001909190505061143b565b6040518082815260200191505060405180910390f35b34156104c857600080fd5b6104d061145f565b6040518080602001828103825283818151815260200191508051906020019060200280838360005b838110156105135780820151818401526020810190506104f8565b505050509050019250505060405180910390f35b341561053257600080fd5b61053a6114bd565b6040518082815260200191505060405180910390f35b341561055b57600080fd5b6105a86004808035906020019082018035906020019080806020026020016040519081016040528093929190818152602001838360200280828437820191505050505050919050506114c3565b6040518080602001828103825283818151815260200191508051906020019060200280838360005b838110156105eb5780820151818401526020810190506105d0565b505050509050019250505060405180910390f35b341561060a57600080fd5b6106126115c6565b604051808273ffffffffffffffffffffffffffffffffffffffff1673ffffffffffffffffffffffffffffffffffffffff16815260200191505060405180910390f35b341561065f57600080fd5b61067560048080359060200190919050506115eb565b005b341561068257600080fd5b6106986004808035906020019091905050611857565b005b34156106a557600080fd5b6106ad61198f565b6040518082815260200191505060405180910390f35b34156106ce57600080fd5b6106e46004808035906020019091905050611995565b005b34156106f157600080fd5b6106f9611c58565b6040518082815260200191505060405180910390f35b341561071a57600080fd5b610767600480803590602001908201803590602001908080602002602001604051908101604052809392919081815260200183836020028082843782019150505050505091905050611c5e565b6040518080602001828103825283818151815260200191508051906020019060200280838360005b838110156107aa57808201518184015260208101905061078f565b505050509050019250505060405180910390f35b34156107c957600080fd5b6107df6004808035906020019091905050611dbb565b604051808981526020018873ffffffffffffffffffffffffffffffffffffffff1673ffffffffffffffffffffffffffffffffffffffff168152602001878152602001868152602001858152602001848152602001831515151581526020018281526020019850505050505050505060405180910390f35b341561086157600080fd5b6108776004808035906020019091905050611e30565b6040518082815260200191505060405180910390f35b610895611e54565b600073ffffffffffffffffffffffffffffffffffffffff168273ffffffffffffffffffffffffffffffffffffffff1614151561096057600360008373ffffffffffffffffffffffffffffffffffffffff1673ffffffffffffffffffffffffffffffffffffffff16815260200190815260200160002080548060200260200160405190810160405280929190818152602001828054801561095457602002820191906000526020600020905b815481526020019060010190808311610940575b505050505090506109f1565b600360003373ffffffffffffffffffffffffffffffffffffffff1673ffffffffffffffffffffffffffffffffffffffff1681526020019081526020016000208054806020026020016040519081016040528092919081815260200182805480156109e957602002820191906000526020600020905b8154815260200190600101908083116109d5575b505050505090505b919050565b6000809054906101000a900473ffffffffffffffffffffffffffffffffffffffff1673ffffffffffffffffffffffffffffffffffffffff163373ffffffffffffffffffffffffffffffffffffffff16141515610a5157600080fd5b6000600160008373ffffffffffffffffffffffffffffffffffffffff1673ffffffffffffffffffffffffffffffffffffffff16815260200190815260200160002060006101000a81548160ff02191690831515021790555050565b60016020528060005260406000206000915054906101000a900460ff1681565b60008060006002600086815260200190815260200160002060010160009054906101000a900473ffffffffffffffffffffffffffffffffffffffff1673ffffffffffffffffffffffffffffffffffffffff163373ffffffffffffffffffffffffffffffffffffffff1614151515610b4257600080fd5b6002600086815260200190815260200160002060070160009054906101000a900460ff161515610b7157600080fd5b60026000868152602001908152602001600020600401543410151515610b9657600080fd5b339250600091505b600360008573ffffffffffffffffffffffffffffffffffffffff1673ffffffffffffffffffffffffffffffffffffffff16815260200190815260200160002080549050821015610cb05784600360008673ffffffffffffffffffffffffffffffffffffffff1673ffffffffffffffffffffffffffffffffffffffff16815260200190815260200160002083815481101515610c3557fe5b9060005260206000209001541415610ca357600360008573ffffffffffffffffffffffffffffffffffffffff1673ffffffffffffffffffffffffffffffffffffffff16815260200190815260200160002082815481101515610c9357fe5b9060005260206000209001600090555b8180600101925050610b9e565b600090505b600680549050811015610d145784600682815481101515610cd257fe5b9060005260206000209001541415610d0757600681815481101515610cf357fe5b906000526020600020900160009055610d14565b8080600101915050610cb5565b600360008473ffffffffffffffffffffffffffffffffffffffff1673ffffffffffffffffffffffffffffffffffffffff1681526020019081526020016000208054806001018281610d659190611e68565b91600052602060002090016000879091909150555060006002600087815260200190815260200160002060070160006101000a81548160ff021916908315150217905550600060026000878152602001908152602001600020600501541415610e3a576000809054906101000a900473ffffffffffffffffffffffffffffffffffffffff1673ffffffffffffffffffffffffffffffffffffffff166108fc600234811515610e0f57fe5b049081150290604051600060405180830381858888f193505050501515610e3557600080fd5b610ec0565b6002600086815260200190815260200160002060010160009054906101000a900473ffffffffffffffffffffffffffffffffffffffff1673ffffffffffffffffffffffffffffffffffffffff166108fc6064605a3402811515610e9957fe5b049081150290604051600060405180830381858888f193505050501515610ebf57600080fd5b5b826002600087815260200190815260200160002060010160006101000a81548173ffffffffffffffffffffffffffffffffffffffff021916908373ffffffffffffffffffffffffffffffffffffffff160217905550600160026000878152602001908152602001600020600501600082825401925050819055505050505050565b60095481565b60046020528160005260406000206020528060005260406000206000915091509054906101000a900460ff1681565b600a5481565b600860009054906101000a900473ffffffffffffffffffffffffffffffffffffffff1681565b610faa611e54565b610fb2611e54565b6002600084815260200190815260200160002060010160009054906101000a900473ffffffffffffffffffffffffffffffffffffffff1673ffffffffffffffffffffffffffffffffffffffff163373ffffffffffffffffffffffffffffffffffffffff1614151561102257600080fd5b600c546002600085815260200190815260200160002060080154420311151561104a57600080fd5b8282600081518110151561105a57fe5b9060200190602002018181525050611071826114c3565b90504260026000858152602001908152602001600020600801819055503373ffffffffffffffffffffffffffffffffffffffff166108fc8260008151811015156110b757fe5b906020019060200201519081150290604051600060405180830381858888f1935050505015156110e657600080fd5b3373ffffffffffffffffffffffffffffffffffffffff16837f12bb6df7d3f023952e2af1ef146450890b0f750d47ed0ac466a542b81646e06a4284600081518110151561112f57fe5b90602001906020020151604051808381526020018281526020019250505060405180910390a3505050565b6000809054906101000a900473ffffffffffffffffffffffffffffffffffffffff1673ffffffffffffffffffffffffffffffffffffffff163373ffffffffffffffffffffffffffffffffffffffff161415156111b557600080fd5b6000809054906101000a900473ffffffffffffffffffffffffffffffffffffffff1673ffffffffffffffffffffffffffffffffffffffff166108fc3073ffffffffffffffffffffffffffffffffffffffff16319081150290604051600060405180830381858888f19350505050151561122d57600080fd5b565b60036020528160005260406000208181548110151561124a57fe5b9060005260206000209001600091509150505481565b6000809054906101000a900473ffffffffffffffffffffffffffffffffffffffff1673ffffffffffffffffffffffffffffffffffffffff163373ffffffffffffffffffffffffffffffffffffffff161415156112bb57600080fd5b60018060008373ffffffffffffffffffffffffffffffffffffffff1673ffffffffffffffffffffffffffffffffffffffff16815260200190815260200160002060006101000a81548160ff02191690831515021790555050565b6002600083815260200190815260200160002060010160009054906101000a900473ffffffffffffffffffffffffffffffffffffffff1673ffffffffffffffffffffffffffffffffffffffff163373ffffffffffffffffffffffffffffffffffffffff1614151561138557600080fd5b6002600083815260200190815260200160002060070160009054906101000a900460ff161515156113b557600080fd5b6000811115156113c457600080fd5b600680548060010182816113d89190611e68565b91600052602060002090016000849091909150555080600260008481526020019081526020016000206004018190555060016002600084815260200190815260200160002060070160006101000a81548160ff0219169083151502179055505050565b60058181548110151561144a57fe5b90600052602060002090016000915090505481565b611467611e54565b60068054806020026020016040519081016040528092919081815260200182805480156114b357602002820191906000526020600020905b81548152602001906001019080831161149f575b5050505050905090565b600b5481565b6114cb611e54565b60006114d5611e54565b6000806000600a3073ffffffffffffffffffffffffffffffffffffffff16318115156114fd57fe5b049450865160405180591061150f5750595b90808252806020026020018201604052509350600092505b86518310156115b957600b54670de0b6b3a7640000600260008a8781518110151561154e57fe5b906020019060200201518152602001908152602001600020600301540281151561157457fe5b049150670de0b6b3a764000085830281151561158c57fe5b04905080848481518110151561159e57fe5b90602001906020020181815250508280600101935050611527565b8395505050505050919050565b6000809054906101000a900473ffffffffffffffffffffffffffffffffffffffff1681565b6115f3611e54565b60008060008411151561160557600080fd5b6002600085815260200190815260200160002060010160009054906101000a900473ffffffffffffffffffffffffffffffffffffffff1673ffffffffffffffffffffffffffffffffffffffff163373ffffffffffffffffffffffffffffffffffffffff1614151561167557600080fd5b600260008581526020019081526020016000206006018054806020026020016040519081016040528092919081815260200182805480156116d557602002820191906000526020600020905b8154815260200190600101908083116116c1575b50505050509250600083511115611737578260018451038151811015156116f857fe5b90602001906020020151420391506201518083600185510381518110151561171c57fe5b9060200190602002015181151561172f57fe5b049050611741565b600c549150600190505b600c54821015151561175257600080fd5b600160046000868152602001908152602001600020600083815260200190815260200160002060006101000a81548160ff0219169083151502179055506002600085815260200190815260200160002060060180548060010182816117b79190611e68565b916000526020600020900160004290919091505550600160026000868152602001908152602001600020600301600082825401925050819055506001600b600082825401925050819055503373ffffffffffffffffffffffffffffffffffffffff16847fbaaac593555e8c1b93639a9540811000f432755855c955a831f11fdaeb907852426040518082815260200191505060405180910390a350505050565b60006002600083815260200190815260200160002060010160009054906101000a900473ffffffffffffffffffffffffffffffffffffffff1673ffffffffffffffffffffffffffffffffffffffff163373ffffffffffffffffffffffffffffffffffffffff161415156118c957600080fd5b6002600083815260200190815260200160002060070160009054906101000a900460ff1615156118f857600080fd5b600090505b60068054905081101561195c578160068281548110151561191a57fe5b906000526020600020900154141561194f5760068181548110151561193b57fe5b90600052602060002090016000905561195c565b80806001019150506118fd565b60006002600084815260200190815260200160002060070160006101000a81548160ff0219169083151502179055505050565b60075481565b6000806119a0611e54565b6119a8611e94565b600160003373ffffffffffffffffffffffffffffffffffffffff1673ffffffffffffffffffffffffffffffffffffffff16815260200190815260200160002060009054906101000a900460ff161515611a0057600080fd5b600093505b84841015611c51576001600754019250600160076000828254019250508190555061012060405190810160405280848152602001600860009054906101000a900473ffffffffffffffffffffffffffffffffffffffff1673ffffffffffffffffffffffffffffffffffffffff1681526020014281526020016009548152602001600a5481526020016000815260200183815260200160011515815260200142815250905060036000600860009054906101000a900473ffffffffffffffffffffffffffffffffffffffff1673ffffffffffffffffffffffffffffffffffffffff1673ffffffffffffffffffffffffffffffffffffffff1681526020019081526020016000208054806001018281611b1c9190611e68565b91600052602060002090016000859091909150555080600260008581526020019081526020016000206000820151816000015560208201518160010160006101000a81548173ffffffffffffffffffffffffffffffffffffffff021916908373ffffffffffffffffffffffffffffffffffffffff16021790555060408201518160020155606082015181600301556080820151816004015560a0820151816005015560c0820151816006019080519060200190611bda929190611eff565b5060e08201518160070160006101000a81548160ff021916908315150217905550610100820151816008015590505060068054806001018281611c1d9190611e68565b916000526020600020900160008590919091505550600954600b600082825401925050819055508380600101945050611a05565b5050505050565b600c5481565b611c66611f4c565b611c6e611f4c565b600080611c79611e54565b8551604051805910611c885750595b90808252806020026020018201604052509350600091505b8551821015611daf57600260008784815181101515611cbb57fe5b906020019060200201518152602001908152602001600020600601805480602002602001604051908101604052809291908181526020018280548015611d2057602002820191906000526020600020905b815481526020019060010190808311611d0c575b50505050509050600081511115611d7d57806001825103815181101515611d4357fe5b9060200190602002015142039250600c5483108483815181101515611d6457fe5b9060200190602002019015159081151581525050611da2565b60008483815181101515611d8d57fe5b90602001906020020190151590811515815250505b8180600101925050611ca0565b83945050505050919050565b60026020528060005260406000206000915090508060000154908060010160009054906101000a900473ffffffffffffffffffffffffffffffffffffffff16908060020154908060030154908060040154908060050154908060070160009054906101000a900460ff16908060080154905088565b600681815481101515611e3f57fe5b90600052602060002090016000915090505481565b602060405190810160405280600081525090565b815481835581811511611e8f57818360005260206000209182019101611e8e9190611f60565b5b505050565b6101206040519081016040528060008152602001600073ffffffffffffffffffffffffffffffffffffffff16815260200160008152602001600081526020016000815260200160008152602001611ee9611f85565b8152602001600015158152602001600081525090565b828054828255906000526020600020908101928215611f3b579160200282015b82811115611f3a578251825591602001919060010190611f1f565b5b509050611f489190611f60565b5090565b602060405190810160405280600081525090565b611f8291905b80821115611f7e576000816000905550600101611f66565b5090565b90565b6020604051908101604052806000815250905600a165627a7a72305820402b7485ab6359fc25a62fb2c8c1f9a047b1fb04857bf979f47e5045b2c2c33b0029",
  "source": "pragma solidity ^0.4.18;\r\n\r\ncontract Admin {\r\n  address public owner;\r\n  mapping(address => bool) public isAdmin;\r\n\r\n  modifier onlyOwner() {\r\n    require(msg.sender == owner);\r\n    _;\r\n  }\r\n\r\n  modifier onlyAdmin() {\r\n    require(isAdmin[msg.sender]);\r\n    _;\r\n  }\r\n\r\n  function Admin() public {\r\n    owner = msg.sender;\r\n    addAdmin(owner);\r\n  }\r\n\r\n  function addAdmin(address _admin) public onlyOwner {\r\n    isAdmin[_admin] = true;\r\n  }\r\n\r\n  function removeAdmin(address _admin) public onlyOwner {\r\n    isAdmin[_admin] = false;\r\n  }\r\n}\r\n\r\n// To add a tree do the following:\r\n// - Create a new Tree with the ID, owner, treeValue and power to generate fruits\r\n// - Update the treeBalances and treeOwner mappings\r\ncontract Trees is Admin {\r\n  event LogWaterTree(uint256 indexed treeId, address indexed owner, uint256 date);\r\n  event LogRewardPicked(uint256 indexed treeId, address indexed owner, uint256 date, uint256 amount);\r\n\r\n  // Get the tree information given the id\r\n  mapping(uint256 => Tree) public treeDetails;\r\n  // A mapping with all the tree IDs of that owner\r\n  mapping(address => uint256[]) public ownerTreesIds;\r\n  // Tree id and the days the tree has been watered\r\n  // Tree id => day number => isWatered\r\n  mapping(uint256 => mapping(uint256 => bool)) public treeWater;\r\n\r\n  struct Tree {\r\n    uint256 ID;\r\n    address owner;\r\n    uint256 purchaseDate;\r\n    uint256 treePower; // How much ether that tree is generating from 0 to 100 where 100 is the total power combined of all the trees\r\n    uint256 salePrice;\r\n    uint256 timesExchanged;\r\n    uint256[] waterTreeDates;\r\n    bool onSale;\r\n    uint256 lastRewardPickedDate; // When did you take the last reward\r\n  }\r\n\r\n  uint256[] public trees;\r\n  uint256[] public treesOnSale;\r\n  uint256 public lastTreeId;\r\n  address public defaultTreesOwner = msg.sender;\r\n  uint256 public defaultTreesPower = 1; // 10% of the total power\r\n  uint256 public defaultSalePrice = 1 ether;\r\n  uint256 public totalTreePower;\r\n  uint256 public timeBetweenRewards = 1 days;\r\n\r\n  // This will be called automatically by the server\r\n  // The contract itself will hold the initial trees\r\n  function generateTrees(uint256 _amountToGenerate) public onlyAdmin {\r\n    for(uint256 i = 0; i < _amountToGenerate; i++) {\r\n        uint256 newTreeId = lastTreeId + 1;\r\n        lastTreeId += 1;\r\n        uint256[] memory emptyArray;\r\n        Tree memory newTree = Tree(newTreeId, defaultTreesOwner, now, defaultTreesPower, defaultSalePrice, 0, emptyArray, true, now);\r\n\r\n        // Update the treeBalances and treeOwner mappings\r\n        // We add the tree to the same array position to find it easier\r\n        ownerTreesIds[defaultTreesOwner].push(newTreeId);\r\n        treeDetails[newTreeId] = newTree;\r\n        treesOnSale.push(newTreeId);\r\n        totalTreePower += defaultTreesPower;\r\n    }\r\n  }\r\n\r\n  // This is payable, the user will send the payment here\r\n  // We delete the tree from the owner first and we add that to the receiver\r\n  // When you sell you're actually putting the tree on the market, not losing it yet\r\n  function putTreeOnSale(uint256 _treeNumber, uint256 _salePrice) public {\r\n    require(msg.sender == treeDetails[_treeNumber].owner);\r\n    require(!treeDetails[_treeNumber].onSale);\r\n    require(_salePrice > 0);\r\n\r\n    treesOnSale.push(_treeNumber);\r\n    treeDetails[_treeNumber].salePrice = _salePrice;\r\n    treeDetails[_treeNumber].onSale = true;\r\n  }\r\n\r\n  // To buy a tree paying ether\r\n  function buyTree(uint256 _treeNumber, address _originalOwner) public payable {\r\n    require(msg.sender != treeDetails[_treeNumber].owner);\r\n    require(treeDetails[_treeNumber].onSale);\r\n    require(msg.value >= treeDetails[_treeNumber].salePrice);\r\n    address newOwner = msg.sender;\r\n    // Move id from old to new owner\r\n    // Find the tree of that user and delete it\r\n    for(uint256 i = 0; i < ownerTreesIds[_originalOwner].length; i++) {\r\n        if(ownerTreesIds[_originalOwner][i] == _treeNumber) delete ownerTreesIds[_originalOwner][i];\r\n    }\r\n    // Remove the tree from the array of trees on sale\r\n    for(uint256 a = 0; a < treesOnSale.length; a++) {\r\n        if(treesOnSale[a] == _treeNumber) {\r\n            delete treesOnSale[a];\r\n            break;\r\n        }\r\n    }\r\n    ownerTreesIds[newOwner].push(_treeNumber);\r\n    treeDetails[_treeNumber].onSale = false;\r\n    if(treeDetails[_treeNumber].timesExchanged == 0) {\r\n        // Reward the owner for the initial trees as a way of monetization. Keep half for the treasury\r\n        owner.transfer(msg.value / 2);\r\n    } else {\r\n        treeDetails[_treeNumber].owner.transfer(msg.value * 90 / 100); // Keep 0.1% in the treasury\r\n    }\r\n    treeDetails[_treeNumber].owner = newOwner;\r\n    treeDetails[_treeNumber].timesExchanged += 1;\r\n  }\r\n\r\n  // To take a tree out of the market without selling it\r\n  function cancelTreeSell(uint256 _treeId) public {\r\n    require(msg.sender == treeDetails[_treeId].owner);\r\n    require(treeDetails[_treeId].onSale);\r\n    // Remove the tree from the array of trees on sale\r\n    for(uint256 a = 0; a < treesOnSale.length; a++) {\r\n        if(treesOnSale[a] == _treeId) {\r\n            delete treesOnSale[a];\r\n            break;\r\n        }\r\n    }\r\n    treeDetails[_treeId].onSale = false;\r\n  }\r\n\r\n  // Improves the treePower\r\n  function waterTree(uint256 _treeId) public {\r\n    require(_treeId > 0);\r\n    require(msg.sender == treeDetails[_treeId].owner);\r\n    uint256[] memory waterDates = treeDetails[_treeId].waterTreeDates;\r\n    uint256 timeSinceLastWater;\r\n    // We want to store at what day the tree was watered\r\n    uint256 day;\r\n    if(waterDates.length > 0) {\r\n        timeSinceLastWater = now - waterDates[waterDates.length - 1];\r\n        day = waterDates[waterDates.length - 1] / 1 days;\r\n    }else {\r\n        timeSinceLastWater = timeBetweenRewards;\r\n        day = 1;\r\n    }\r\n    require(timeSinceLastWater >= timeBetweenRewards);\r\n    treeWater[_treeId][day] = true;\r\n    treeDetails[_treeId].waterTreeDates.push(now);\r\n    treeDetails[_treeId].treePower += 1;\r\n    totalTreePower += 1;\r\n    LogWaterTree(_treeId, msg.sender, now);\r\n  }\r\n\r\n  // To get the ether from the rewards\r\n  function pickReward(uint256 _treeId) public {\r\n    require(msg.sender == treeDetails[_treeId].owner);\r\n    require(now - treeDetails[_treeId].lastRewardPickedDate > timeBetweenRewards);\r\n    uint256[] memory formatedId;\r\n    formatedId[0] = _treeId;\r\n    uint256[] memory rewards = checkRewards(formatedId);\r\n    treeDetails[_treeId].lastRewardPickedDate = now;\r\n    msg.sender.transfer(rewards[0]);\r\n    LogRewardPicked(_treeId, msg.sender, now, rewards[0]);\r\n  }\r\n\r\n  // To see if a tree is already watered or not\r\n  function checkTreesWatered(uint256[] _treeIds) public constant returns(bool[]) {\r\n    bool[] memory results = new bool[](_treeIds.length);\r\n    uint256 timeSinceLastWater;\r\n    for(uint256 i = 0; i < _treeIds.length; i++) {\r\n        uint256[] memory waterDates = treeDetails[_treeIds[i]].waterTreeDates;\r\n        if(waterDates.length > 0) {\r\n            timeSinceLastWater = now - waterDates[waterDates.length - 1];\r\n            results[i] = timeSinceLastWater < timeBetweenRewards;\r\n        } else {\r\n            results[i] = false;\r\n        }\r\n    }\r\n    return results;\r\n  }\r\n\r\n  // Returns an array of how much ether all those trees have generated today\r\n  // All the tree power combiined for instance 10293\r\n  // The tree power for this tree for instance 298\r\n  // What percentage do you get: 2%\r\n  // Total money in the treasury: 102 ETH\r\n  // A 10% of the total is distributed daily across all the users\r\n  // For instance 10.2 ETH today\r\n  // So if you pick your rewards right now, you'll get a 2% of 10.2 ETH which is 0.204 ETH\r\n  function checkRewards(uint256[] _treeIds) public constant returns(uint256[]) {\r\n    uint256 amountInTreasuryToDistribute = this.balance / 10;\r\n    uint256[] memory results = new uint256[](_treeIds.length);\r\n    for(uint256 i = 0; i < _treeIds.length; i++) {\r\n        // Important to multiply by 100 to\r\n        uint256 yourPercentage = treeDetails[_treeIds[i]].treePower * 1 ether / totalTreePower;\r\n        uint256 amountYouGet = yourPercentage * amountInTreasuryToDistribute / 1 ether;\r\n        results[i] = amountYouGet;\r\n    }\r\n    return results;\r\n  }\r\n\r\n  // To get all the tree IDs of one user\r\n  function getTreeIds(address _account) public constant returns(uint256[]) {\r\n    if(_account != address(0)) return ownerTreesIds[_account];\r\n    else return ownerTreesIds[msg.sender];\r\n  }\r\n\r\n  // To get all the trees on sale\r\n  function getTreesOnSale() public constant returns(uint256[]) {\r\n      return treesOnSale;\r\n  }\r\n\r\n  // To extract the ether in an emergency\r\n  function emergencyExtract() public onlyOwner {\r\n    owner.transfer(this.balance);\r\n  }\r\n}\r\n",
  "sourcePath": "C:\\Users\\merunas\\Desktop\\money-trees\\contracts\\Trees.sol",
  "compiler": {
    "name": "solc",
    "version": "0.4.18+commit.9cf6e910.Emscripten.clang"
  },
  "schemaVersion": "1.0.1",
  "updatedAt": "2018-01-28T17:07:05.383Z"
}