{
  "contractName": "Trees",
  "abi": [
    {
      "constant": true,
      "inputs": [
        {
          "name": "_account",
          "type": "address"
        }
      ],
      "name": "getTreeIds",
      "outputs": [
        {
          "name": "",
          "type": "uint256[]"
        }
      ],
      "payable": false,
      "stateMutability": "view",
      "type": "function"
    },
    {
      "constant": false,
      "inputs": [
        {
          "name": "_admin",
          "type": "address"
        }
      ],
      "name": "removeAdmin",
      "outputs": [],
      "payable": false,
      "stateMutability": "nonpayable",
      "type": "function"
    },
    {
      "constant": true,
      "inputs": [
        {
          "name": "treeId",
          "type": "uint256"
        }
      ],
      "name": "getWaterDates",
      "outputs": [
        {
          "name": "",
          "type": "uint256[]"
        }
      ],
      "payable": false,
      "stateMutability": "view",
      "type": "function"
    },
    {
      "constant": true,
      "inputs": [
        {
          "name": "",
          "type": "address"
        }
      ],
      "name": "isAdmin",
      "outputs": [
        {
          "name": "",
          "type": "bool"
        }
      ],
      "payable": false,
      "stateMutability": "view",
      "type": "function"
    },
    {
      "constant": false,
      "inputs": [
        {
          "name": "_treeNumber",
          "type": "uint256"
        },
        {
          "name": "_originalOwner",
          "type": "address"
        }
      ],
      "name": "buyTree",
      "outputs": [],
      "payable": true,
      "stateMutability": "payable",
      "type": "function"
    },
    {
      "constant": true,
      "inputs": [],
      "name": "defaultTreesPower",
      "outputs": [
        {
          "name": "",
          "type": "uint256"
        }
      ],
      "payable": false,
      "stateMutability": "view",
      "type": "function"
    },
    {
      "constant": false,
      "inputs": [],
      "name": "generateTree",
      "outputs": [],
      "payable": false,
      "stateMutability": "nonpayable",
      "type": "function"
    },
    {
      "constant": true,
      "inputs": [
        {
          "name": "",
          "type": "uint256"
        },
        {
          "name": "",
          "type": "uint256"
        }
      ],
      "name": "treeWater",
      "outputs": [
        {
          "name": "",
          "type": "bool"
        }
      ],
      "payable": false,
      "stateMutability": "view",
      "type": "function"
    },
    {
      "constant": true,
      "inputs": [],
      "name": "defaultSalePrice",
      "outputs": [
        {
          "name": "",
          "type": "uint256"
        }
      ],
      "payable": false,
      "stateMutability": "view",
      "type": "function"
    },
    {
      "constant": true,
      "inputs": [],
      "name": "defaultTreesOwner",
      "outputs": [
        {
          "name": "",
          "type": "address"
        }
      ],
      "payable": false,
      "stateMutability": "view",
      "type": "function"
    },
    {
      "constant": false,
      "inputs": [
        {
          "name": "_treeId",
          "type": "uint256"
        }
      ],
      "name": "pickReward",
      "outputs": [],
      "payable": false,
      "stateMutability": "nonpayable",
      "type": "function"
    },
    {
      "constant": false,
      "inputs": [],
      "name": "emergencyExtract",
      "outputs": [],
      "payable": false,
      "stateMutability": "nonpayable",
      "type": "function"
    },
    {
      "constant": true,
      "inputs": [
        {
          "name": "",
          "type": "address"
        },
        {
          "name": "",
          "type": "uint256"
        }
      ],
      "name": "ownerTreesIds",
      "outputs": [
        {
          "name": "",
          "type": "uint256"
        }
      ],
      "payable": false,
      "stateMutability": "view",
      "type": "function"
    },
    {
      "constant": false,
      "inputs": [
        {
          "name": "_admin",
          "type": "address"
        }
      ],
      "name": "addAdmin",
      "outputs": [],
      "payable": false,
      "stateMutability": "nonpayable",
      "type": "function"
    },
    {
      "constant": false,
      "inputs": [
        {
          "name": "_treeNumber",
          "type": "uint256"
        },
        {
          "name": "_salePrice",
          "type": "uint256"
        }
      ],
      "name": "putTreeOnSale",
      "outputs": [],
      "payable": false,
      "stateMutability": "nonpayable",
      "type": "function"
    },
    {
      "constant": true,
      "inputs": [
        {
          "name": "",
          "type": "uint256"
        }
      ],
      "name": "trees",
      "outputs": [
        {
          "name": "",
          "type": "uint256"
        }
      ],
      "payable": false,
      "stateMutability": "view",
      "type": "function"
    },
    {
      "constant": true,
      "inputs": [],
      "name": "getTreesOnSale",
      "outputs": [
        {
          "name": "",
          "type": "uint256[]"
        }
      ],
      "payable": false,
      "stateMutability": "view",
      "type": "function"
    },
    {
      "constant": true,
      "inputs": [],
      "name": "totalTreePower",
      "outputs": [
        {
          "name": "",
          "type": "uint256"
        }
      ],
      "payable": false,
      "stateMutability": "view",
      "type": "function"
    },
    {
      "constant": true,
      "inputs": [
        {
          "name": "_treeIds",
          "type": "uint256[]"
        }
      ],
      "name": "checkRewards",
      "outputs": [
        {
          "name": "",
          "type": "uint256[]"
        }
      ],
      "payable": false,
      "stateMutability": "view",
      "type": "function"
    },
    {
      "constant": true,
      "inputs": [],
      "name": "owner",
      "outputs": [
        {
          "name": "",
          "type": "address"
        }
      ],
      "payable": false,
      "stateMutability": "view",
      "type": "function"
    },
    {
      "constant": false,
      "inputs": [
        {
          "name": "_treeId",
          "type": "uint256"
        }
      ],
      "name": "waterTree",
      "outputs": [],
      "payable": false,
      "stateMutability": "nonpayable",
      "type": "function"
    },
    {
      "constant": false,
      "inputs": [
        {
          "name": "_treeId",
          "type": "uint256"
        }
      ],
      "name": "cancelTreeSell",
      "outputs": [],
      "payable": false,
      "stateMutability": "nonpayable",
      "type": "function"
    },
    {
      "constant": true,
      "inputs": [],
      "name": "lastTreeId",
      "outputs": [
        {
          "name": "",
          "type": "uint256"
        }
      ],
      "payable": false,
      "stateMutability": "view",
      "type": "function"
    },
    {
      "constant": true,
      "inputs": [
        {
          "name": "_treeIds",
          "type": "uint256[]"
        }
      ],
      "name": "checkTreesWatered",
      "outputs": [
        {
          "name": "",
          "type": "bool[]"
        }
      ],
      "payable": false,
      "stateMutability": "view",
      "type": "function"
    },
    {
      "constant": true,
      "inputs": [
        {
          "name": "",
          "type": "uint256"
        }
      ],
      "name": "treeDetails",
      "outputs": [
        {
          "name": "ID",
          "type": "uint256"
        },
        {
          "name": "owner",
          "type": "address"
        },
        {
          "name": "purchaseDate",
          "type": "uint256"
        },
        {
          "name": "treePower",
          "type": "uint256"
        },
        {
          "name": "salePrice",
          "type": "uint256"
        },
        {
          "name": "timesExchanged",
          "type": "uint256"
        },
        {
          "name": "onSale",
          "type": "bool"
        },
        {
          "name": "lastRewardPickedDate",
          "type": "uint256"
        }
      ],
      "payable": false,
      "stateMutability": "view",
      "type": "function"
    },
    {
      "constant": true,
      "inputs": [
        {
          "name": "",
          "type": "uint256"
        }
      ],
      "name": "treesOnSale",
      "outputs": [
        {
          "name": "",
          "type": "uint256"
        }
      ],
      "payable": false,
      "stateMutability": "view",
      "type": "function"
    },
    {
      "anonymous": false,
      "inputs": [
        {
          "indexed": true,
          "name": "treeId",
          "type": "uint256"
        },
        {
          "indexed": true,
          "name": "owner",
          "type": "address"
        },
        {
          "indexed": false,
          "name": "date",
          "type": "uint256"
        }
      ],
      "name": "LogWaterTree",
      "type": "event"
    },
    {
      "anonymous": false,
      "inputs": [
        {
          "indexed": true,
          "name": "treeId",
          "type": "uint256"
        },
        {
          "indexed": true,
          "name": "owner",
          "type": "address"
        },
        {
          "indexed": false,
          "name": "date",
          "type": "uint256"
        },
        {
          "indexed": false,
          "name": "amount",
          "type": "uint256"
        }
      ],
      "name": "LogRewardPicked",
      "type": "event"
    }
  ],
  "bytecode": "0x606060405233600860006101000a81548173ffffffffffffffffffffffffffffffffffffffff021916908373ffffffffffffffffffffffffffffffffffffffff1602179055506001600955670de0b6b3a7640000600a55336000806101000a81548173ffffffffffffffffffffffffffffffffffffffff021916908373ffffffffffffffffffffffffffffffffffffffff1602179055506100d36000809054906101000a900473ffffffffffffffffffffffffffffffffffffffff166100d864010000000002611532176401000000009004565b61018d565b6000809054906101000a900473ffffffffffffffffffffffffffffffffffffffff1673ffffffffffffffffffffffffffffffffffffffff163373ffffffffffffffffffffffffffffffffffffffff1614151561013357600080fd5b60018060008373ffffffffffffffffffffffffffffffffffffffff1673ffffffffffffffffffffffffffffffffffffffff16815260200190815260200160002060006101000a81548160ff02191690831515021790555050565b611f6c8061019c6000396000f300606060405260043610610154576000357c0100000000000000000000000000000000000000000000000000000000900463ffffffff1680630a425a33146101595780631785f53c146101e75780631c56a9711461022057806324d7806c146102985780632ab28ce4146102e9578063388a15261461032057806340f555a5146103495780634398fbd61461035e57806345ed68e8146103a257806353458f5e146103cb57806356196d87146104205780635fa512771461044357806363aa289b1461045857806370480275146104ae57806379f3b481146104e75780637a508022146105135780637f64727b1461054a5780637fdafafa146105b4578063859f63dc146105dd5780638da5cb5b1461068c578063998b723b146106e15780639b35108714610704578063b1ae988714610727578063c93ab4c314610750578063cb14a5cf146107ff578063e5c7bc6c14610897575b600080fd5b341561016457600080fd5b610190600480803573ffffffffffffffffffffffffffffffffffffffff169060200190919050506108ce565b6040518080602001828103825283818151815260200191508051906020019060200280838360005b838110156101d35780820151818401526020810190506101b8565b505050509050019250505060405180910390f35b34156101f257600080fd5b61021e600480803573ffffffffffffffffffffffffffffffffffffffff16906020019091905050610a37565b005b341561022b57600080fd5b6102416004808035906020019091905050610aed565b6040518080602001828103825283818151815260200191508051906020019060200280838360005b83811015610284578082015181840152602081019050610269565b505050509050019250505060405180910390f35b34156102a357600080fd5b6102cf600480803573ffffffffffffffffffffffffffffffffffffffff16906020019091905050610b61565b604051808215151515815260200191505060405180910390f35b61031e600480803590602001909190803573ffffffffffffffffffffffffffffffffffffffff16906020019091905050610b81565b005b341561032b57600080fd5b610333610f6c565b6040518082815260200191505060405180910390f35b341561035457600080fd5b61035c610f72565b005b341561036957600080fd5b6103886004808035906020019091908035906020019091905050611218565b604051808215151515815260200191505060405180910390f35b34156103ad57600080fd5b6103b5611247565b6040518082815260200191505060405180910390f35b34156103d657600080fd5b6103de61124d565b604051808273ffffffffffffffffffffffffffffffffffffffff1673ffffffffffffffffffffffffffffffffffffffff16815260200191505060405180910390f35b341561042b57600080fd5b6104416004808035906020019091905050611273565b005b341561044e57600080fd5b61045661142c565b005b341561046357600080fd5b610498600480803573ffffffffffffffffffffffffffffffffffffffff16906020019091908035906020019091905050611501565b6040518082815260200191505060405180910390f35b34156104b957600080fd5b6104e5600480803573ffffffffffffffffffffffffffffffffffffffff16906020019091905050611532565b005b34156104f257600080fd5b61051160048080359060200190919080359060200190919050506115e7565b005b341561051e57600080fd5b610534600480803590602001909190505061170d565b6040518082815260200191505060405180910390f35b341561055557600080fd5b61055d611731565b6040518080602001828103825283818151815260200191508051906020019060200280838360005b838110156105a0578082015181840152602081019050610585565b505050509050019250505060405180910390f35b34156105bf57600080fd5b6105c761178f565b6040518082815260200191505060405180910390f35b34156105e857600080fd5b610635600480803590602001908201803590602001908080602002602001604051908101604052809392919081815260200183836020028082843782019150505050505091905050611795565b6040518080602001828103825283818151815260200191508051906020019060200280838360005b8381101561067857808201518184015260208101905061065d565b505050509050019250505060405180910390f35b341561069757600080fd5b61069f611885565b604051808273ffffffffffffffffffffffffffffffffffffffff1673ffffffffffffffffffffffffffffffffffffffff16815260200191505060405180910390f35b34156106ec57600080fd5b61070260048080359060200190919050506118aa565b005b341561070f57600080fd5b6107256004808035906020019091905050611af9565b005b341561073257600080fd5b61073a611c31565b6040518082815260200191505060405180910390f35b341561075b57600080fd5b6107a8600480803590602001908201803590602001908080602002602001604051908101604052809392919081815260200183836020028082843782019150505050505091905050611c37565b6040518080602001828103825283818151815260200191508051906020019060200280838360005b838110156107eb5780820151818401526020810190506107d0565b505050509050019250505060405180910390f35b341561080a57600080fd5b6108206004808035906020019091905050611d62565b604051808981526020018873ffffffffffffffffffffffffffffffffffffffff1673ffffffffffffffffffffffffffffffffffffffff168152602001878152602001868152602001858152602001848152602001831515151581526020018281526020019850505050505050505060405180910390f35b34156108a257600080fd5b6108b86004808035906020019091905050611dd7565b6040518082815260200191505060405180910390f35b6108d6611dfb565b600073ffffffffffffffffffffffffffffffffffffffff168273ffffffffffffffffffffffffffffffffffffffff161415156109a157600360008373ffffffffffffffffffffffffffffffffffffffff1673ffffffffffffffffffffffffffffffffffffffff16815260200190815260200160002080548060200260200160405190810160405280929190818152602001828054801561099557602002820191906000526020600020905b815481526020019060010190808311610981575b50505050509050610a32565b600360003373ffffffffffffffffffffffffffffffffffffffff1673ffffffffffffffffffffffffffffffffffffffff168152602001908152602001600020805480602002602001604051908101604052809291908181526020018280548015610a2a57602002820191906000526020600020905b815481526020019060010190808311610a16575b505050505090505b919050565b6000809054906101000a900473ffffffffffffffffffffffffffffffffffffffff1673ffffffffffffffffffffffffffffffffffffffff163373ffffffffffffffffffffffffffffffffffffffff16141515610a9257600080fd5b6000600160008373ffffffffffffffffffffffffffffffffffffffff1673ffffffffffffffffffffffffffffffffffffffff16815260200190815260200160002060006101000a81548160ff02191690831515021790555050565b610af5611dfb565b60026000838152602001908152602001600020600601805480602002602001604051908101604052809291908181526020018280548015610b5557602002820191906000526020600020905b815481526020019060010190808311610b41575b50505050509050919050565b60016020528060005260406000206000915054906101000a900460ff1681565b60008060006002600086815260200190815260200160002060010160009054906101000a900473ffffffffffffffffffffffffffffffffffffffff1673ffffffffffffffffffffffffffffffffffffffff163373ffffffffffffffffffffffffffffffffffffffff1614151515610bf757600080fd5b6002600086815260200190815260200160002060070160009054906101000a900460ff161515610c2657600080fd5b60026000868152602001908152602001600020600401543410151515610c4b57600080fd5b339250600091505b600360008573ffffffffffffffffffffffffffffffffffffffff1673ffffffffffffffffffffffffffffffffffffffff16815260200190815260200160002080549050821015610d655784600360008673ffffffffffffffffffffffffffffffffffffffff1673ffffffffffffffffffffffffffffffffffffffff16815260200190815260200160002083815481101515610cea57fe5b9060005260206000209001541415610d5857600360008573ffffffffffffffffffffffffffffffffffffffff1673ffffffffffffffffffffffffffffffffffffffff16815260200190815260200160002082815481101515610d4857fe5b9060005260206000209001600090555b8180600101925050610c53565b600090505b600680549050811015610dc95784600682815481101515610d8757fe5b9060005260206000209001541415610dbc57600681815481101515610da857fe5b906000526020600020900160009055610dc9565b8080600101915050610d6a565b600360008473ffffffffffffffffffffffffffffffffffffffff1673ffffffffffffffffffffffffffffffffffffffff1681526020019081526020016000208054806001018281610e1a9190611e0f565b916000526020600020900160008790919091505550826002600087815260200190815260200160002060010160006101000a81548173ffffffffffffffffffffffffffffffffffffffff021916908373ffffffffffffffffffffffffffffffffffffffff16021790555060006002600087815260200190815260200160002060070160006101000a81548160ff021916908315150217905550600060026000878152602001908152602001600020600501541415610f40576000809054906101000a900473ffffffffffffffffffffffffffffffffffffffff1673ffffffffffffffffffffffffffffffffffffffff166108fc600234811515610f1957fe5b049081150290604051600060405180830381858888f193505050501515610f3f57600080fd5b5b600160026000878152602001908152602001600020600501600082825401925050819055505050505050565b60095481565b6000610f7c611dfb565b610f84611e3b565b600160003373ffffffffffffffffffffffffffffffffffffffff1673ffffffffffffffffffffffffffffffffffffffff16815260200190815260200160002060009054906101000a900460ff161515610fdc57600080fd5b6001600754019250600160076000828254019250508190555061012060405190810160405280848152602001600860009054906101000a900473ffffffffffffffffffffffffffffffffffffffff1673ffffffffffffffffffffffffffffffffffffffff1681526020014281526020016009548152602001600a5481526020016000815260200183815260200160011515815260200142815250905060036000600860009054906101000a900473ffffffffffffffffffffffffffffffffffffffff1673ffffffffffffffffffffffffffffffffffffffff1673ffffffffffffffffffffffffffffffffffffffff16815260200190815260200160002080548060010182816110eb9190611e0f565b91600052602060002090016000859091909150555080600260008581526020019081526020016000206000820151816000015560208201518160010160006101000a81548173ffffffffffffffffffffffffffffffffffffffff021916908373ffffffffffffffffffffffffffffffffffffffff16021790555060408201518160020155606082015181600301556080820151816004015560a0820151816005015560c08201518160060190805190602001906111a9929190611ea6565b5060e08201518160070160006101000a81548160ff0219169083151502179055506101008201518160080155905050600680548060010182816111ec9190611e0f565b916000526020600020900160008590919091505550600954600b60008282540192505081905550505050565b60046020528160005260406000206020528060005260406000206000915091509054906101000a900460ff1681565b600a5481565b600860009054906101000a900473ffffffffffffffffffffffffffffffffffffffff1681565b61127b611dfb565b611283611dfb565b6002600084815260200190815260200160002060010160009054906101000a900473ffffffffffffffffffffffffffffffffffffffff1673ffffffffffffffffffffffffffffffffffffffff163373ffffffffffffffffffffffffffffffffffffffff161415156112f357600080fd5b620151806002600085815260200190815260200160002060080154420311151561131c57600080fd5b8282600081518110151561132c57fe5b906020019060200201818152505061134382611795565b90504260026000858152602001908152602001600020600801819055503373ffffffffffffffffffffffffffffffffffffffff166108fc82600081518110151561138957fe5b906020019060200201519081150290604051600060405180830381858888f1935050505015156113b857600080fd5b3373ffffffffffffffffffffffffffffffffffffffff16837f12bb6df7d3f023952e2af1ef146450890b0f750d47ed0ac466a542b81646e06a4284600081518110151561140157fe5b90602001906020020151604051808381526020018281526020019250505060405180910390a3505050565b6000809054906101000a900473ffffffffffffffffffffffffffffffffffffffff1673ffffffffffffffffffffffffffffffffffffffff163373ffffffffffffffffffffffffffffffffffffffff1614151561148757600080fd5b6000809054906101000a900473ffffffffffffffffffffffffffffffffffffffff1673ffffffffffffffffffffffffffffffffffffffff166108fc3073ffffffffffffffffffffffffffffffffffffffff16319081150290604051600060405180830381858888f1935050505015156114ff57600080fd5b565b60036020528160005260406000208181548110151561151c57fe5b9060005260206000209001600091509150505481565b6000809054906101000a900473ffffffffffffffffffffffffffffffffffffffff1673ffffffffffffffffffffffffffffffffffffffff163373ffffffffffffffffffffffffffffffffffffffff1614151561158d57600080fd5b60018060008373ffffffffffffffffffffffffffffffffffffffff1673ffffffffffffffffffffffffffffffffffffffff16815260200190815260200160002060006101000a81548160ff02191690831515021790555050565b6002600083815260200190815260200160002060010160009054906101000a900473ffffffffffffffffffffffffffffffffffffffff1673ffffffffffffffffffffffffffffffffffffffff163373ffffffffffffffffffffffffffffffffffffffff1614151561165757600080fd5b6002600083815260200190815260200160002060070160009054906101000a900460ff1615151561168757600080fd5b60008111151561169657600080fd5b600680548060010182816116aa9190611e0f565b91600052602060002090016000849091909150555080600260008481526020019081526020016000206004018190555060016002600084815260200190815260200160002060070160006101000a81548160ff0219169083151502179055505050565b60058181548110151561171c57fe5b90600052602060002090016000915090505481565b611739611dfb565b600680548060200260200160405190810160405280929190818152602001828054801561178557602002820191906000526020600020905b815481526020019060010190808311611771575b5050505050905090565b600b5481565b61179d611dfb565b60006117a7611dfb565b6000806000600a3073ffffffffffffffffffffffffffffffffffffffff16318115156117cf57fe5b04945086516040518059106117e15750595b90808252806020026020018201604052509350600092505b865183101561187857600b5460026000898681518110151561181757fe5b9060200190602002015181526020019081526020016000206003015481151561183c57fe5b049150670de0b6b3a764000085830202905080848481518110151561185d57fe5b906020019060200201818152505082806001019350506117f9565b8395505050505050919050565b6000809054906101000a900473ffffffffffffffffffffffffffffffffffffffff1681565b6118b2611dfb565b6000806000841115156118c457600080fd5b6002600085815260200190815260200160002060010160009054906101000a900473ffffffffffffffffffffffffffffffffffffffff1673ffffffffffffffffffffffffffffffffffffffff163373ffffffffffffffffffffffffffffffffffffffff1614151561193457600080fd5b6002600085815260200190815260200160002060060180548060200260200160405190810160405280929190818152602001828054801561199457602002820191906000526020600020905b815481526020019060010190808311611980575b505050505092506000835111156119ca578260018451038151811015156119b757fe5b90602001906020020151420391506119d1565b6201518091505b6201518082101515156119e357600080fd5b62015180828115156119f157fe5b049050600160046000868152602001908152602001600020600083815260200190815260200160002060006101000a81548160ff021916908315150217905550600260008581526020019081526020016000206006018054806001018281611a599190611e0f565b916000526020600020900160004290919091505550600160026000868152602001908152602001600020600301600082825401925050819055506001600b600082825401925050819055503373ffffffffffffffffffffffffffffffffffffffff16847fbaaac593555e8c1b93639a9540811000f432755855c955a831f11fdaeb907852426040518082815260200191505060405180910390a350505050565b60006002600083815260200190815260200160002060010160009054906101000a900473ffffffffffffffffffffffffffffffffffffffff1673ffffffffffffffffffffffffffffffffffffffff163373ffffffffffffffffffffffffffffffffffffffff16141515611b6b57600080fd5b6002600083815260200190815260200160002060070160009054906101000a900460ff161515611b9a57600080fd5b600090505b600680549050811015611bfe5781600682815481101515611bbc57fe5b9060005260206000209001541415611bf157600681815481101515611bdd57fe5b906000526020600020900160009055611bfe565b8080600101915050611b9f565b60006002600084815260200190815260200160002060070160006101000a81548160ff0219169083151502179055505050565b60075481565b611c3f611ef3565b611c47611ef3565b6000611c51611dfb565b60008551604051805910611c625750595b90808252806020026020018201604052509350600092505b8551831015611d5657600260008785815181101515611c9557fe5b906020019060200201518152602001908152602001600020600601805480602002602001604051908101604052809291908181526020018280548015611cfa57602002820191906000526020600020905b815481526020019060010190808311611ce6575b50505050509150816001835103815181101515611d1357fe5b90602001906020020151420390506201518081118484815181101515611d3557fe5b90602001906020020190151590811515815250508280600101935050611c7a565b83945050505050919050565b60026020528060005260406000206000915090508060000154908060010160009054906101000a900473ffffffffffffffffffffffffffffffffffffffff16908060020154908060030154908060040154908060050154908060070160009054906101000a900460ff16908060080154905088565b600681815481101515611de657fe5b90600052602060002090016000915090505481565b602060405190810160405280600081525090565b815481835581811511611e3657818360005260206000209182019101611e359190611f07565b5b505050565b6101206040519081016040528060008152602001600073ffffffffffffffffffffffffffffffffffffffff16815260200160008152602001600081526020016000815260200160008152602001611e90611f2c565b8152602001600015158152602001600081525090565b828054828255906000526020600020908101928215611ee2579160200282015b82811115611ee1578251825591602001919060010190611ec6565b5b509050611eef9190611f07565b5090565b602060405190810160405280600081525090565b611f2991905b80821115611f25576000816000905550600101611f0d565b5090565b90565b6020604051908101604052806000815250905600a165627a7a723058201dbfa474d6a4fd760c0fadd3f10ed6a82958f70c473a47eb0e60c723cad5e7d70029",
  "source": "pragma solidity ^0.4.18;\r\n\r\ncontract Admin {\r\n  address public owner;\r\n  mapping(address => bool) public isAdmin;\r\n\r\n  modifier onlyOwner() {\r\n    require(msg.sender == owner);\r\n    _;\r\n  }\r\n\r\n  modifier onlyAdmin() {\r\n    require(isAdmin[msg.sender]);\r\n    _;\r\n  }\r\n\r\n  function Admin() public {\r\n    owner = msg.sender;\r\n    addAdmin(owner);\r\n  }\r\n\r\n  function addAdmin(address _admin) public onlyOwner {\r\n    isAdmin[_admin] = true;\r\n  }\r\n\r\n  function removeAdmin(address _admin) public onlyOwner {\r\n    isAdmin[_admin] = false;\r\n  }\r\n}\r\n\r\n// To add a tree do the following:\r\n// - Create a new Tree with the ID, owner, treeValue and power to generate fruits\r\n// - Update the treeBalances and treeOwner mappings\r\ncontract Trees is Admin {\r\n  event LogWaterTree(uint256 indexed treeId, address indexed owner, uint256 date);\r\n  event LogRewardPicked(uint256 indexed treeId, address indexed owner, uint256 date, uint256 amount);\r\n\r\n  // Get the tree information given the id\r\n  mapping(uint256 => Tree) public treeDetails;\r\n  // A mapping with all the tree IDs of that owner\r\n  mapping(address => uint256[]) public ownerTreesIds;\r\n  // Tree id and the days the tree has been watered\r\n  // Tree id => day number => isWatered\r\n  mapping(uint256 => mapping(uint256 => bool)) public treeWater;\r\n\r\n  struct Tree {\r\n    uint256 ID;\r\n    address owner;\r\n    uint256 purchaseDate;\r\n    uint256 treePower; // How much ether that tree is generating from 0 to 100 where 100 is the total power combined of all the trees\r\n    uint256 salePrice;\r\n    uint256 timesExchanged;\r\n    uint256[] waterTreeDates;\r\n    bool onSale;\r\n    uint256 lastRewardPickedDate; // When did you take the last reward\r\n  }\r\n\r\n  uint256[] public trees;\r\n  uint256[] public treesOnSale;\r\n  uint256 public lastTreeId;\r\n  address public defaultTreesOwner = msg.sender;\r\n  uint256 public defaultTreesPower = 1; // 10% of the total power\r\n  uint256 public defaultSalePrice = 1 ether;\r\n  uint256 public totalTreePower;\r\n\r\n  // This will be called automatically by the server\r\n  // The contract itself will hold the initial trees\r\n  function generateTree() public onlyAdmin {\r\n    uint256 newTreeId = lastTreeId + 1;\r\n    lastTreeId += 1;\r\n    uint256[] memory emptyArray;\r\n    Tree memory newTree = Tree(newTreeId, defaultTreesOwner, now, defaultTreesPower, defaultSalePrice, 0, emptyArray, true, now);\r\n\r\n    // Update the treeBalances and treeOwner mappings\r\n    // We add the tree to the same array position to find it easier\r\n    ownerTreesIds[defaultTreesOwner].push(newTreeId);\r\n    treeDetails[newTreeId] = newTree;\r\n    treesOnSale.push(newTreeId);\r\n    totalTreePower += defaultTreesPower;\r\n  }\r\n\r\n  // This is payable, the user will send the payment here\r\n  // We delete the tree from the owner first and we add that to the receiver\r\n  // When you sell you're actually putting the tree on the market, not losing it yet\r\n  function putTreeOnSale(uint256 _treeNumber, uint256 _salePrice) public {\r\n    require(msg.sender == treeDetails[_treeNumber].owner);\r\n    require(!treeDetails[_treeNumber].onSale);\r\n    require(_salePrice > 0);\r\n\r\n    treesOnSale.push(_treeNumber);\r\n    treeDetails[_treeNumber].salePrice = _salePrice;\r\n    treeDetails[_treeNumber].onSale = true;\r\n  }\r\n\r\n  function buyTree(uint256 _treeNumber, address _originalOwner) public payable {\r\n    require(msg.sender != treeDetails[_treeNumber].owner);\r\n    require(treeDetails[_treeNumber].onSale);\r\n    require(msg.value >= treeDetails[_treeNumber].salePrice);\r\n    address newOwner = msg.sender;\r\n    // Move id from old to new owner\r\n    // Find the tree of that user and delete it\r\n    for(uint256 i = 0; i < ownerTreesIds[_originalOwner].length; i++) {\r\n        if(ownerTreesIds[_originalOwner][i] == _treeNumber) delete ownerTreesIds[_originalOwner][i];\r\n    }\r\n    // Remove the tree from the array of trees on sale\r\n    for(uint256 a = 0; a < treesOnSale.length; a++) {\r\n        if(treesOnSale[a] == _treeNumber) {\r\n            delete treesOnSale[a];\r\n            break;\r\n        }\r\n    }\r\n    ownerTreesIds[newOwner].push(_treeNumber);\r\n    treeDetails[_treeNumber].owner = newOwner;\r\n    treeDetails[_treeNumber].onSale = false;\r\n    if(treeDetails[_treeNumber].timesExchanged == 0) {\r\n        // Reward the owner for the initial trees as a way of monetization. Keep half for the treasury\r\n        owner.transfer(msg.value / 2);\r\n    }\r\n    treeDetails[_treeNumber].timesExchanged += 1;\r\n  }\r\n\r\n  // To take a tree out of the market without selling it\r\n  function cancelTreeSell(uint256 _treeId) public {\r\n    require(msg.sender == treeDetails[_treeId].owner);\r\n    require(treeDetails[_treeId].onSale);\r\n    // Remove the tree from the array of trees on sale\r\n    for(uint256 a = 0; a < treesOnSale.length; a++) {\r\n        if(treesOnSale[a] == _treeId) {\r\n            delete treesOnSale[a];\r\n            break;\r\n        }\r\n    }\r\n    treeDetails[_treeId].onSale = false;\r\n  }\r\n\r\n  // Improves the treePower\r\n  function waterTree(uint256 _treeId) public {\r\n    require(_treeId > 0);\r\n    require(msg.sender == treeDetails[_treeId].owner);\r\n    uint256[] memory waterDates = treeDetails[_treeId].waterTreeDates;\r\n    uint256 timeSinceLastWater;\r\n    if(waterDates.length > 0) {\r\n        timeSinceLastWater = now - waterDates[waterDates.length - 1];\r\n    }else {\r\n        timeSinceLastWater = 1 days;\r\n    }\r\n    require(timeSinceLastWater >= 1 days);\r\n    // We want to store at what day the tree was watered\r\n    uint256 day = timeSinceLastWater / 1 days;\r\n    treeWater[_treeId][day] = true;\r\n    treeDetails[_treeId].waterTreeDates.push(now);\r\n    treeDetails[_treeId].treePower += 1;\r\n    totalTreePower += 1;\r\n    LogWaterTree(_treeId, msg.sender, now);\r\n  }\r\n\r\n  // To get the ether from the rewards\r\n  function pickReward(uint256 _treeId) public {\r\n    require(msg.sender == treeDetails[_treeId].owner);\r\n    require(now - treeDetails[_treeId].lastRewardPickedDate > 1 days);\r\n    uint256[] memory formatedId;\r\n    formatedId[0] = _treeId;\r\n    uint256[] memory reward = checkRewards(formatedId);\r\n    treeDetails[_treeId].lastRewardPickedDate = now;\r\n    msg.sender.transfer(reward[0]);\r\n    LogRewardPicked(_treeId, msg.sender, now, reward[0]);\r\n  }\r\n\r\n  // To see if a tree is already watered or not\r\n  function checkTreesWatered(uint256[] _treeIds) public constant returns(bool[]) {\r\n    bool[] memory results = new bool[](_treeIds.length);\r\n    for(uint256 i = 0; i < _treeIds.length; i++) {\r\n        uint256[] memory waterDates = treeDetails[_treeIds[i]].waterTreeDates;\r\n        uint256 lastWaterDate = now - waterDates[waterDates.length - 1];\r\n        results[i] = lastWaterDate > 1 days;\r\n    }\r\n    return results;\r\n  }\r\n\r\n    function getWaterDates(uint256 treeId) public constant returns(uint256[]) {\r\n        return treeDetails[treeId].waterTreeDates;\r\n    }\r\n\r\n  // Returns an array of how much ether all those trees have generated today\r\n  // All the tree power combiined for instance 10293\r\n  // The tree power for this tree for instance 298\r\n  // What percentage do you get: 2%\r\n  // Total money in the treasury: 102 ETH\r\n  // A 10% of the total is distributed daily across all the users\r\n  // For instance 10.2 ETH today\r\n  // So if you pick your rewards right now, you'll get a 2% of 10.2 ETH which is 0.204 ETH\r\n  function checkRewards(uint256[] _treeIds) public constant returns(uint256[]) {\r\n    uint256 amountInTreasuryToDistribute = this.balance / 10;\r\n    uint256[] memory results = new uint256[](_treeIds.length);\r\n    for(uint256 i = 0; i < _treeIds.length; i++) {\r\n        uint256 yourPercentage = treeDetails[_treeIds[i]].treePower / totalTreePower;\r\n        uint256 amountYouGet = yourPercentage * amountInTreasuryToDistribute * 1 ether;\r\n        results[i] = amountYouGet;\r\n    }\r\n    return results;\r\n  }\r\n\r\n  // To get all the tree IDs of one user\r\n  function getTreeIds(address _account) public constant returns(uint256[]) {\r\n    if(_account != address(0)) return ownerTreesIds[_account];\r\n    else return ownerTreesIds[msg.sender];\r\n  }\r\n\r\n  // To get all the trees on sale\r\n  function getTreesOnSale() public constant returns(uint256[]) {\r\n      return treesOnSale;\r\n  }\r\n\r\n  // To extract the ether in an emergency\r\n  function emergencyExtract() public onlyOwner {\r\n    owner.transfer(this.balance);\r\n  }\r\n}\r\n",
  "sourcePath": "C:\\Users\\merunas\\Desktop\\money-trees\\contracts\\Trees.sol",
  "compiler": {
    "name": "solc",
    "version": "0.4.18+commit.9cf6e910.Emscripten.clang"
  },
  "schemaVersion": "1.0.1",
  "updatedAt": "2018-01-27T10:35:11.095Z"
}