{
  "contractName": "Trees",
  "abi": [
    {
      "constant": true,
      "inputs": [
        {
          "name": "_account",
          "type": "address"
        }
      ],
      "name": "getTreeIds",
      "outputs": [
        {
          "name": "",
          "type": "uint256[]"
        }
      ],
      "payable": false,
      "stateMutability": "view",
      "type": "function"
    },
    {
      "constant": false,
      "inputs": [
        {
          "name": "_admin",
          "type": "address"
        }
      ],
      "name": "removeAdmin",
      "outputs": [],
      "payable": false,
      "stateMutability": "nonpayable",
      "type": "function"
    },
    {
      "constant": true,
      "inputs": [
        {
          "name": "",
          "type": "address"
        }
      ],
      "name": "isAdmin",
      "outputs": [
        {
          "name": "",
          "type": "bool"
        }
      ],
      "payable": false,
      "stateMutability": "view",
      "type": "function"
    },
    {
      "constant": false,
      "inputs": [
        {
          "name": "_treeNumber",
          "type": "uint256"
        },
        {
          "name": "_originalOwner",
          "type": "address"
        }
      ],
      "name": "buyTree",
      "outputs": [],
      "payable": true,
      "stateMutability": "payable",
      "type": "function"
    },
    {
      "constant": true,
      "inputs": [],
      "name": "defaultTreesPower",
      "outputs": [
        {
          "name": "",
          "type": "uint256"
        }
      ],
      "payable": false,
      "stateMutability": "view",
      "type": "function"
    },
    {
      "constant": false,
      "inputs": [],
      "name": "generateTree",
      "outputs": [],
      "payable": false,
      "stateMutability": "nonpayable",
      "type": "function"
    },
    {
      "constant": true,
      "inputs": [
        {
          "name": "",
          "type": "uint256"
        },
        {
          "name": "",
          "type": "uint256"
        }
      ],
      "name": "treeWater",
      "outputs": [
        {
          "name": "",
          "type": "bool"
        }
      ],
      "payable": false,
      "stateMutability": "view",
      "type": "function"
    },
    {
      "constant": true,
      "inputs": [],
      "name": "defaultSalePrice",
      "outputs": [
        {
          "name": "",
          "type": "uint256"
        }
      ],
      "payable": false,
      "stateMutability": "view",
      "type": "function"
    },
    {
      "constant": true,
      "inputs": [],
      "name": "defaultTreesOwner",
      "outputs": [
        {
          "name": "",
          "type": "address"
        }
      ],
      "payable": false,
      "stateMutability": "view",
      "type": "function"
    },
    {
      "constant": false,
      "inputs": [
        {
          "name": "_treeId",
          "type": "uint256"
        }
      ],
      "name": "pickReward",
      "outputs": [],
      "payable": false,
      "stateMutability": "nonpayable",
      "type": "function"
    },
    {
      "constant": false,
      "inputs": [],
      "name": "emergencyExtract",
      "outputs": [],
      "payable": false,
      "stateMutability": "nonpayable",
      "type": "function"
    },
    {
      "constant": true,
      "inputs": [
        {
          "name": "",
          "type": "address"
        },
        {
          "name": "",
          "type": "uint256"
        }
      ],
      "name": "ownerTreesIds",
      "outputs": [
        {
          "name": "",
          "type": "uint256"
        }
      ],
      "payable": false,
      "stateMutability": "view",
      "type": "function"
    },
    {
      "constant": false,
      "inputs": [
        {
          "name": "_admin",
          "type": "address"
        }
      ],
      "name": "addAdmin",
      "outputs": [],
      "payable": false,
      "stateMutability": "nonpayable",
      "type": "function"
    },
    {
      "constant": false,
      "inputs": [
        {
          "name": "_treeNumber",
          "type": "uint256"
        },
        {
          "name": "_salePrice",
          "type": "uint256"
        }
      ],
      "name": "putTreeOnSale",
      "outputs": [],
      "payable": false,
      "stateMutability": "nonpayable",
      "type": "function"
    },
    {
      "constant": true,
      "inputs": [
        {
          "name": "",
          "type": "uint256"
        }
      ],
      "name": "trees",
      "outputs": [
        {
          "name": "",
          "type": "uint256"
        }
      ],
      "payable": false,
      "stateMutability": "view",
      "type": "function"
    },
    {
      "constant": true,
      "inputs": [],
      "name": "getTreesOnSale",
      "outputs": [
        {
          "name": "",
          "type": "uint256[]"
        }
      ],
      "payable": false,
      "stateMutability": "view",
      "type": "function"
    },
    {
      "constant": true,
      "inputs": [],
      "name": "totalTreePower",
      "outputs": [
        {
          "name": "",
          "type": "uint256"
        }
      ],
      "payable": false,
      "stateMutability": "view",
      "type": "function"
    },
    {
      "constant": true,
      "inputs": [
        {
          "name": "_treeIds",
          "type": "uint256[]"
        }
      ],
      "name": "checkRewards",
      "outputs": [
        {
          "name": "",
          "type": "uint256[]"
        }
      ],
      "payable": false,
      "stateMutability": "view",
      "type": "function"
    },
    {
      "constant": true,
      "inputs": [],
      "name": "owner",
      "outputs": [
        {
          "name": "",
          "type": "address"
        }
      ],
      "payable": false,
      "stateMutability": "view",
      "type": "function"
    },
    {
      "constant": false,
      "inputs": [
        {
          "name": "_treeId",
          "type": "uint256"
        }
      ],
      "name": "waterTree",
      "outputs": [],
      "payable": false,
      "stateMutability": "nonpayable",
      "type": "function"
    },
    {
      "constant": false,
      "inputs": [
        {
          "name": "_treeId",
          "type": "uint256"
        }
      ],
      "name": "cancelTreeSell",
      "outputs": [],
      "payable": false,
      "stateMutability": "nonpayable",
      "type": "function"
    },
    {
      "constant": true,
      "inputs": [],
      "name": "lastTreeId",
      "outputs": [
        {
          "name": "",
          "type": "uint256"
        }
      ],
      "payable": false,
      "stateMutability": "view",
      "type": "function"
    },
    {
      "constant": true,
      "inputs": [
        {
          "name": "_treeIds",
          "type": "uint256[]"
        }
      ],
      "name": "checkTreesWatered",
      "outputs": [
        {
          "name": "",
          "type": "bool[]"
        }
      ],
      "payable": false,
      "stateMutability": "view",
      "type": "function"
    },
    {
      "constant": true,
      "inputs": [
        {
          "name": "",
          "type": "uint256"
        }
      ],
      "name": "treeDetails",
      "outputs": [
        {
          "name": "ID",
          "type": "uint256"
        },
        {
          "name": "owner",
          "type": "address"
        },
        {
          "name": "purchaseDate",
          "type": "uint256"
        },
        {
          "name": "treePower",
          "type": "uint256"
        },
        {
          "name": "salePrice",
          "type": "uint256"
        },
        {
          "name": "timesExchanged",
          "type": "uint256"
        },
        {
          "name": "onSale",
          "type": "bool"
        },
        {
          "name": "lastRewardPickedDate",
          "type": "uint256"
        }
      ],
      "payable": false,
      "stateMutability": "view",
      "type": "function"
    },
    {
      "constant": true,
      "inputs": [
        {
          "name": "",
          "type": "uint256"
        }
      ],
      "name": "treesOnSale",
      "outputs": [
        {
          "name": "",
          "type": "uint256"
        }
      ],
      "payable": false,
      "stateMutability": "view",
      "type": "function"
    },
    {
      "anonymous": false,
      "inputs": [
        {
          "indexed": true,
          "name": "treeId",
          "type": "uint256"
        },
        {
          "indexed": true,
          "name": "owner",
          "type": "address"
        },
        {
          "indexed": false,
          "name": "date",
          "type": "uint256"
        }
      ],
      "name": "LogWaterTree",
      "type": "event"
    },
    {
      "anonymous": false,
      "inputs": [
        {
          "indexed": true,
          "name": "treeId",
          "type": "uint256"
        },
        {
          "indexed": true,
          "name": "owner",
          "type": "address"
        },
        {
          "indexed": false,
          "name": "date",
          "type": "uint256"
        },
        {
          "indexed": false,
          "name": "amount",
          "type": "uint256"
        }
      ],
      "name": "LogRewardPicked",
      "type": "event"
    }
  ],
  "bytecode": "0x606060405233600860006101000a81548173ffffffffffffffffffffffffffffffffffffffff021916908373ffffffffffffffffffffffffffffffffffffffff1602179055506001600955670de0b6b3a7640000600a55336000806101000a81548173ffffffffffffffffffffffffffffffffffffffff021916908373ffffffffffffffffffffffffffffffffffffffff1602179055506100d36000809054906101000a900473ffffffffffffffffffffffffffffffffffffffff166100d86401000000000261143b176401000000009004565b61018d565b6000809054906101000a900473ffffffffffffffffffffffffffffffffffffffff1673ffffffffffffffffffffffffffffffffffffffff163373ffffffffffffffffffffffffffffffffffffffff1614151561013357600080fd5b60018060008373ffffffffffffffffffffffffffffffffffffffff1673ffffffffffffffffffffffffffffffffffffffff16815260200190815260200160002060006101000a81548160ff02191690831515021790555050565b611e5e8061019c6000396000f300606060405260043610610149576000357c0100000000000000000000000000000000000000000000000000000000900463ffffffff1680630a425a331461014e5780631785f53c146101dc57806324d7806c146102155780632ab28ce414610266578063388a15261461029d57806340f555a5146102c65780634398fbd6146102db57806345ed68e81461031f57806353458f5e1461034857806356196d871461039d5780635fa51277146103c057806363aa289b146103d5578063704802751461042b57806379f3b481146104645780637a508022146104905780637f64727b146104c75780637fdafafa14610531578063859f63dc1461055a5780638da5cb5b14610609578063998b723b1461065e5780639b35108714610681578063b1ae9887146106a4578063c93ab4c3146106cd578063cb14a5cf1461077c578063e5c7bc6c14610814575b600080fd5b341561015957600080fd5b610185600480803573ffffffffffffffffffffffffffffffffffffffff1690602001909190505061084b565b6040518080602001828103825283818151815260200191508051906020019060200280838360005b838110156101c85780820151818401526020810190506101ad565b505050509050019250505060405180910390f35b34156101e757600080fd5b610213600480803573ffffffffffffffffffffffffffffffffffffffff169060200190919050506109b4565b005b341561022057600080fd5b61024c600480803573ffffffffffffffffffffffffffffffffffffffff16906020019091905050610a6a565b604051808215151515815260200191505060405180910390f35b61029b600480803590602001909190803573ffffffffffffffffffffffffffffffffffffffff16906020019091905050610a8a565b005b34156102a857600080fd5b6102b0610e75565b6040518082815260200191505060405180910390f35b34156102d157600080fd5b6102d9610e7b565b005b34156102e657600080fd5b6103056004808035906020019091908035906020019091905050611121565b604051808215151515815260200191505060405180910390f35b341561032a57600080fd5b610332611150565b6040518082815260200191505060405180910390f35b341561035357600080fd5b61035b611156565b604051808273ffffffffffffffffffffffffffffffffffffffff1673ffffffffffffffffffffffffffffffffffffffff16815260200191505060405180910390f35b34156103a857600080fd5b6103be600480803590602001909190505061117c565b005b34156103cb57600080fd5b6103d3611335565b005b34156103e057600080fd5b610415600480803573ffffffffffffffffffffffffffffffffffffffff1690602001909190803590602001909190505061140a565b6040518082815260200191505060405180910390f35b341561043657600080fd5b610462600480803573ffffffffffffffffffffffffffffffffffffffff1690602001909190505061143b565b005b341561046f57600080fd5b61048e60048080359060200190919080359060200190919050506114f0565b005b341561049b57600080fd5b6104b16004808035906020019091905050611616565b6040518082815260200191505060405180910390f35b34156104d257600080fd5b6104da61163a565b6040518080602001828103825283818151815260200191508051906020019060200280838360005b8381101561051d578082015181840152602081019050610502565b505050509050019250505060405180910390f35b341561053c57600080fd5b610544611698565b6040518082815260200191505060405180910390f35b341561056557600080fd5b6105b260048080359060200190820180359060200190808060200260200160405190810160405280939291908181526020018383602002808284378201915050505050509190505061169e565b6040518080602001828103825283818151815260200191508051906020019060200280838360005b838110156105f55780820151818401526020810190506105da565b505050509050019250505060405180910390f35b341561061457600080fd5b61061c61178e565b604051808273ffffffffffffffffffffffffffffffffffffffff1673ffffffffffffffffffffffffffffffffffffffff16815260200191505060405180910390f35b341561066957600080fd5b61067f60048080359060200190919050506117b3565b005b341561068c57600080fd5b6106a260048080359060200190919050506119eb565b005b34156106af57600080fd5b6106b7611b23565b6040518082815260200191505060405180910390f35b34156106d857600080fd5b610725600480803590602001908201803590602001908080602002602001604051908101604052809392919081815260200183836020028082843782019150505050505091905050611b29565b6040518080602001828103825283818151815260200191508051906020019060200280838360005b8381101561076857808201518184015260208101905061074d565b505050509050019250505060405180910390f35b341561078757600080fd5b61079d6004808035906020019091905050611c54565b604051808981526020018873ffffffffffffffffffffffffffffffffffffffff1673ffffffffffffffffffffffffffffffffffffffff168152602001878152602001868152602001858152602001848152602001831515151581526020018281526020019850505050505050505060405180910390f35b341561081f57600080fd5b6108356004808035906020019091905050611cc9565b6040518082815260200191505060405180910390f35b610853611ced565b600073ffffffffffffffffffffffffffffffffffffffff168273ffffffffffffffffffffffffffffffffffffffff1614151561091e57600360008373ffffffffffffffffffffffffffffffffffffffff1673ffffffffffffffffffffffffffffffffffffffff16815260200190815260200160002080548060200260200160405190810160405280929190818152602001828054801561091257602002820191906000526020600020905b8154815260200190600101908083116108fe575b505050505090506109af565b600360003373ffffffffffffffffffffffffffffffffffffffff1673ffffffffffffffffffffffffffffffffffffffff1681526020019081526020016000208054806020026020016040519081016040528092919081815260200182805480156109a757602002820191906000526020600020905b815481526020019060010190808311610993575b505050505090505b919050565b6000809054906101000a900473ffffffffffffffffffffffffffffffffffffffff1673ffffffffffffffffffffffffffffffffffffffff163373ffffffffffffffffffffffffffffffffffffffff16141515610a0f57600080fd5b6000600160008373ffffffffffffffffffffffffffffffffffffffff1673ffffffffffffffffffffffffffffffffffffffff16815260200190815260200160002060006101000a81548160ff02191690831515021790555050565b60016020528060005260406000206000915054906101000a900460ff1681565b60008060006002600086815260200190815260200160002060010160009054906101000a900473ffffffffffffffffffffffffffffffffffffffff1673ffffffffffffffffffffffffffffffffffffffff163373ffffffffffffffffffffffffffffffffffffffff1614151515610b0057600080fd5b6002600086815260200190815260200160002060070160009054906101000a900460ff161515610b2f57600080fd5b60026000868152602001908152602001600020600401543410151515610b5457600080fd5b339250600091505b600360008573ffffffffffffffffffffffffffffffffffffffff1673ffffffffffffffffffffffffffffffffffffffff16815260200190815260200160002080549050821015610c6e5784600360008673ffffffffffffffffffffffffffffffffffffffff1673ffffffffffffffffffffffffffffffffffffffff16815260200190815260200160002083815481101515610bf357fe5b9060005260206000209001541415610c6157600360008573ffffffffffffffffffffffffffffffffffffffff1673ffffffffffffffffffffffffffffffffffffffff16815260200190815260200160002082815481101515610c5157fe5b9060005260206000209001600090555b8180600101925050610b5c565b600090505b600680549050811015610cd25784600682815481101515610c9057fe5b9060005260206000209001541415610cc557600681815481101515610cb157fe5b906000526020600020900160009055610cd2565b8080600101915050610c73565b600360008473ffffffffffffffffffffffffffffffffffffffff1673ffffffffffffffffffffffffffffffffffffffff1681526020019081526020016000208054806001018281610d239190611d01565b916000526020600020900160008790919091505550826002600087815260200190815260200160002060010160006101000a81548173ffffffffffffffffffffffffffffffffffffffff021916908373ffffffffffffffffffffffffffffffffffffffff16021790555060006002600087815260200190815260200160002060070160006101000a81548160ff021916908315150217905550600060026000878152602001908152602001600020600501541415610e49576000809054906101000a900473ffffffffffffffffffffffffffffffffffffffff1673ffffffffffffffffffffffffffffffffffffffff166108fc600234811515610e2257fe5b049081150290604051600060405180830381858888f193505050501515610e4857600080fd5b5b600160026000878152602001908152602001600020600501600082825401925050819055505050505050565b60095481565b6000610e85611ced565b610e8d611d2d565b600160003373ffffffffffffffffffffffffffffffffffffffff1673ffffffffffffffffffffffffffffffffffffffff16815260200190815260200160002060009054906101000a900460ff161515610ee557600080fd5b6001600754019250600160076000828254019250508190555061012060405190810160405280848152602001600860009054906101000a900473ffffffffffffffffffffffffffffffffffffffff1673ffffffffffffffffffffffffffffffffffffffff1681526020014281526020016009548152602001600a5481526020016000815260200183815260200160011515815260200142815250905060036000600860009054906101000a900473ffffffffffffffffffffffffffffffffffffffff1673ffffffffffffffffffffffffffffffffffffffff1673ffffffffffffffffffffffffffffffffffffffff1681526020019081526020016000208054806001018281610ff49190611d01565b91600052602060002090016000859091909150555080600260008581526020019081526020016000206000820151816000015560208201518160010160006101000a81548173ffffffffffffffffffffffffffffffffffffffff021916908373ffffffffffffffffffffffffffffffffffffffff16021790555060408201518160020155606082015181600301556080820151816004015560a0820151816005015560c08201518160060190805190602001906110b2929190611d98565b5060e08201518160070160006101000a81548160ff0219169083151502179055506101008201518160080155905050600680548060010182816110f59190611d01565b916000526020600020900160008590919091505550600954600b60008282540192505081905550505050565b60046020528160005260406000206020528060005260406000206000915091509054906101000a900460ff1681565b600a5481565b600860009054906101000a900473ffffffffffffffffffffffffffffffffffffffff1681565b611184611ced565b61118c611ced565b6002600084815260200190815260200160002060010160009054906101000a900473ffffffffffffffffffffffffffffffffffffffff1673ffffffffffffffffffffffffffffffffffffffff163373ffffffffffffffffffffffffffffffffffffffff161415156111fc57600080fd5b620151806002600085815260200190815260200160002060080154420311151561122557600080fd5b8282600081518110151561123557fe5b906020019060200201818152505061124c8261169e565b90504260026000858152602001908152602001600020600801819055503373ffffffffffffffffffffffffffffffffffffffff166108fc82600081518110151561129257fe5b906020019060200201519081150290604051600060405180830381858888f1935050505015156112c157600080fd5b3373ffffffffffffffffffffffffffffffffffffffff16837f12bb6df7d3f023952e2af1ef146450890b0f750d47ed0ac466a542b81646e06a4284600081518110151561130a57fe5b90602001906020020151604051808381526020018281526020019250505060405180910390a3505050565b6000809054906101000a900473ffffffffffffffffffffffffffffffffffffffff1673ffffffffffffffffffffffffffffffffffffffff163373ffffffffffffffffffffffffffffffffffffffff1614151561139057600080fd5b6000809054906101000a900473ffffffffffffffffffffffffffffffffffffffff1673ffffffffffffffffffffffffffffffffffffffff166108fc3073ffffffffffffffffffffffffffffffffffffffff16319081150290604051600060405180830381858888f19350505050151561140857600080fd5b565b60036020528160005260406000208181548110151561142557fe5b9060005260206000209001600091509150505481565b6000809054906101000a900473ffffffffffffffffffffffffffffffffffffffff1673ffffffffffffffffffffffffffffffffffffffff163373ffffffffffffffffffffffffffffffffffffffff1614151561149657600080fd5b60018060008373ffffffffffffffffffffffffffffffffffffffff1673ffffffffffffffffffffffffffffffffffffffff16815260200190815260200160002060006101000a81548160ff02191690831515021790555050565b6002600083815260200190815260200160002060010160009054906101000a900473ffffffffffffffffffffffffffffffffffffffff1673ffffffffffffffffffffffffffffffffffffffff163373ffffffffffffffffffffffffffffffffffffffff1614151561156057600080fd5b6002600083815260200190815260200160002060070160009054906101000a900460ff1615151561159057600080fd5b60008111151561159f57600080fd5b600680548060010182816115b39190611d01565b91600052602060002090016000849091909150555080600260008481526020019081526020016000206004018190555060016002600084815260200190815260200160002060070160006101000a81548160ff0219169083151502179055505050565b60058181548110151561162557fe5b90600052602060002090016000915090505481565b611642611ced565b600680548060200260200160405190810160405280929190818152602001828054801561168e57602002820191906000526020600020905b81548152602001906001019080831161167a575b5050505050905090565b600b5481565b6116a6611ced565b60006116b0611ced565b6000806000600a3073ffffffffffffffffffffffffffffffffffffffff16318115156116d857fe5b04945086516040518059106116ea5750595b90808252806020026020018201604052509350600092505b865183101561178157600b5460026000898681518110151561172057fe5b9060200190602002015181526020019081526020016000206003015481151561174557fe5b049150670de0b6b3a764000085830202905080848481518110151561176657fe5b90602001906020020181815250508280600101935050611702565b8395505050505050919050565b6000809054906101000a900473ffffffffffffffffffffffffffffffffffffffff1681565b6117bb611ced565b6000806000841115156117cd57600080fd5b6002600085815260200190815260200160002060010160009054906101000a900473ffffffffffffffffffffffffffffffffffffffff1673ffffffffffffffffffffffffffffffffffffffff163373ffffffffffffffffffffffffffffffffffffffff1614151561183d57600080fd5b6002600085815260200190815260200160002060060180548060200260200160405190810160405280929190818152602001828054801561189d57602002820191906000526020600020905b815481526020019060010190808311611889575b505050505092508260018451038151811015156118b657fe5b906020019060200201514203915062015180821115156118d557600080fd5b62015180828115156118e357fe5b049050600160046000868152602001908152602001600020600083815260200190815260200160002060006101000a81548160ff02191690831515021790555060026000858152602001908152602001600020600601805480600101828161194b9190611d01565b916000526020600020900160004290919091505550600160026000868152602001908152602001600020600301600082825401925050819055506001600b600082825401925050819055503373ffffffffffffffffffffffffffffffffffffffff16847fbaaac593555e8c1b93639a9540811000f432755855c955a831f11fdaeb907852426040518082815260200191505060405180910390a350505050565b60006002600083815260200190815260200160002060010160009054906101000a900473ffffffffffffffffffffffffffffffffffffffff1673ffffffffffffffffffffffffffffffffffffffff163373ffffffffffffffffffffffffffffffffffffffff16141515611a5d57600080fd5b6002600083815260200190815260200160002060070160009054906101000a900460ff161515611a8c57600080fd5b600090505b600680549050811015611af05781600682815481101515611aae57fe5b9060005260206000209001541415611ae357600681815481101515611acf57fe5b906000526020600020900160009055611af0565b8080600101915050611a91565b60006002600084815260200190815260200160002060070160006101000a81548160ff0219169083151502179055505050565b60075481565b611b31611de5565b611b39611de5565b6000611b43611ced565b60008551604051805910611b545750595b90808252806020026020018201604052509350600092505b8551831015611c4857600260008785815181101515611b8757fe5b906020019060200201518152602001908152602001600020600601805480602002602001604051908101604052809291908181526020018280548015611bec57602002820191906000526020600020905b815481526020019060010190808311611bd8575b50505050509150816001835103815181101515611c0557fe5b90602001906020020151420390506201518081118484815181101515611c2757fe5b90602001906020020190151590811515815250508280600101935050611b6c565b83945050505050919050565b60026020528060005260406000206000915090508060000154908060010160009054906101000a900473ffffffffffffffffffffffffffffffffffffffff16908060020154908060030154908060040154908060050154908060070160009054906101000a900460ff16908060080154905088565b600681815481101515611cd857fe5b90600052602060002090016000915090505481565b602060405190810160405280600081525090565b815481835581811511611d2857818360005260206000209182019101611d279190611df9565b5b505050565b6101206040519081016040528060008152602001600073ffffffffffffffffffffffffffffffffffffffff16815260200160008152602001600081526020016000815260200160008152602001611d82611e1e565b8152602001600015158152602001600081525090565b828054828255906000526020600020908101928215611dd4579160200282015b82811115611dd3578251825591602001919060010190611db8565b5b509050611de19190611df9565b5090565b602060405190810160405280600081525090565b611e1b91905b80821115611e17576000816000905550600101611dff565b5090565b90565b6020604051908101604052806000815250905600a165627a7a723058201c950633d70705a8a11c3c05e556404cc106cb19775ecbaa8ee969a5877dd0bf0029",
  "source": "pragma solidity ^0.4.18;\r\n\r\ncontract Admin {\r\n  address public owner;\r\n  mapping(address => bool) public isAdmin;\r\n\r\n  modifier onlyOwner() {\r\n    require(msg.sender == owner);\r\n    _;\r\n  }\r\n\r\n  modifier onlyAdmin() {\r\n    require(isAdmin[msg.sender]);\r\n    _;\r\n  }\r\n\r\n  function Admin() public {\r\n    owner = msg.sender;\r\n    addAdmin(owner);\r\n  }\r\n\r\n  function addAdmin(address _admin) public onlyOwner {\r\n    isAdmin[_admin] = true;\r\n  }\r\n\r\n  function removeAdmin(address _admin) public onlyOwner {\r\n    isAdmin[_admin] = false;\r\n  }\r\n}\r\n\r\n// To add a tree do the following:\r\n// - Create a new Tree with the ID, owner, treeValue and power to generate fruits\r\n// - Update the treeBalances and treeOwner mappings\r\ncontract Trees is Admin {\r\n  event LogWaterTree(uint256 indexed treeId, address indexed owner, uint256 date);\r\n  event LogRewardPicked(uint256 indexed treeId, address indexed owner, uint256 date, uint256 amount);\r\n\r\n  // Get the tree information given the id\r\n  mapping(uint256 => Tree) public treeDetails;\r\n  // A mapping with all the tree IDs of that owner\r\n  mapping(address => uint256[]) public ownerTreesIds;\r\n  // Tree id and the days the tree has been watered\r\n  // Tree id => day number => isWatered\r\n  mapping(uint256 => mapping(uint256 => bool)) public treeWater;\r\n\r\n  struct Tree {\r\n    uint256 ID;\r\n    address owner;\r\n    uint256 purchaseDate;\r\n    uint256 treePower; // How much ether that tree is generating from 0 to 100 where 100 is the total power combined of all the trees\r\n    uint256 salePrice;\r\n    uint256 timesExchanged;\r\n    uint256[] waterTreeDates;\r\n    bool onSale;\r\n    uint256 lastRewardPickedDate; // When did you take the last reward\r\n  }\r\n\r\n  uint256[] public trees;\r\n  uint256[] public treesOnSale;\r\n  uint256 public lastTreeId;\r\n  address public defaultTreesOwner = msg.sender;\r\n  uint256 public defaultTreesPower = 1; // 10% of the total power\r\n  uint256 public defaultSalePrice = 1 ether;\r\n  uint256 public totalTreePower;\r\n\r\n  // This will be called automatically by the server\r\n  // The contract itself will hold the initial trees\r\n  function generateTree() public onlyAdmin {\r\n    uint256 newTreeId = lastTreeId + 1;\r\n    lastTreeId += 1;\r\n    uint256[] memory emptyArray;\r\n    Tree memory newTree = Tree(newTreeId, defaultTreesOwner, now, defaultTreesPower, defaultSalePrice, 0, emptyArray, true, now);\r\n\r\n    // Update the treeBalances and treeOwner mappings\r\n    // We add the tree to the same array position to find it easier\r\n    ownerTreesIds[defaultTreesOwner].push(newTreeId);\r\n    treeDetails[newTreeId] = newTree;\r\n    treesOnSale.push(newTreeId);\r\n    totalTreePower += defaultTreesPower;\r\n  }\r\n\r\n  // This is payable, the user will send the payment here\r\n  // We delete the tree from the owner first and we add that to the receiver\r\n  // When you sell you're actually putting the tree on the market, not losing it yet\r\n  function putTreeOnSale(uint256 _treeNumber, uint256 _salePrice) public {\r\n    require(msg.sender == treeDetails[_treeNumber].owner);\r\n    require(!treeDetails[_treeNumber].onSale);\r\n    require(_salePrice > 0);\r\n\r\n    treesOnSale.push(_treeNumber);\r\n    treeDetails[_treeNumber].salePrice = _salePrice;\r\n    treeDetails[_treeNumber].onSale = true;\r\n  }\r\n\r\n  function buyTree(uint256 _treeNumber, address _originalOwner) public payable {\r\n    require(msg.sender != treeDetails[_treeNumber].owner);\r\n    require(treeDetails[_treeNumber].onSale);\r\n    require(msg.value >= treeDetails[_treeNumber].salePrice);\r\n    address newOwner = msg.sender;\r\n    // Move id from old to new owner\r\n    // Find the tree of that user and delete it\r\n    for(uint256 i = 0; i < ownerTreesIds[_originalOwner].length; i++) {\r\n        if(ownerTreesIds[_originalOwner][i] == _treeNumber) delete ownerTreesIds[_originalOwner][i];\r\n    }\r\n    // Remove the tree from the array of trees on sale\r\n    for(uint256 a = 0; a < treesOnSale.length; a++) {\r\n        if(treesOnSale[a] == _treeNumber) {\r\n            delete treesOnSale[a];\r\n            break;\r\n        }\r\n    }\r\n    ownerTreesIds[newOwner].push(_treeNumber);\r\n    treeDetails[_treeNumber].owner = newOwner;\r\n    treeDetails[_treeNumber].onSale = false;\r\n    if(treeDetails[_treeNumber].timesExchanged == 0) {\r\n        // Reward the owner for the initial trees as a way of monetization. Keep half for the treasury\r\n        owner.transfer(msg.value / 2);\r\n    }\r\n    treeDetails[_treeNumber].timesExchanged += 1;\r\n  }\r\n\r\n  // To take a tree out of the market without selling it\r\n  function cancelTreeSell(uint256 _treeId) public {\r\n    require(msg.sender == treeDetails[_treeId].owner);\r\n    require(treeDetails[_treeId].onSale);\r\n    // Remove the tree from the array of trees on sale\r\n    for(uint256 a = 0; a < treesOnSale.length; a++) {\r\n        if(treesOnSale[a] == _treeId) {\r\n            delete treesOnSale[a];\r\n            break;\r\n        }\r\n    }\r\n    treeDetails[_treeId].onSale = false;\r\n  }\r\n\r\n  // Improves the treePower\r\n  function waterTree(uint256 _treeId) public {\r\n    require(_treeId > 0);\r\n    require(msg.sender == treeDetails[_treeId].owner);\r\n    uint256[] memory waterDates = treeDetails[_treeId].waterTreeDates;\r\n    uint256 lastWaterDate = now - waterDates[waterDates.length - 1];\r\n    require(lastWaterDate > 1 days);\r\n    // We want to store at what day the tree was watered\r\n    uint256 day = lastWaterDate / 1 days;\r\n    treeWater[_treeId][day] = true;\r\n    treeDetails[_treeId].waterTreeDates.push(now);\r\n    treeDetails[_treeId].treePower += 1;\r\n    totalTreePower += 1;\r\n    LogWaterTree(_treeId, msg.sender, now);\r\n  }\r\n\r\n  // To get the ether from the rewards\r\n  function pickReward(uint256 _treeId) public {\r\n    require(msg.sender == treeDetails[_treeId].owner);\r\n    require(now - treeDetails[_treeId].lastRewardPickedDate > 1 days);\r\n    uint256[] memory formatedId;\r\n    formatedId[0] = _treeId;\r\n    uint256[] memory reward = checkRewards(formatedId);\r\n    treeDetails[_treeId].lastRewardPickedDate = now;\r\n    msg.sender.transfer(reward[0]);\r\n    LogRewardPicked(_treeId, msg.sender, now, reward[0]);\r\n  }\r\n\r\n  // To see if a tree is already watered or not\r\n  function checkTreesWatered(uint256[] _treeIds) public constant returns(bool[]) {\r\n    bool[] memory results = new bool[](_treeIds.length);\r\n    for(uint256 i = 0; i < _treeIds.length; i++) {\r\n        uint256[] memory waterDates = treeDetails[_treeIds[i]].waterTreeDates;\r\n        uint256 lastWaterDate = now - waterDates[waterDates.length - 1];\r\n        results[i] = lastWaterDate > 1 days;\r\n    }\r\n    return results;\r\n  }\r\n\r\n  // Returns an array of how much ether all those trees have generated today\r\n  // All the tree power combiined for instance 10293\r\n  // The tree power for this tree for instance 298\r\n  // What percentage do you get: 2%\r\n  // Total money in the treasury: 102 ETH\r\n  // A 10% of the total is distributed daily across all the users\r\n  // For instance 10.2 ETH today\r\n  // So if you pick your rewards right now, you'll get a 2% of 10.2 ETH which is 0.204 ETH\r\n  function checkRewards(uint256[] _treeIds) public constant returns(uint256[]) {\r\n    uint256 amountInTreasuryToDistribute = this.balance / 10;\r\n    uint256[] memory results = new uint256[](_treeIds.length);\r\n    for(uint256 i = 0; i < _treeIds.length; i++) {\r\n        uint256 yourPercentage = treeDetails[_treeIds[i]].treePower / totalTreePower;\r\n        uint256 amountYouGet = yourPercentage * amountInTreasuryToDistribute * 1 ether;\r\n        results[i] = amountYouGet;\r\n    }\r\n    return results;\r\n  }\r\n\r\n  // To get all the tree IDs of one user\r\n  function getTreeIds(address _account) public constant returns(uint256[]) {\r\n    if(_account != address(0)) return ownerTreesIds[_account];\r\n    else return ownerTreesIds[msg.sender];\r\n  }\r\n\r\n  // To get all the trees on sale\r\n  function getTreesOnSale() public constant returns(uint256[]) {\r\n      return treesOnSale;\r\n  }\r\n\r\n  // To extract the ether in an emergency\r\n  function emergencyExtract() public onlyOwner {\r\n    owner.transfer(this.balance);\r\n  }\r\n}\r\n",
  "sourcePath": "C:\\Users\\merunas\\Desktop\\money-trees\\contracts\\Trees.sol",
  "compiler": {
    "name": "solc",
    "version": "0.4.18+commit.9cf6e910.Emscripten.clang"
  },
  "schemaVersion": "1.0.1",
  "updatedAt": "2018-01-27T10:02:05.986Z"
}