{
  "contractName": "Trees",
  "abi": [
    {
      "constant": true,
      "inputs": [
        {
          "name": "_account",
          "type": "address"
        }
      ],
      "name": "getTreeIds",
      "outputs": [
        {
          "name": "",
          "type": "uint256[]"
        }
      ],
      "payable": false,
      "stateMutability": "view",
      "type": "function"
    },
    {
      "constant": false,
      "inputs": [
        {
          "name": "_admin",
          "type": "address"
        }
      ],
      "name": "removeAdmin",
      "outputs": [],
      "payable": false,
      "stateMutability": "nonpayable",
      "type": "function"
    },
    {
      "constant": true,
      "inputs": [
        {
          "name": "",
          "type": "address"
        }
      ],
      "name": "isAdmin",
      "outputs": [
        {
          "name": "",
          "type": "bool"
        }
      ],
      "payable": false,
      "stateMutability": "view",
      "type": "function"
    },
    {
      "constant": false,
      "inputs": [
        {
          "name": "_treeNumber",
          "type": "uint256"
        },
        {
          "name": "_originalOwner",
          "type": "address"
        }
      ],
      "name": "buyTree",
      "outputs": [],
      "payable": true,
      "stateMutability": "payable",
      "type": "function"
    },
    {
      "constant": true,
      "inputs": [],
      "name": "defaultTreesPower",
      "outputs": [
        {
          "name": "",
          "type": "uint256"
        }
      ],
      "payable": false,
      "stateMutability": "view",
      "type": "function"
    },
    {
      "constant": true,
      "inputs": [
        {
          "name": "",
          "type": "uint256"
        },
        {
          "name": "",
          "type": "uint256"
        }
      ],
      "name": "treeWater",
      "outputs": [
        {
          "name": "",
          "type": "bool"
        }
      ],
      "payable": false,
      "stateMutability": "view",
      "type": "function"
    },
    {
      "constant": true,
      "inputs": [],
      "name": "defaultSalePrice",
      "outputs": [
        {
          "name": "",
          "type": "uint256"
        }
      ],
      "payable": false,
      "stateMutability": "view",
      "type": "function"
    },
    {
      "constant": true,
      "inputs": [],
      "name": "defaultTreesOwner",
      "outputs": [
        {
          "name": "",
          "type": "address"
        }
      ],
      "payable": false,
      "stateMutability": "view",
      "type": "function"
    },
    {
      "constant": false,
      "inputs": [
        {
          "name": "_treeId",
          "type": "uint256"
        }
      ],
      "name": "pickReward",
      "outputs": [],
      "payable": false,
      "stateMutability": "nonpayable",
      "type": "function"
    },
    {
      "constant": false,
      "inputs": [],
      "name": "emergencyExtract",
      "outputs": [],
      "payable": false,
      "stateMutability": "nonpayable",
      "type": "function"
    },
    {
      "constant": true,
      "inputs": [
        {
          "name": "",
          "type": "address"
        },
        {
          "name": "",
          "type": "uint256"
        }
      ],
      "name": "ownerTreesIds",
      "outputs": [
        {
          "name": "",
          "type": "uint256"
        }
      ],
      "payable": false,
      "stateMutability": "view",
      "type": "function"
    },
    {
      "constant": false,
      "inputs": [
        {
          "name": "_admin",
          "type": "address"
        }
      ],
      "name": "addAdmin",
      "outputs": [],
      "payable": false,
      "stateMutability": "nonpayable",
      "type": "function"
    },
    {
      "constant": false,
      "inputs": [
        {
          "name": "_treeNumber",
          "type": "uint256"
        },
        {
          "name": "_salePrice",
          "type": "uint256"
        }
      ],
      "name": "putTreeOnSale",
      "outputs": [],
      "payable": false,
      "stateMutability": "nonpayable",
      "type": "function"
    },
    {
      "constant": true,
      "inputs": [
        {
          "name": "",
          "type": "uint256"
        }
      ],
      "name": "trees",
      "outputs": [
        {
          "name": "",
          "type": "uint256"
        }
      ],
      "payable": false,
      "stateMutability": "view",
      "type": "function"
    },
    {
      "constant": true,
      "inputs": [],
      "name": "getTreesOnSale",
      "outputs": [
        {
          "name": "",
          "type": "uint256[]"
        }
      ],
      "payable": false,
      "stateMutability": "view",
      "type": "function"
    },
    {
      "constant": true,
      "inputs": [],
      "name": "totalTreePower",
      "outputs": [
        {
          "name": "",
          "type": "uint256"
        }
      ],
      "payable": false,
      "stateMutability": "view",
      "type": "function"
    },
    {
      "constant": true,
      "inputs": [
        {
          "name": "_treeIds",
          "type": "uint256[]"
        }
      ],
      "name": "checkRewards",
      "outputs": [
        {
          "name": "",
          "type": "uint256[]"
        }
      ],
      "payable": false,
      "stateMutability": "view",
      "type": "function"
    },
    {
      "constant": true,
      "inputs": [],
      "name": "owner",
      "outputs": [
        {
          "name": "",
          "type": "address"
        }
      ],
      "payable": false,
      "stateMutability": "view",
      "type": "function"
    },
    {
      "constant": false,
      "inputs": [
        {
          "name": "_treeId",
          "type": "uint256"
        }
      ],
      "name": "waterTree",
      "outputs": [],
      "payable": false,
      "stateMutability": "nonpayable",
      "type": "function"
    },
    {
      "constant": false,
      "inputs": [
        {
          "name": "_treeId",
          "type": "uint256"
        }
      ],
      "name": "cancelTreeSell",
      "outputs": [],
      "payable": false,
      "stateMutability": "nonpayable",
      "type": "function"
    },
    {
      "constant": true,
      "inputs": [],
      "name": "lastTreeId",
      "outputs": [
        {
          "name": "",
          "type": "uint256"
        }
      ],
      "payable": false,
      "stateMutability": "view",
      "type": "function"
    },
    {
      "constant": false,
      "inputs": [
        {
          "name": "_amountToGenerate",
          "type": "uint256"
        }
      ],
      "name": "generateTrees",
      "outputs": [],
      "payable": false,
      "stateMutability": "nonpayable",
      "type": "function"
    },
    {
      "constant": true,
      "inputs": [
        {
          "name": "_treeIds",
          "type": "uint256[]"
        }
      ],
      "name": "checkTreesWatered",
      "outputs": [
        {
          "name": "",
          "type": "bool[]"
        }
      ],
      "payable": false,
      "stateMutability": "view",
      "type": "function"
    },
    {
      "constant": true,
      "inputs": [
        {
          "name": "",
          "type": "uint256"
        }
      ],
      "name": "treeDetails",
      "outputs": [
        {
          "name": "ID",
          "type": "uint256"
        },
        {
          "name": "owner",
          "type": "address"
        },
        {
          "name": "purchaseDate",
          "type": "uint256"
        },
        {
          "name": "treePower",
          "type": "uint256"
        },
        {
          "name": "salePrice",
          "type": "uint256"
        },
        {
          "name": "timesExchanged",
          "type": "uint256"
        },
        {
          "name": "onSale",
          "type": "bool"
        },
        {
          "name": "lastRewardPickedDate",
          "type": "uint256"
        }
      ],
      "payable": false,
      "stateMutability": "view",
      "type": "function"
    },
    {
      "constant": true,
      "inputs": [
        {
          "name": "",
          "type": "uint256"
        }
      ],
      "name": "treesOnSale",
      "outputs": [
        {
          "name": "",
          "type": "uint256"
        }
      ],
      "payable": false,
      "stateMutability": "view",
      "type": "function"
    },
    {
      "anonymous": false,
      "inputs": [
        {
          "indexed": true,
          "name": "treeId",
          "type": "uint256"
        },
        {
          "indexed": true,
          "name": "owner",
          "type": "address"
        },
        {
          "indexed": false,
          "name": "date",
          "type": "uint256"
        }
      ],
      "name": "LogWaterTree",
      "type": "event"
    },
    {
      "anonymous": false,
      "inputs": [
        {
          "indexed": true,
          "name": "treeId",
          "type": "uint256"
        },
        {
          "indexed": true,
          "name": "owner",
          "type": "address"
        },
        {
          "indexed": false,
          "name": "date",
          "type": "uint256"
        },
        {
          "indexed": false,
          "name": "amount",
          "type": "uint256"
        }
      ],
      "name": "LogRewardPicked",
      "type": "event"
    }
  ],
  "bytecode": "0x606060405233600860006101000a81548173ffffffffffffffffffffffffffffffffffffffff021916908373ffffffffffffffffffffffffffffffffffffffff1602179055506001600955670de0b6b3a7640000600a55336000806101000a81548173ffffffffffffffffffffffffffffffffffffffff021916908373ffffffffffffffffffffffffffffffffffffffff1602179055506100d36000809054906101000a900473ffffffffffffffffffffffffffffffffffffffff166100d8640100000000026111a3176401000000009004565b61018d565b6000809054906101000a900473ffffffffffffffffffffffffffffffffffffffff1673ffffffffffffffffffffffffffffffffffffffff163373ffffffffffffffffffffffffffffffffffffffff1614151561013357600080fd5b60018060008373ffffffffffffffffffffffffffffffffffffffff1673ffffffffffffffffffffffffffffffffffffffff16815260200190815260200160002060006101000a81548160ff02191690831515021790555050565b611ef28061019c6000396000f300606060405260043610610149576000357c0100000000000000000000000000000000000000000000000000000000900463ffffffff1680630a425a331461014e5780631785f53c146101dc57806324d7806c146102155780632ab28ce414610266578063388a15261461029d5780634398fbd6146102c657806345ed68e81461030a57806353458f5e1461033357806356196d87146103885780635fa51277146103ab57806363aa289b146103c0578063704802751461041657806379f3b4811461044f5780637a5080221461047b5780637f64727b146104b25780637fdafafa1461051c578063859f63dc146105455780638da5cb5b146105f4578063998b723b146106495780639b3510871461066c578063b1ae98871461068f578063c4ad32be146106b8578063c93ab4c3146106db578063cb14a5cf1461078a578063e5c7bc6c14610822575b600080fd5b341561015957600080fd5b610185600480803573ffffffffffffffffffffffffffffffffffffffff16906020019091905050610859565b6040518080602001828103825283818151815260200191508051906020019060200280838360005b838110156101c85780820151818401526020810190506101ad565b505050509050019250505060405180910390f35b34156101e757600080fd5b610213600480803573ffffffffffffffffffffffffffffffffffffffff169060200190919050506109c2565b005b341561022057600080fd5b61024c600480803573ffffffffffffffffffffffffffffffffffffffff16906020019091905050610a78565b604051808215151515815260200191505060405180910390f35b61029b600480803590602001909190803573ffffffffffffffffffffffffffffffffffffffff16906020019091905050610a98565b005b34156102a857600080fd5b6102b0610e83565b6040518082815260200191505060405180910390f35b34156102d157600080fd5b6102f06004808035906020019091908035906020019091905050610e89565b604051808215151515815260200191505060405180910390f35b341561031557600080fd5b61031d610eb8565b6040518082815260200191505060405180910390f35b341561033e57600080fd5b610346610ebe565b604051808273ffffffffffffffffffffffffffffffffffffffff1673ffffffffffffffffffffffffffffffffffffffff16815260200191505060405180910390f35b341561039357600080fd5b6103a96004808035906020019091905050610ee4565b005b34156103b657600080fd5b6103be61109d565b005b34156103cb57600080fd5b610400600480803573ffffffffffffffffffffffffffffffffffffffff16906020019091908035906020019091905050611172565b6040518082815260200191505060405180910390f35b341561042157600080fd5b61044d600480803573ffffffffffffffffffffffffffffffffffffffff169060200190919050506111a3565b005b341561045a57600080fd5b6104796004808035906020019091908035906020019091905050611258565b005b341561048657600080fd5b61049c600480803590602001909190505061137e565b6040518082815260200191505060405180910390f35b34156104bd57600080fd5b6104c56113a2565b6040518080602001828103825283818151815260200191508051906020019060200280838360005b838110156105085780820151818401526020810190506104ed565b505050509050019250505060405180910390f35b341561052757600080fd5b61052f611400565b6040518082815260200191505060405180910390f35b341561055057600080fd5b61059d600480803590602001908201803590602001908080602002602001604051908101604052809392919081815260200183836020028082843782019150505050505091905050611406565b6040518080602001828103825283818151815260200191508051906020019060200280838360005b838110156105e05780820151818401526020810190506105c5565b505050509050019250505060405180910390f35b34156105ff57600080fd5b6106076114f6565b604051808273ffffffffffffffffffffffffffffffffffffffff1673ffffffffffffffffffffffffffffffffffffffff16815260200191505060405180910390f35b341561065457600080fd5b61066a600480803590602001909190505061151b565b005b341561067757600080fd5b61068d6004808035906020019091905050611789565b005b341561069a57600080fd5b6106a26118c1565b6040518082815260200191505060405180910390f35b34156106c357600080fd5b6106d960048080359060200190919050506118c7565b005b34156106e657600080fd5b610733600480803590602001908201803590602001908080602002602001604051908101604052809392919081815260200183836020028082843782019150505050505091905050611b8a565b6040518080602001828103825283818151815260200191508051906020019060200280838360005b8381101561077657808201518184015260208101905061075b565b505050509050019250505060405180910390f35b341561079557600080fd5b6107ab6004808035906020019091905050611ce8565b604051808981526020018873ffffffffffffffffffffffffffffffffffffffff1673ffffffffffffffffffffffffffffffffffffffff168152602001878152602001868152602001858152602001848152602001831515151581526020018281526020019850505050505050505060405180910390f35b341561082d57600080fd5b6108436004808035906020019091905050611d5d565b6040518082815260200191505060405180910390f35b610861611d81565b600073ffffffffffffffffffffffffffffffffffffffff168273ffffffffffffffffffffffffffffffffffffffff1614151561092c57600360008373ffffffffffffffffffffffffffffffffffffffff1673ffffffffffffffffffffffffffffffffffffffff16815260200190815260200160002080548060200260200160405190810160405280929190818152602001828054801561092057602002820191906000526020600020905b81548152602001906001019080831161090c575b505050505090506109bd565b600360003373ffffffffffffffffffffffffffffffffffffffff1673ffffffffffffffffffffffffffffffffffffffff1681526020019081526020016000208054806020026020016040519081016040528092919081815260200182805480156109b557602002820191906000526020600020905b8154815260200190600101908083116109a1575b505050505090505b919050565b6000809054906101000a900473ffffffffffffffffffffffffffffffffffffffff1673ffffffffffffffffffffffffffffffffffffffff163373ffffffffffffffffffffffffffffffffffffffff16141515610a1d57600080fd5b6000600160008373ffffffffffffffffffffffffffffffffffffffff1673ffffffffffffffffffffffffffffffffffffffff16815260200190815260200160002060006101000a81548160ff02191690831515021790555050565b60016020528060005260406000206000915054906101000a900460ff1681565b60008060006002600086815260200190815260200160002060010160009054906101000a900473ffffffffffffffffffffffffffffffffffffffff1673ffffffffffffffffffffffffffffffffffffffff163373ffffffffffffffffffffffffffffffffffffffff1614151515610b0e57600080fd5b6002600086815260200190815260200160002060070160009054906101000a900460ff161515610b3d57600080fd5b60026000868152602001908152602001600020600401543410151515610b6257600080fd5b339250600091505b600360008573ffffffffffffffffffffffffffffffffffffffff1673ffffffffffffffffffffffffffffffffffffffff16815260200190815260200160002080549050821015610c7c5784600360008673ffffffffffffffffffffffffffffffffffffffff1673ffffffffffffffffffffffffffffffffffffffff16815260200190815260200160002083815481101515610c0157fe5b9060005260206000209001541415610c6f57600360008573ffffffffffffffffffffffffffffffffffffffff1673ffffffffffffffffffffffffffffffffffffffff16815260200190815260200160002082815481101515610c5f57fe5b9060005260206000209001600090555b8180600101925050610b6a565b600090505b600680549050811015610ce05784600682815481101515610c9e57fe5b9060005260206000209001541415610cd357600681815481101515610cbf57fe5b906000526020600020900160009055610ce0565b8080600101915050610c81565b600360008473ffffffffffffffffffffffffffffffffffffffff1673ffffffffffffffffffffffffffffffffffffffff1681526020019081526020016000208054806001018281610d319190611d95565b916000526020600020900160008790919091505550826002600087815260200190815260200160002060010160006101000a81548173ffffffffffffffffffffffffffffffffffffffff021916908373ffffffffffffffffffffffffffffffffffffffff16021790555060006002600087815260200190815260200160002060070160006101000a81548160ff021916908315150217905550600060026000878152602001908152602001600020600501541415610e57576000809054906101000a900473ffffffffffffffffffffffffffffffffffffffff1673ffffffffffffffffffffffffffffffffffffffff166108fc600234811515610e3057fe5b049081150290604051600060405180830381858888f193505050501515610e5657600080fd5b5b600160026000878152602001908152602001600020600501600082825401925050819055505050505050565b60095481565b60046020528160005260406000206020528060005260406000206000915091509054906101000a900460ff1681565b600a5481565b600860009054906101000a900473ffffffffffffffffffffffffffffffffffffffff1681565b610eec611d81565b610ef4611d81565b6002600084815260200190815260200160002060010160009054906101000a900473ffffffffffffffffffffffffffffffffffffffff1673ffffffffffffffffffffffffffffffffffffffff163373ffffffffffffffffffffffffffffffffffffffff16141515610f6457600080fd5b6201518060026000858152602001908152602001600020600801544203111515610f8d57600080fd5b82826000815181101515610f9d57fe5b9060200190602002018181525050610fb482611406565b90504260026000858152602001908152602001600020600801819055503373ffffffffffffffffffffffffffffffffffffffff166108fc826000815181101515610ffa57fe5b906020019060200201519081150290604051600060405180830381858888f19350505050151561102957600080fd5b3373ffffffffffffffffffffffffffffffffffffffff16837f12bb6df7d3f023952e2af1ef146450890b0f750d47ed0ac466a542b81646e06a4284600081518110151561107257fe5b90602001906020020151604051808381526020018281526020019250505060405180910390a3505050565b6000809054906101000a900473ffffffffffffffffffffffffffffffffffffffff1673ffffffffffffffffffffffffffffffffffffffff163373ffffffffffffffffffffffffffffffffffffffff161415156110f857600080fd5b6000809054906101000a900473ffffffffffffffffffffffffffffffffffffffff1673ffffffffffffffffffffffffffffffffffffffff166108fc3073ffffffffffffffffffffffffffffffffffffffff16319081150290604051600060405180830381858888f19350505050151561117057600080fd5b565b60036020528160005260406000208181548110151561118d57fe5b9060005260206000209001600091509150505481565b6000809054906101000a900473ffffffffffffffffffffffffffffffffffffffff1673ffffffffffffffffffffffffffffffffffffffff163373ffffffffffffffffffffffffffffffffffffffff161415156111fe57600080fd5b60018060008373ffffffffffffffffffffffffffffffffffffffff1673ffffffffffffffffffffffffffffffffffffffff16815260200190815260200160002060006101000a81548160ff02191690831515021790555050565b6002600083815260200190815260200160002060010160009054906101000a900473ffffffffffffffffffffffffffffffffffffffff1673ffffffffffffffffffffffffffffffffffffffff163373ffffffffffffffffffffffffffffffffffffffff161415156112c857600080fd5b6002600083815260200190815260200160002060070160009054906101000a900460ff161515156112f857600080fd5b60008111151561130757600080fd5b6006805480600101828161131b9190611d95565b91600052602060002090016000849091909150555080600260008481526020019081526020016000206004018190555060016002600084815260200190815260200160002060070160006101000a81548160ff0219169083151502179055505050565b60058181548110151561138d57fe5b90600052602060002090016000915090505481565b6113aa611d81565b60068054806020026020016040519081016040528092919081815260200182805480156113f657602002820191906000526020600020905b8154815260200190600101908083116113e2575b5050505050905090565b600b5481565b61140e611d81565b6000611418611d81565b6000806000600a3073ffffffffffffffffffffffffffffffffffffffff163181151561144057fe5b04945086516040518059106114525750595b90808252806020026020018201604052509350600092505b86518310156114e957600b5460026000898681518110151561148857fe5b906020019060200201518152602001908152602001600020600301548115156114ad57fe5b049150670de0b6b3a76400008583020290508084848151811015156114ce57fe5b9060200190602002018181525050828060010193505061146a565b8395505050505050919050565b6000809054906101000a900473ffffffffffffffffffffffffffffffffffffffff1681565b611523611d81565b60008060008411151561153557600080fd5b6002600085815260200190815260200160002060010160009054906101000a900473ffffffffffffffffffffffffffffffffffffffff1673ffffffffffffffffffffffffffffffffffffffff163373ffffffffffffffffffffffffffffffffffffffff161415156115a557600080fd5b6002600085815260200190815260200160002060060180548060200260200160405190810160405280929190818152602001828054801561160557602002820191906000526020600020905b8154815260200190600101908083116115f1575b505050505092506000835111156116675782600184510381518110151561162857fe5b90602001906020020151420391506201518083600185510381518110151561164c57fe5b9060200190602002015181151561165f57fe5b049050611672565b620151809150600190505b62015180821015151561168457600080fd5b600160046000868152602001908152602001600020600083815260200190815260200160002060006101000a81548160ff0219169083151502179055506002600085815260200190815260200160002060060180548060010182816116e99190611d95565b916000526020600020900160004290919091505550600160026000868152602001908152602001600020600301600082825401925050819055506001600b600082825401925050819055503373ffffffffffffffffffffffffffffffffffffffff16847fbaaac593555e8c1b93639a9540811000f432755855c955a831f11fdaeb907852426040518082815260200191505060405180910390a350505050565b60006002600083815260200190815260200160002060010160009054906101000a900473ffffffffffffffffffffffffffffffffffffffff1673ffffffffffffffffffffffffffffffffffffffff163373ffffffffffffffffffffffffffffffffffffffff161415156117fb57600080fd5b6002600083815260200190815260200160002060070160009054906101000a900460ff16151561182a57600080fd5b600090505b60068054905081101561188e578160068281548110151561184c57fe5b90600052602060002090015414156118815760068181548110151561186d57fe5b90600052602060002090016000905561188e565b808060010191505061182f565b60006002600084815260200190815260200160002060070160006101000a81548160ff0219169083151502179055505050565b60075481565b6000806118d2611d81565b6118da611dc1565b600160003373ffffffffffffffffffffffffffffffffffffffff1673ffffffffffffffffffffffffffffffffffffffff16815260200190815260200160002060009054906101000a900460ff16151561193257600080fd5b600093505b84841015611b83576001600754019250600160076000828254019250508190555061012060405190810160405280848152602001600860009054906101000a900473ffffffffffffffffffffffffffffffffffffffff1673ffffffffffffffffffffffffffffffffffffffff1681526020014281526020016009548152602001600a5481526020016000815260200183815260200160011515815260200142815250905060036000600860009054906101000a900473ffffffffffffffffffffffffffffffffffffffff1673ffffffffffffffffffffffffffffffffffffffff1673ffffffffffffffffffffffffffffffffffffffff1681526020019081526020016000208054806001018281611a4e9190611d95565b91600052602060002090016000859091909150555080600260008581526020019081526020016000206000820151816000015560208201518160010160006101000a81548173ffffffffffffffffffffffffffffffffffffffff021916908373ffffffffffffffffffffffffffffffffffffffff16021790555060408201518160020155606082015181600301556080820151816004015560a0820151816005015560c0820151816006019080519060200190611b0c929190611e2c565b5060e08201518160070160006101000a81548160ff021916908315150217905550610100820151816008015590505060068054806001018281611b4f9190611d95565b916000526020600020900160008590919091505550600954600b600082825401925050819055508380600101945050611937565b5050505050565b611b92611e79565b611b9a611e79565b600080611ba5611d81565b8551604051805910611bb45750595b90808252806020026020018201604052509350600091505b8551821015611cdc57600260008784815181101515611be757fe5b906020019060200201518152602001908152602001600020600601805480602002602001604051908101604052809291908181526020018280548015611c4c57602002820191906000526020600020905b815481526020019060010190808311611c38575b50505050509050600081511115611caa57806001825103815181101515611c6f57fe5b90602001906020020151420392506201518083108483815181101515611c9157fe5b9060200190602002019015159081151581525050611ccf565b60008483815181101515611cba57fe5b90602001906020020190151590811515815250505b8180600101925050611bcc565b83945050505050919050565b60026020528060005260406000206000915090508060000154908060010160009054906101000a900473ffffffffffffffffffffffffffffffffffffffff16908060020154908060030154908060040154908060050154908060070160009054906101000a900460ff16908060080154905088565b600681815481101515611d6c57fe5b90600052602060002090016000915090505481565b602060405190810160405280600081525090565b815481835581811511611dbc57818360005260206000209182019101611dbb9190611e8d565b5b505050565b6101206040519081016040528060008152602001600073ffffffffffffffffffffffffffffffffffffffff16815260200160008152602001600081526020016000815260200160008152602001611e16611eb2565b8152602001600015158152602001600081525090565b828054828255906000526020600020908101928215611e68579160200282015b82811115611e67578251825591602001919060010190611e4c565b5b509050611e759190611e8d565b5090565b602060405190810160405280600081525090565b611eaf91905b80821115611eab576000816000905550600101611e93565b5090565b90565b6020604051908101604052806000815250905600a165627a7a7230582049fc35aff684add555eb78b3042d8ea069929ef946d9ff7dd0cb6d62b9b1132d0029",
  "source": "pragma solidity ^0.4.18;\r\n\r\ncontract Admin {\r\n  address public owner;\r\n  mapping(address => bool) public isAdmin;\r\n\r\n  modifier onlyOwner() {\r\n    require(msg.sender == owner);\r\n    _;\r\n  }\r\n\r\n  modifier onlyAdmin() {\r\n    require(isAdmin[msg.sender]);\r\n    _;\r\n  }\r\n\r\n  function Admin() public {\r\n    owner = msg.sender;\r\n    addAdmin(owner);\r\n  }\r\n\r\n  function addAdmin(address _admin) public onlyOwner {\r\n    isAdmin[_admin] = true;\r\n  }\r\n\r\n  function removeAdmin(address _admin) public onlyOwner {\r\n    isAdmin[_admin] = false;\r\n  }\r\n}\r\n\r\n// To add a tree do the following:\r\n// - Create a new Tree with the ID, owner, treeValue and power to generate fruits\r\n// - Update the treeBalances and treeOwner mappings\r\ncontract Trees is Admin {\r\n  event LogWaterTree(uint256 indexed treeId, address indexed owner, uint256 date);\r\n  event LogRewardPicked(uint256 indexed treeId, address indexed owner, uint256 date, uint256 amount);\r\n\r\n  // Get the tree information given the id\r\n  mapping(uint256 => Tree) public treeDetails;\r\n  // A mapping with all the tree IDs of that owner\r\n  mapping(address => uint256[]) public ownerTreesIds;\r\n  // Tree id and the days the tree has been watered\r\n  // Tree id => day number => isWatered\r\n  mapping(uint256 => mapping(uint256 => bool)) public treeWater;\r\n\r\n  struct Tree {\r\n    uint256 ID;\r\n    address owner;\r\n    uint256 purchaseDate;\r\n    uint256 treePower; // How much ether that tree is generating from 0 to 100 where 100 is the total power combined of all the trees\r\n    uint256 salePrice;\r\n    uint256 timesExchanged;\r\n    uint256[] waterTreeDates;\r\n    bool onSale;\r\n    uint256 lastRewardPickedDate; // When did you take the last reward\r\n  }\r\n\r\n  uint256[] public trees;\r\n  uint256[] public treesOnSale;\r\n  uint256 public lastTreeId;\r\n  address public defaultTreesOwner = msg.sender;\r\n  uint256 public defaultTreesPower = 1; // 10% of the total power\r\n  uint256 public defaultSalePrice = 1 ether;\r\n  uint256 public totalTreePower;\r\n\r\n  // This will be called automatically by the server\r\n  // The contract itself will hold the initial trees\r\n  function generateTrees(uint256 _amountToGenerate) public onlyAdmin {\r\n    for(uint256 i = 0; i < _amountToGenerate; i++) {\r\n        uint256 newTreeId = lastTreeId + 1;\r\n        lastTreeId += 1;\r\n        uint256[] memory emptyArray;\r\n        Tree memory newTree = Tree(newTreeId, defaultTreesOwner, now, defaultTreesPower, defaultSalePrice, 0, emptyArray, true, now);\r\n\r\n        // Update the treeBalances and treeOwner mappings\r\n        // We add the tree to the same array position to find it easier\r\n        ownerTreesIds[defaultTreesOwner].push(newTreeId);\r\n        treeDetails[newTreeId] = newTree;\r\n        treesOnSale.push(newTreeId);\r\n        totalTreePower += defaultTreesPower;\r\n    }\r\n  }\r\n\r\n  // This is payable, the user will send the payment here\r\n  // We delete the tree from the owner first and we add that to the receiver\r\n  // When you sell you're actually putting the tree on the market, not losing it yet\r\n  function putTreeOnSale(uint256 _treeNumber, uint256 _salePrice) public {\r\n    require(msg.sender == treeDetails[_treeNumber].owner);\r\n    require(!treeDetails[_treeNumber].onSale);\r\n    require(_salePrice > 0);\r\n\r\n    treesOnSale.push(_treeNumber);\r\n    treeDetails[_treeNumber].salePrice = _salePrice;\r\n    treeDetails[_treeNumber].onSale = true;\r\n  }\r\n\r\n  function buyTree(uint256 _treeNumber, address _originalOwner) public payable {\r\n    require(msg.sender != treeDetails[_treeNumber].owner);\r\n    require(treeDetails[_treeNumber].onSale);\r\n    require(msg.value >= treeDetails[_treeNumber].salePrice);\r\n    address newOwner = msg.sender;\r\n    // Move id from old to new owner\r\n    // Find the tree of that user and delete it\r\n    for(uint256 i = 0; i < ownerTreesIds[_originalOwner].length; i++) {\r\n        if(ownerTreesIds[_originalOwner][i] == _treeNumber) delete ownerTreesIds[_originalOwner][i];\r\n    }\r\n    // Remove the tree from the array of trees on sale\r\n    for(uint256 a = 0; a < treesOnSale.length; a++) {\r\n        if(treesOnSale[a] == _treeNumber) {\r\n            delete treesOnSale[a];\r\n            break;\r\n        }\r\n    }\r\n    ownerTreesIds[newOwner].push(_treeNumber);\r\n    treeDetails[_treeNumber].owner = newOwner;\r\n    treeDetails[_treeNumber].onSale = false;\r\n    if(treeDetails[_treeNumber].timesExchanged == 0) {\r\n        // Reward the owner for the initial trees as a way of monetization. Keep half for the treasury\r\n        owner.transfer(msg.value / 2);\r\n    }\r\n    treeDetails[_treeNumber].timesExchanged += 1;\r\n  }\r\n\r\n  // To take a tree out of the market without selling it\r\n  function cancelTreeSell(uint256 _treeId) public {\r\n    require(msg.sender == treeDetails[_treeId].owner);\r\n    require(treeDetails[_treeId].onSale);\r\n    // Remove the tree from the array of trees on sale\r\n    for(uint256 a = 0; a < treesOnSale.length; a++) {\r\n        if(treesOnSale[a] == _treeId) {\r\n            delete treesOnSale[a];\r\n            break;\r\n        }\r\n    }\r\n    treeDetails[_treeId].onSale = false;\r\n  }\r\n\r\n  // Improves the treePower\r\n  function waterTree(uint256 _treeId) public {\r\n    require(_treeId > 0);\r\n    require(msg.sender == treeDetails[_treeId].owner);\r\n    uint256[] memory waterDates = treeDetails[_treeId].waterTreeDates;\r\n    uint256 timeSinceLastWater;\r\n    // We want to store at what day the tree was watered\r\n    uint256 day;\r\n    if(waterDates.length > 0) {\r\n        timeSinceLastWater = now - waterDates[waterDates.length - 1];\r\n        day = waterDates[waterDates.length - 1] / 1 days;\r\n    }else {\r\n        timeSinceLastWater = 1 days;\r\n        day = 1;\r\n    }\r\n    require(timeSinceLastWater >= 1 days);\r\n    treeWater[_treeId][day] = true;\r\n    treeDetails[_treeId].waterTreeDates.push(now);\r\n    treeDetails[_treeId].treePower += 1;\r\n    totalTreePower += 1;\r\n    LogWaterTree(_treeId, msg.sender, now);\r\n  }\r\n\r\n  // To get the ether from the rewards\r\n  function pickReward(uint256 _treeId) public {\r\n    require(msg.sender == treeDetails[_treeId].owner);\r\n    require(now - treeDetails[_treeId].lastRewardPickedDate > 1 days);\r\n    uint256[] memory formatedId;\r\n    formatedId[0] = _treeId;\r\n    uint256[] memory reward = checkRewards(formatedId);\r\n    treeDetails[_treeId].lastRewardPickedDate = now;\r\n    msg.sender.transfer(reward[0]);\r\n    LogRewardPicked(_treeId, msg.sender, now, reward[0]);\r\n  }\r\n\r\n  // To see if a tree is already watered or not\r\n  function checkTreesWatered(uint256[] _treeIds) public constant returns(bool[]) {\r\n    bool[] memory results = new bool[](_treeIds.length);\r\n    uint256 timeSinceLastWater;\r\n    for(uint256 i = 0; i < _treeIds.length; i++) {\r\n        uint256[] memory waterDates = treeDetails[_treeIds[i]].waterTreeDates;\r\n        if(waterDates.length > 0) {\r\n            timeSinceLastWater = now - waterDates[waterDates.length - 1];\r\n            results[i] = timeSinceLastWater < 1 days;\r\n        } else {\r\n            results[i] = false;\r\n        }\r\n    }\r\n    return results;\r\n  }\r\n\r\n  // Returns an array of how much ether all those trees have generated today\r\n  // All the tree power combiined for instance 10293\r\n  // The tree power for this tree for instance 298\r\n  // What percentage do you get: 2%\r\n  // Total money in the treasury: 102 ETH\r\n  // A 10% of the total is distributed daily across all the users\r\n  // For instance 10.2 ETH today\r\n  // So if you pick your rewards right now, you'll get a 2% of 10.2 ETH which is 0.204 ETH\r\n  function checkRewards(uint256[] _treeIds) public constant returns(uint256[]) {\r\n    uint256 amountInTreasuryToDistribute = this.balance / 10;\r\n    uint256[] memory results = new uint256[](_treeIds.length);\r\n    for(uint256 i = 0; i < _treeIds.length; i++) {\r\n        uint256 yourPercentage = treeDetails[_treeIds[i]].treePower / totalTreePower;\r\n        uint256 amountYouGet = yourPercentage * amountInTreasuryToDistribute * 1 ether;\r\n        results[i] = amountYouGet;\r\n    }\r\n    return results;\r\n  }\r\n\r\n  // To get all the tree IDs of one user\r\n  function getTreeIds(address _account) public constant returns(uint256[]) {\r\n    if(_account != address(0)) return ownerTreesIds[_account];\r\n    else return ownerTreesIds[msg.sender];\r\n  }\r\n\r\n  // To get all the trees on sale\r\n  function getTreesOnSale() public constant returns(uint256[]) {\r\n      return treesOnSale;\r\n  }\r\n\r\n  // To extract the ether in an emergency\r\n  function emergencyExtract() public onlyOwner {\r\n    owner.transfer(this.balance);\r\n  }\r\n}\r\n",
  "sourcePath": "C:\\Users\\merunas\\Desktop\\money-trees\\contracts\\Trees.sol",
  "compiler": {
    "name": "solc",
    "version": "0.4.18+commit.9cf6e910.Emscripten.clang"
  },
  "schemaVersion": "1.0.1",
  "updatedAt": "2018-01-27T16:58:08.194Z"
}