{
  "contractName": "Trees",
  "abi": [
    {
      "constant": true,
      "inputs": [
        {
          "name": "_account",
          "type": "address"
        }
      ],
      "name": "getTreeIds",
      "outputs": [
        {
          "components": [
            {
              "name": "ID",
              "type": "uint256"
            },
            {
              "name": "owner",
              "type": "address"
            },
            {
              "name": "treeValue",
              "type": "uint256"
            },
            {
              "name": "treePower",
              "type": "uint256"
            },
            {
              "name": "onSale",
              "type": "bool"
            }
          ],
          "name": "",
          "type": "uint256[]"
        }
      ],
      "payable": false,
      "stateMutability": "view",
      "type": "function"
    },
    {
      "constant": false,
      "inputs": [
        {
          "name": "_admin",
          "type": "address"
        }
      ],
      "name": "removeAdmin",
      "outputs": [
        {
          "name": "",
          "type": "address"
        }
      ],
      "payable": false,
      "stateMutability": "nonpayable",
      "type": "function"
    },
    {
      "constant": true,
      "inputs": [
        {
          "name": "",
          "type": "address"
        }
      ],
      "name": "isAdmin",
      "outputs": [
        {
          "name": "",
          "type": "bool"
        }
      ],
      "payable": false,
      "stateMutability": "view",
      "type": "function"
    },
    {
      "constant": false,
      "inputs": [
        {
          "name": "_treeNumber",
          "type": "uint256"
        },
        {
          "name": "_originalOwner",
          "type": "address"
        }
      ],
      "name": "buyTree",
      "outputs": [
        {
          "name": "",
          "type": "bool"
        }
      ],
      "payable": true,
      "stateMutability": "payable",
      "type": "function"
    },
    {
      "constant": true,
      "inputs": [
        {
          "name": "_treeNumber",
          "type": "uint256"
        },
        {
          "name": "_originalOwner",
          "type": "address"
        }
      ],
      "name": "defaultTreesPower",
      "outputs": [
        {
          "name": "",
          "type": "uint256"
        }
      ],
      "payable": false,
      "stateMutability": "view",
      "type": "function"
    },
    {
      "constant": false,
      "inputs": [],
      "name": "generateTree",
      "outputs": [
        {
          "name": "",
          "type": "uint256"
        }
      ],
      "payable": false,
      "stateMutability": "nonpayable",
      "type": "function"
    },
    {
      "constant": true,
      "inputs": [],
      "name": "defaultSalePrice",
      "outputs": [
        {
          "name": "",
          "type": "uint256"
        }
      ],
      "payable": false,
      "stateMutability": "view",
      "type": "function"
    },
    {
      "constant": true,
      "inputs": [
        {
          "name": "",
          "type": "address"
        },
        {
          "name": "",
          "type": "uint256"
        }
      ],
      "name": "defaultTreesOwner",
      "outputs": [
        {
          "name": "",
          "type": "address"
        }
      ],
      "payable": false,
      "stateMutability": "view",
      "type": "function"
    },
    {
      "constant": true,
      "inputs": [
        {
          "name": "",
          "type": "address"
        },
        {
          "name": "",
          "type": "uint256"
        }
      ],
      "name": "ownerTreesIds",
      "outputs": [
        {
          "name": "",
          "type": "uint256"
        }
      ],
      "payable": false,
      "stateMutability": "view",
      "type": "function"
    },
    {
      "constant": false,
      "inputs": [
        {
          "name": "_admin",
          "type": "address"
        }
      ],
      "name": "addAdmin",
      "outputs": [
        {
          "name": "",
          "type": "uint256"
        }
      ],
      "payable": false,
      "stateMutability": "nonpayable",
      "type": "function"
    },
    {
      "constant": false,
      "inputs": [
        {
          "name": "_treeNumber",
          "type": "uint256"
        },
        {
          "name": "_salePrice",
          "type": "uint256"
        }
      ],
      "name": "putTreeOnSale",
      "outputs": [
        {
          "name": "",
          "type": "uint256"
        },
        {
          "name": "owner",
          "type": "address"
        },
        {
          "name": "treeValue",
          "type": "uint256"
        },
        {
          "name": "treePower",
          "type": "uint256"
        },
        {
          "name": "onSale",
          "type": "bool"
        }
      ],
      "payable": false,
      "stateMutability": "nonpayable",
      "type": "function"
    },
    {
      "constant": true,
      "inputs": [
        {
          "name": "",
          "type": "uint256"
        }
      ],
      "name": "trees",
      "outputs": [
        {
          "name": "",
          "type": "uint256"
        }
      ],
      "payable": false,
      "stateMutability": "view",
      "type": "function"
    },
    {
      "constant": true,
      "inputs": [],
      "name": "getTreesOnSale",
      "outputs": [
        {
          "name": "",
          "type": "uint256[]"
        }
      ],
      "payable": false,
      "stateMutability": "view",
      "type": "function"
    },
    {
      "constant": true,
      "inputs": [
        {
          "name": "_treeId",
          "type": "uint256"
        }
      ],
      "name": "owner",
      "outputs": [
        {
          "name": "",
          "type": "address"
        }
      ],
      "payable": false,
      "stateMutability": "view",
      "type": "function"
    },
    {
      "constant": false,
      "inputs": [
        {
          "name": "_treeId",
          "type": "uint256"
        }
      ],
      "name": "waterTree",
      "outputs": [
        {
          "components": [
            {
              "name": "ID",
              "type": "uint256"
            },
            {
              "name": "owner",
              "type": "address"
            },
            {
              "name": "treeValue",
              "type": "uint256"
            },
            {
              "name": "treePower",
              "type": "uint256"
            },
            {
              "name": "onSale",
              "type": "bool"
            }
          ],
          "name": "",
          "type": "uint256"
        },
        {
          "name": "owner",
          "type": "address"
        },
        {
          "name": "purchaseDate",
          "type": "uint256"
        },
        {
          "name": "treePower",
          "type": "uint256"
        },
        {
          "name": "onSale",
          "type": "bool"
        }
      ],
      "payable": false,
      "stateMutability": "nonpayable",
      "type": "function"
    },
    {
      "constant": false,
      "inputs": [
        {
          "name": "_treeId",
          "type": "uint256"
        }
      ],
      "name": "cancelTreeSell",
      "outputs": [
        {
          "components": [
            {
              "name": "ID",
              "type": "uint256"
            },
            {
              "name": "owner",
              "type": "address"
            },
            {
              "name": "treeValue",
              "type": "uint256"
            },
            {
              "name": "treePower",
              "type": "uint256"
            },
            {
              "name": "onSale",
              "type": "bool"
            }
          ],
          "name": "ID",
          "type": "uint256"
        },
        {
          "name": "owner",
          "type": "address"
        },
        {
          "name": "purchaseDate",
          "type": "uint256"
        },
        {
          "name": "treePower",
          "type": "uint256"
        },
        {
          "name": "onSale",
          "type": "bool"
        }
      ],
      "payable": false,
      "stateMutability": "nonpayable",
      "type": "function"
    },
    {
      "constant": true,
      "inputs": [
        {
          "name": "",
          "type": "uint256"
        }
      ],
      "name": "lastTreeId",
      "outputs": [
        {
          "name": "",
          "type": "uint256"
        }
      ],
      "payable": false,
      "stateMutability": "view",
      "type": "function"
    },
    {
      "constant": true,
      "inputs": [
        {
          "name": "",
          "type": "uint256"
        },
        {
          "name": "_receiver",
          "type": "address"
        }
      ],
      "name": "treeDetails",
      "outputs": [
        {
          "name": "ID",
          "type": "uint256"
        },
        {
          "name": "owner",
          "type": "address"
        },
        {
          "name": "purchaseDate",
          "type": "uint256"
        },
        {
          "name": "treePower",
          "type": "uint256"
        },
        {
          "name": "salePrice",
          "type": "uint256"
        },
        {
          "name": "timesExchanged",
          "type": "uint256"
        },
        {
          "name": "onSale",
          "type": "bool"
        }
      ],
      "payable": false,
      "stateMutability": "view",
      "type": "function"
    },
    {
      "constant": true,
      "inputs": [
        {
          "name": "",
          "type": "uint256"
        }
      ],
      "name": "treesOnSale",
      "outputs": [
        {
          "name": "",
          "type": "uint256"
        }
      ],
      "payable": false,
      "stateMutability": "view",
      "type": "function"
    },
    {
      "anonymous": false,
      "inputs": [
        {
          "indexed": true,
          "name": "treeId",
          "type": "uint256"
        },
        {
          "indexed": true,
          "name": "owner",
          "type": "address"
        },
        {
          "indexed": false,
          "name": "date",
          "type": "uint256"
        }
      ],
      "name": "LogWaterTree",
      "type": "event"
    }
  ],
  "bytecode": "0x606060405233600760006101000a81548173ffffffffffffffffffffffffffffffffffffffff021916908373ffffffffffffffffffffffffffffffffffffffff160217905550600a600855670de0b6b3a7640000600955336000806101000a81548173ffffffffffffffffffffffffffffffffffffffff021916908373ffffffffffffffffffffffffffffffffffffffff1602179055506100d36000809054906101000a900473ffffffffffffffffffffffffffffffffffffffff166100d864010000000002610f0f176401000000009004565b61018d565b6000809054906101000a900473ffffffffffffffffffffffffffffffffffffffff1673ffffffffffffffffffffffffffffffffffffffff163373ffffffffffffffffffffffffffffffffffffffff1614151561013357600080fd5b60018060008373ffffffffffffffffffffffffffffffffffffffff1673ffffffffffffffffffffffffffffffffffffffff16815260200190815260200160002060006101000a81548160ff02191690831515021790555050565b6115078061019c6000396000f300606060405260043610610107576000357c0100000000000000000000000000000000000000000000000000000000900463ffffffff1680630a425a331461010c5780631785f53c1461019a57806324d7806c146101d35780632ab28ce414610224578063388a15261461025b57806340f555a51461028457806345ed68e81461029957806353458f5e146102c257806363aa289b14610317578063704802751461036d57806379f3b481146103a65780637a508022146103d25780637f64727b146104095780638da5cb5b14610473578063998b723b146104c85780639b351087146104eb578063b1ae98871461050e578063cb14a5cf14610537578063e5c7bc6c146105c8575b600080fd5b341561011757600080fd5b610143600480803573ffffffffffffffffffffffffffffffffffffffff169060200190919050506105ff565b6040518080602001828103825283818151815260200191508051906020019060200280838360005b8381101561018657808201518184015260208101905061016b565b505050509050019250505060405180910390f35b34156101a557600080fd5b6101d1600480803573ffffffffffffffffffffffffffffffffffffffff16906020019091905050610768565b005b34156101de57600080fd5b61020a600480803573ffffffffffffffffffffffffffffffffffffffff1690602001909190505061081e565b604051808215151515815260200191505060405180910390f35b610259600480803590602001909190803573ffffffffffffffffffffffffffffffffffffffff1690602001909190505061083e565b005b341561026657600080fd5b61026e610c29565b6040518082815260200191505060405180910390f35b341561028f57600080fd5b610297610c2f565b005b34156102a457600080fd5b6102ac610eb2565b6040518082815260200191505060405180910390f35b34156102cd57600080fd5b6102d5610eb8565b604051808273ffffffffffffffffffffffffffffffffffffffff1673ffffffffffffffffffffffffffffffffffffffff16815260200191505060405180910390f35b341561032257600080fd5b610357600480803573ffffffffffffffffffffffffffffffffffffffff16906020019091908035906020019091905050610ede565b6040518082815260200191505060405180910390f35b341561037857600080fd5b6103a4600480803573ffffffffffffffffffffffffffffffffffffffff16906020019091905050610f0f565b005b34156103b157600080fd5b6103d06004808035906020019091908035906020019091905050610fc4565b005b34156103dd57600080fd5b6103f360048080359060200190919050506110ea565b6040518082815260200191505060405180910390f35b341561041457600080fd5b61041c61110e565b6040518080602001828103825283818151815260200191508051906020019060200280838360005b8381101561045f578082015181840152602081019050610444565b505050509050019250505060405180910390f35b341561047e57600080fd5b61048661116c565b604051808273ffffffffffffffffffffffffffffffffffffffff1673ffffffffffffffffffffffffffffffffffffffff16815260200191505060405180910390f35b34156104d357600080fd5b6104e96004808035906020019091905050611191565b005b34156104f657600080fd5b61050c60048080359060200190919050506111e0565b005b341561051957600080fd5b610521611318565b6040518082815260200191505060405180910390f35b341561054257600080fd5b610558600480803590602001909190505061131e565b604051808881526020018773ffffffffffffffffffffffffffffffffffffffff1673ffffffffffffffffffffffffffffffffffffffff1681526020018681526020018581526020018481526020018381526020018215151515815260200197505050505050505060405180910390f35b34156105d357600080fd5b6105e9600480803590602001909190505061138d565b6040518082815260200191505060405180910390f35b6106076113b1565b600073ffffffffffffffffffffffffffffffffffffffff168273ffffffffffffffffffffffffffffffffffffffff161415156106d257600360008373ffffffffffffffffffffffffffffffffffffffff1673ffffffffffffffffffffffffffffffffffffffff1681526020019081526020016000208054806020026020016040519081016040528092919081815260200182805480156106c657602002820191906000526020600020905b8154815260200190600101908083116106b2575b50505050509050610763565b600360003373ffffffffffffffffffffffffffffffffffffffff1673ffffffffffffffffffffffffffffffffffffffff16815260200190815260200160002080548060200260200160405190810160405280929190818152602001828054801561075b57602002820191906000526020600020905b815481526020019060010190808311610747575b505050505090505b919050565b6000809054906101000a900473ffffffffffffffffffffffffffffffffffffffff1673ffffffffffffffffffffffffffffffffffffffff163373ffffffffffffffffffffffffffffffffffffffff161415156107c357600080fd5b6000600160008373ffffffffffffffffffffffffffffffffffffffff1673ffffffffffffffffffffffffffffffffffffffff16815260200190815260200160002060006101000a81548160ff02191690831515021790555050565b60016020528060005260406000206000915054906101000a900460ff1681565b60008060006002600086815260200190815260200160002060010160009054906101000a900473ffffffffffffffffffffffffffffffffffffffff1673ffffffffffffffffffffffffffffffffffffffff163373ffffffffffffffffffffffffffffffffffffffff16141515156108b457600080fd5b6002600086815260200190815260200160002060070160009054906101000a900460ff1615156108e357600080fd5b6002600086815260200190815260200160002060040154341015151561090857600080fd5b339250600091505b600360008573ffffffffffffffffffffffffffffffffffffffff1673ffffffffffffffffffffffffffffffffffffffff16815260200190815260200160002080549050821015610a225784600360008673ffffffffffffffffffffffffffffffffffffffff1673ffffffffffffffffffffffffffffffffffffffff168152602001908152602001600020838154811015156109a757fe5b9060005260206000209001541415610a1557600360008573ffffffffffffffffffffffffffffffffffffffff1673ffffffffffffffffffffffffffffffffffffffff16815260200190815260200160002082815481101515610a0557fe5b9060005260206000209001600090555b8180600101925050610910565b600090505b600580549050811015610a865784600582815481101515610a4457fe5b9060005260206000209001541415610a7957600581815481101515610a6557fe5b906000526020600020900160009055610a86565b8080600101915050610a27565b600360008473ffffffffffffffffffffffffffffffffffffffff1673ffffffffffffffffffffffffffffffffffffffff1681526020019081526020016000208054806001018281610ad791906113c5565b916000526020600020900160008790919091505550826002600087815260200190815260200160002060010160006101000a81548173ffffffffffffffffffffffffffffffffffffffff021916908373ffffffffffffffffffffffffffffffffffffffff16021790555060006002600087815260200190815260200160002060070160006101000a81548160ff021916908315150217905550600060026000878152602001908152602001600020600501541415610bfd576000809054906101000a900473ffffffffffffffffffffffffffffffffffffffff1673ffffffffffffffffffffffffffffffffffffffff166108fc600234811515610bd657fe5b049081150290604051600060405180830381858888f193505050501515610bfc57600080fd5b5b600160026000878152602001908152602001600020600501600082825401925050819055505050505050565b60085481565b6000610c396113b1565b610c416113f1565b600160003373ffffffffffffffffffffffffffffffffffffffff1673ffffffffffffffffffffffffffffffffffffffff16815260200190815260200160002060009054906101000a900460ff161515610c9957600080fd5b6001600654019250600160066000828254019250508190555061010060405190810160405280848152602001600760009054906101000a900473ffffffffffffffffffffffffffffffffffffffff1673ffffffffffffffffffffffffffffffffffffffff168152602001428152602001600854815260200160095481526020016000815260200183815260200160011515815250905060036000600760009054906101000a900473ffffffffffffffffffffffffffffffffffffffff1673ffffffffffffffffffffffffffffffffffffffff1673ffffffffffffffffffffffffffffffffffffffff1681526020019081526020016000208054806001018281610da291906113c5565b91600052602060002090016000859091909150555080600260008581526020019081526020016000206000820151816000015560208201518160010160006101000a81548173ffffffffffffffffffffffffffffffffffffffff021916908373ffffffffffffffffffffffffffffffffffffffff16021790555060408201518160020155606082015181600301556080820151816004015560a0820151816005015560c0820151816006019080519060200190610e60929190611455565b5060e08201518160070160006101000a81548160ff02191690831515021790555090505060058054806001018281610e9891906113c5565b916000526020600020900160008590919091505550505050565b60095481565b600760009054906101000a900473ffffffffffffffffffffffffffffffffffffffff1681565b600360205281600052604060002081815481101515610ef957fe5b9060005260206000209001600091509150505481565b6000809054906101000a900473ffffffffffffffffffffffffffffffffffffffff1673ffffffffffffffffffffffffffffffffffffffff163373ffffffffffffffffffffffffffffffffffffffff16141515610f6a57600080fd5b60018060008373ffffffffffffffffffffffffffffffffffffffff1673ffffffffffffffffffffffffffffffffffffffff16815260200190815260200160002060006101000a81548160ff02191690831515021790555050565b6002600083815260200190815260200160002060010160009054906101000a900473ffffffffffffffffffffffffffffffffffffffff1673ffffffffffffffffffffffffffffffffffffffff163373ffffffffffffffffffffffffffffffffffffffff1614151561103457600080fd5b6002600083815260200190815260200160002060070160009054906101000a900460ff1615151561106457600080fd5b60008111151561107357600080fd5b6005805480600101828161108791906113c5565b91600052602060002090016000849091909150555080600260008481526020019081526020016000206004018190555060016002600084815260200190815260200160002060070160006101000a81548160ff0219169083151502179055505050565b6004818154811015156110f957fe5b90600052602060002090016000915090505481565b6111166113b1565b600580548060200260200160405190810160405280929190818152602001828054801561116257602002820191906000526020600020905b81548152602001906001019080831161114e575b5050505050905090565b6000809054906101000a900473ffffffffffffffffffffffffffffffffffffffff1681565b6000811115156111a057600080fd5b6002600082815260200190815260200160002060060180548060010182816111c891906113c5565b91600052602060002090016000429091909150555050565b60006002600083815260200190815260200160002060010160009054906101000a900473ffffffffffffffffffffffffffffffffffffffff1673ffffffffffffffffffffffffffffffffffffffff163373ffffffffffffffffffffffffffffffffffffffff1614151561125257600080fd5b6002600083815260200190815260200160002060070160009054906101000a900460ff16151561128157600080fd5b600090505b6005805490508110156112e557816005828154811015156112a357fe5b90600052602060002090015414156112d8576005818154811015156112c457fe5b9060005260206000209001600090556112e5565b8080600101915050611286565b60006002600084815260200190815260200160002060070160006101000a81548160ff0219169083151502179055505050565b60065481565b60026020528060005260406000206000915090508060000154908060010160009054906101000a900473ffffffffffffffffffffffffffffffffffffffff16908060020154908060030154908060040154908060050154908060070160009054906101000a900460ff16905087565b60058181548110151561139c57fe5b90600052602060002090016000915090505481565b602060405190810160405280600081525090565b8154818355818115116113ec578183600052602060002091820191016113eb91906114a2565b5b505050565b6101006040519081016040528060008152602001600073ffffffffffffffffffffffffffffffffffffffff168152602001600081526020016000815260200160008152602001600081526020016114466114c7565b81526020016000151581525090565b828054828255906000526020600020908101928215611491579160200282015b82811115611490578251825591602001919060010190611475565b5b50905061149e91906114a2565b5090565b6114c491905b808211156114c05760008160009055506001016114a8565b5090565b90565b6020604051908101604052806000815250905600a165627a7a72305820eaa652bac9c3f958fe1915cdabc7120fced8b5e0414330aa93081373d79912430029",
  "source": "pragma solidity ^0.4.18;\r\n\r\ncontract Admin {\r\n  address public owner;\r\n  mapping(address => bool) public isAdmin;\r\n\r\n  modifier onlyOwner() {\r\n    require(msg.sender == owner);\r\n    _;\r\n  }\r\n\r\n  modifier onlyAdmin() {\r\n    require(isAdmin[msg.sender]);\r\n    _;\r\n  }\r\n\r\n  function Admin() public {\r\n    owner = msg.sender;\r\n    addAdmin(owner);\r\n  }\r\n\r\n  function addAdmin(address _admin) public onlyOwner {\r\n    isAdmin[_admin] = true;\r\n  }\r\n\r\n  function removeAdmin(address _admin) public onlyOwner {\r\n    isAdmin[_admin] = false;\r\n  }\r\n}\r\n\r\n// To add a tree do the following:\r\n// - Create a new Tree with the ID, owner, treeValue and power to generate fruits\r\n// - Update the treeBalances and treeOwner mappings\r\ncontract Trees is Admin {\r\n  event LogWaterTree(uint256 indexed treeId, address indexed owner, uint256 date);\r\n\r\n  // Get the tree information given the id\r\n  mapping(uint256 => Tree) public treeDetails;\r\n  // A mapping with all the tree IDs of that owner\r\n  mapping(address => uint256[]) public ownerTreesIds;\r\n\r\n  struct Tree {\r\n    uint256 ID;\r\n    address owner;\r\n    uint256 purchaseDate;\r\n    uint256 treePower; // How much ether that tree is generating from 0 to 100 where 100 is the total power combined of all the trees\r\n    uint256 salePrice;\r\n    uint256 timesExchanged;\r\n    uint256[] waterTreeDates;\r\n    bool onSale;\r\n  }\r\n\r\n  uint256[] public trees;\r\n  uint256[] public treesOnSale;\r\n  uint256 public lastTreeId;\r\n  address public defaultTreesOwner = msg.sender;\r\n  uint256 public defaultTreesPower = 10; // 10% of the total power\r\n  uint256 public defaultSalePrice = 1 ether;\r\n\r\n  // This will be called automatically by the server\r\n  // The contract itself will hold the initial trees\r\n  function generateTree() public onlyAdmin {\r\n    uint256 newTreeId = lastTreeId + 1;\r\n    lastTreeId += 1;\r\n    uint256[] memory emptyArray;\r\n    Tree memory newTree = Tree(newTreeId, defaultTreesOwner, now, defaultTreesPower, defaultSalePrice, 0, emptyArray, true);\r\n\r\n    // Update the treeBalances and treeOwner mappings\r\n    // We add the tree to the same array position to find it easier\r\n    ownerTreesIds[defaultTreesOwner].push(newTreeId);\r\n    treeDetails[newTreeId] = newTree;\r\n    treesOnSale.push(newTreeId);\r\n  }\r\n\r\n  // This is payable, the user will send the payment here\r\n  // We delete the tree from the owner first and we add that to the receiver\r\n  // When you sell you're actually putting the tree on the market, not losing it yet\r\n  function putTreeOnSale(uint256 _treeNumber, uint256 _salePrice) public {\r\n    require(msg.sender == treeDetails[_treeNumber].owner);\r\n    require(!treeDetails[_treeNumber].onSale);\r\n    require(_salePrice > 0);\r\n\r\n    treesOnSale.push(_treeNumber);\r\n    treeDetails[_treeNumber].salePrice = _salePrice;\r\n    treeDetails[_treeNumber].onSale = true;\r\n  }\r\n\r\n  function buyTree(uint256 _treeNumber, address _originalOwner) public payable {\r\n    require(msg.sender != treeDetails[_treeNumber].owner);\r\n    require(treeDetails[_treeNumber].onSale);\r\n    require(msg.value >= treeDetails[_treeNumber].salePrice);\r\n\r\n    address newOwner = msg.sender;\r\n\r\n    // Move id from old to new owner\r\n    // Find the tree of that user and delete it\r\n    for(uint256 i = 0; i < ownerTreesIds[_originalOwner].length; i++) {\r\n        if(ownerTreesIds[_originalOwner][i] == _treeNumber) delete ownerTreesIds[_originalOwner][i];\r\n    }\r\n\r\n    // Remove the tree from the array of trees on sale\r\n    for(uint256 a = 0; a < treesOnSale.length; a++) {\r\n        if(treesOnSale[a] == _treeNumber) {\r\n            delete treesOnSale[a];\r\n            break;\r\n        }\r\n    }\r\n\r\n    ownerTreesIds[newOwner].push(_treeNumber);\r\n    treeDetails[_treeNumber].owner = newOwner;\r\n    treeDetails[_treeNumber].onSale = false;\r\n\r\n    if(treeDetails[_treeNumber].timesExchanged == 0) {\r\n        // Reward the owner for the initial trees as a way of monetization. Keep half for the treasury\r\n        owner.transfer(msg.value / 2);\r\n    }\r\n\r\n    treeDetails[_treeNumber].timesExchanged += 1;\r\n  }\r\n\r\n  function cancelTreeSell(uint256 _treeId) public {\r\n    require(msg.sender == treeDetails[_treeId].owner);\r\n    require(treeDetails[_treeId].onSale);\r\n\r\n    // Remove the tree from the array of trees on sale\r\n    for(uint256 a = 0; a < treesOnSale.length; a++) {\r\n        if(treesOnSale[a] == _treeId) {\r\n            delete treesOnSale[a];\r\n            break;\r\n        }\r\n    }\r\n    treeDetails[_treeId].onSale = false;\r\n  }\r\n\r\n  function waterTree(uint256 _treeId) public {\r\n    require(_treeId > 0);\r\n\r\n    treeDetails[_treeId].waterTreeDates.push(now);\r\n  }\r\n\r\n  // To get all the tree IDs of one user\r\n  function getTreeIds(address _account) public constant returns(uint256[]) {\r\n    if(_account != address(0)) return ownerTreesIds[_account];\r\n    else return ownerTreesIds[msg.sender];\r\n  }\r\n\r\n  // To get all the trees on sale\r\n  function getTreesOnSale() public constant returns(uint256[]) {\r\n      return treesOnSale;\r\n  }\r\n}\r\n",
  "sourcePath": "C:\\Users\\merunas\\Desktop\\money-trees\\contracts\\Trees.sol",
  "compiler": {
    "name": "solc",
    "version": "0.4.18+commit.9cf6e910.Emscripten.clang"
  },
  "schemaVersion": "1.0.1",
  "updatedAt": "2018-01-25T20:56:23.458Z"
}