{
  "contractName": "Trees",
  "abi": [
    {
      "constant": true,
      "inputs": [
        {
          "name": "_account",
          "type": "address"
        }
      ],
      "name": "getTreeIds",
      "outputs": [
        {
          "name": "",
          "type": "uint256[]"
        }
      ],
      "payable": false,
      "stateMutability": "view",
      "type": "function"
    },
    {
      "constant": false,
      "inputs": [
        {
          "name": "_admin",
          "type": "address"
        }
      ],
      "name": "removeAdmin",
      "outputs": [],
      "payable": false,
      "stateMutability": "nonpayable",
      "type": "function"
    },
    {
      "constant": true,
      "inputs": [
        {
          "name": "",
          "type": "address"
        }
      ],
      "name": "isAdmin",
      "outputs": [
        {
          "name": "",
          "type": "bool"
        }
      ],
      "payable": false,
      "stateMutability": "view",
      "type": "function"
    },
    {
      "constant": false,
      "inputs": [
        {
          "name": "_treeNumber",
          "type": "uint256"
        },
        {
          "name": "_originalOwner",
          "type": "address"
        }
      ],
      "name": "buyTree",
      "outputs": [],
      "payable": true,
      "stateMutability": "payable",
      "type": "function"
    },
    {
      "constant": true,
      "inputs": [],
      "name": "defaultTreesPower",
      "outputs": [
        {
          "name": "",
          "type": "uint256"
        }
      ],
      "payable": false,
      "stateMutability": "view",
      "type": "function"
    },
    {
      "constant": false,
      "inputs": [],
      "name": "generateTree",
      "outputs": [],
      "payable": false,
      "stateMutability": "nonpayable",
      "type": "function"
    },
    {
      "constant": true,
      "inputs": [
        {
          "name": "",
          "type": "uint256"
        },
        {
          "name": "",
          "type": "uint256"
        }
      ],
      "name": "treeWater",
      "outputs": [
        {
          "name": "",
          "type": "bool"
        }
      ],
      "payable": false,
      "stateMutability": "view",
      "type": "function"
    },
    {
      "constant": true,
      "inputs": [],
      "name": "defaultSalePrice",
      "outputs": [
        {
          "name": "",
          "type": "uint256"
        }
      ],
      "payable": false,
      "stateMutability": "view",
      "type": "function"
    },
    {
      "constant": true,
      "inputs": [],
      "name": "defaultTreesOwner",
      "outputs": [
        {
          "name": "",
          "type": "address"
        }
      ],
      "payable": false,
      "stateMutability": "view",
      "type": "function"
    },
    {
      "constant": false,
      "inputs": [
        {
          "name": "_treeId",
          "type": "uint256"
        }
      ],
      "name": "pickReward",
      "outputs": [],
      "payable": false,
      "stateMutability": "nonpayable",
      "type": "function"
    },
    {
      "constant": false,
      "inputs": [],
      "name": "emergencyExtract",
      "outputs": [],
      "payable": false,
      "stateMutability": "nonpayable",
      "type": "function"
    },
    {
      "constant": true,
      "inputs": [
        {
          "name": "",
          "type": "address"
        },
        {
          "name": "",
          "type": "uint256"
        }
      ],
      "name": "ownerTreesIds",
      "outputs": [
        {
          "name": "",
          "type": "uint256"
        }
      ],
      "payable": false,
      "stateMutability": "view",
      "type": "function"
    },
    {
      "constant": false,
      "inputs": [
        {
          "name": "_admin",
          "type": "address"
        }
      ],
      "name": "addAdmin",
      "outputs": [],
      "payable": false,
      "stateMutability": "nonpayable",
      "type": "function"
    },
    {
      "constant": false,
      "inputs": [
        {
          "name": "_treeNumber",
          "type": "uint256"
        },
        {
          "name": "_salePrice",
          "type": "uint256"
        }
      ],
      "name": "putTreeOnSale",
      "outputs": [],
      "payable": false,
      "stateMutability": "nonpayable",
      "type": "function"
    },
    {
      "constant": true,
      "inputs": [
        {
          "name": "",
          "type": "uint256"
        }
      ],
      "name": "trees",
      "outputs": [
        {
          "name": "",
          "type": "uint256"
        }
      ],
      "payable": false,
      "stateMutability": "view",
      "type": "function"
    },
    {
      "constant": true,
      "inputs": [],
      "name": "getTreesOnSale",
      "outputs": [
        {
          "name": "",
          "type": "uint256[]"
        }
      ],
      "payable": false,
      "stateMutability": "view",
      "type": "function"
    },
    {
      "constant": true,
      "inputs": [],
      "name": "totalTreePower",
      "outputs": [
        {
          "name": "",
          "type": "uint256"
        }
      ],
      "payable": false,
      "stateMutability": "view",
      "type": "function"
    },
    {
      "constant": true,
      "inputs": [
        {
          "name": "_treeIds",
          "type": "uint256[]"
        }
      ],
      "name": "checkRewards",
      "outputs": [
        {
          "name": "",
          "type": "uint256[]"
        }
      ],
      "payable": false,
      "stateMutability": "view",
      "type": "function"
    },
    {
      "constant": true,
      "inputs": [],
      "name": "owner",
      "outputs": [
        {
          "name": "",
          "type": "address"
        }
      ],
      "payable": false,
      "stateMutability": "view",
      "type": "function"
    },
    {
      "constant": false,
      "inputs": [
        {
          "name": "_treeId",
          "type": "uint256"
        }
      ],
      "name": "waterTree",
      "outputs": [],
      "payable": false,
      "stateMutability": "nonpayable",
      "type": "function"
    },
    {
      "constant": false,
      "inputs": [
        {
          "name": "_treeId",
          "type": "uint256"
        }
      ],
      "name": "cancelTreeSell",
      "outputs": [],
      "payable": false,
      "stateMutability": "nonpayable",
      "type": "function"
    },
    {
      "constant": true,
      "inputs": [],
      "name": "lastTreeId",
      "outputs": [
        {
          "name": "",
          "type": "uint256"
        }
      ],
      "payable": false,
      "stateMutability": "view",
      "type": "function"
    },
    {
      "constant": true,
      "inputs": [
        {
          "name": "",
          "type": "uint256"
        }
      ],
      "name": "treeDetails",
      "outputs": [
        {
          "name": "ID",
          "type": "uint256"
        },
        {
          "name": "owner",
          "type": "address"
        },
        {
          "name": "purchaseDate",
          "type": "uint256"
        },
        {
          "name": "treePower",
          "type": "uint256"
        },
        {
          "name": "salePrice",
          "type": "uint256"
        },
        {
          "name": "timesExchanged",
          "type": "uint256"
        },
        {
          "name": "onSale",
          "type": "bool"
        },
        {
          "name": "lastRewardPickedDate",
          "type": "uint256"
        }
      ],
      "payable": false,
      "stateMutability": "view",
      "type": "function"
    },
    {
      "constant": true,
      "inputs": [
        {
          "name": "",
          "type": "uint256"
        }
      ],
      "name": "treesOnSale",
      "outputs": [
        {
          "name": "",
          "type": "uint256"
        }
      ],
      "payable": false,
      "stateMutability": "view",
      "type": "function"
    },
    {
      "anonymous": false,
      "inputs": [
        {
          "indexed": true,
          "name": "treeId",
          "type": "uint256"
        },
        {
          "indexed": true,
          "name": "owner",
          "type": "address"
        },
        {
          "indexed": false,
          "name": "date",
          "type": "uint256"
        }
      ],
      "name": "LogWaterTree",
      "type": "event"
    },
    {
      "anonymous": false,
      "inputs": [
        {
          "indexed": true,
          "name": "treeId",
          "type": "uint256"
        },
        {
          "indexed": true,
          "name": "owner",
          "type": "address"
        },
        {
          "indexed": false,
          "name": "date",
          "type": "uint256"
        },
        {
          "indexed": false,
          "name": "amount",
          "type": "uint256"
        }
      ],
      "name": "LogRewardPicked",
      "type": "event"
    }
  ],
  "bytecode": "0x606060405233600860006101000a81548173ffffffffffffffffffffffffffffffffffffffff021916908373ffffffffffffffffffffffffffffffffffffffff1602179055506001600955670de0b6b3a7640000600a55336000806101000a81548173ffffffffffffffffffffffffffffffffffffffff021916908373ffffffffffffffffffffffffffffffffffffffff1602179055506100d36000809054906101000a900473ffffffffffffffffffffffffffffffffffffffff166100d864010000000002611381176401000000009004565b61018d565b6000809054906101000a900473ffffffffffffffffffffffffffffffffffffffff1673ffffffffffffffffffffffffffffffffffffffff163373ffffffffffffffffffffffffffffffffffffffff1614151561013357600080fd5b60018060008373ffffffffffffffffffffffffffffffffffffffff1673ffffffffffffffffffffffffffffffffffffffff16815260200190815260200160002060006101000a81548160ff02191690831515021790555050565b611c658061019c6000396000f30060606040526004361061013e576000357c0100000000000000000000000000000000000000000000000000000000900463ffffffff1680630a425a33146101435780631785f53c146101d157806324d7806c1461020a5780632ab28ce41461025b578063388a15261461029257806340f555a5146102bb5780634398fbd6146102d057806345ed68e81461031457806353458f5e1461033d57806356196d87146103925780635fa51277146103b557806363aa289b146103ca578063704802751461042057806379f3b481146104595780637a508022146104855780637f64727b146104bc5780637fdafafa14610526578063859f63dc1461054f5780638da5cb5b146105fe578063998b723b146106535780639b35108714610676578063b1ae988714610699578063cb14a5cf146106c2578063e5c7bc6c1461075a575b600080fd5b341561014e57600080fd5b61017a600480803573ffffffffffffffffffffffffffffffffffffffff16906020019091905050610791565b6040518080602001828103825283818151815260200191508051906020019060200280838360005b838110156101bd5780820151818401526020810190506101a2565b505050509050019250505060405180910390f35b34156101dc57600080fd5b610208600480803573ffffffffffffffffffffffffffffffffffffffff169060200190919050506108fa565b005b341561021557600080fd5b610241600480803573ffffffffffffffffffffffffffffffffffffffff169060200190919050506109b0565b604051808215151515815260200191505060405180910390f35b610290600480803590602001909190803573ffffffffffffffffffffffffffffffffffffffff169060200190919050506109d0565b005b341561029d57600080fd5b6102a5610dbb565b6040518082815260200191505060405180910390f35b34156102c657600080fd5b6102ce610dc1565b005b34156102db57600080fd5b6102fa6004808035906020019091908035906020019091905050611067565b604051808215151515815260200191505060405180910390f35b341561031f57600080fd5b610327611096565b6040518082815260200191505060405180910390f35b341561034857600080fd5b61035061109c565b604051808273ffffffffffffffffffffffffffffffffffffffff1673ffffffffffffffffffffffffffffffffffffffff16815260200191505060405180910390f35b341561039d57600080fd5b6103b360048080359060200190919050506110c2565b005b34156103c057600080fd5b6103c861127b565b005b34156103d557600080fd5b61040a600480803573ffffffffffffffffffffffffffffffffffffffff16906020019091908035906020019091905050611350565b6040518082815260200191505060405180910390f35b341561042b57600080fd5b610457600480803573ffffffffffffffffffffffffffffffffffffffff16906020019091905050611381565b005b341561046457600080fd5b6104836004808035906020019091908035906020019091905050611436565b005b341561049057600080fd5b6104a6600480803590602001909190505061155c565b6040518082815260200191505060405180910390f35b34156104c757600080fd5b6104cf611580565b6040518080602001828103825283818151815260200191508051906020019060200280838360005b838110156105125780820151818401526020810190506104f7565b505050509050019250505060405180910390f35b341561053157600080fd5b6105396115de565b6040518082815260200191505060405180910390f35b341561055a57600080fd5b6105a76004808035906020019082018035906020019080806020026020016040519081016040528093929190818152602001838360200280828437820191505050505050919050506115e4565b6040518080602001828103825283818151815260200191508051906020019060200280838360005b838110156105ea5780820151818401526020810190506105cf565b505050509050019250505060405180910390f35b341561060957600080fd5b6106116116d4565b604051808273ffffffffffffffffffffffffffffffffffffffff1673ffffffffffffffffffffffffffffffffffffffff16815260200191505060405180910390f35b341561065e57600080fd5b61067460048080359060200190919050506116f9565b005b341561068157600080fd5b6106976004808035906020019091905050611931565b005b34156106a457600080fd5b6106ac611a69565b6040518082815260200191505060405180910390f35b34156106cd57600080fd5b6106e36004808035906020019091905050611a6f565b604051808981526020018873ffffffffffffffffffffffffffffffffffffffff1673ffffffffffffffffffffffffffffffffffffffff168152602001878152602001868152602001858152602001848152602001831515151581526020018281526020019850505050505050505060405180910390f35b341561076557600080fd5b61077b6004808035906020019091905050611ae4565b6040518082815260200191505060405180910390f35b610799611b08565b600073ffffffffffffffffffffffffffffffffffffffff168273ffffffffffffffffffffffffffffffffffffffff1614151561086457600360008373ffffffffffffffffffffffffffffffffffffffff1673ffffffffffffffffffffffffffffffffffffffff16815260200190815260200160002080548060200260200160405190810160405280929190818152602001828054801561085857602002820191906000526020600020905b815481526020019060010190808311610844575b505050505090506108f5565b600360003373ffffffffffffffffffffffffffffffffffffffff1673ffffffffffffffffffffffffffffffffffffffff1681526020019081526020016000208054806020026020016040519081016040528092919081815260200182805480156108ed57602002820191906000526020600020905b8154815260200190600101908083116108d9575b505050505090505b919050565b6000809054906101000a900473ffffffffffffffffffffffffffffffffffffffff1673ffffffffffffffffffffffffffffffffffffffff163373ffffffffffffffffffffffffffffffffffffffff1614151561095557600080fd5b6000600160008373ffffffffffffffffffffffffffffffffffffffff1673ffffffffffffffffffffffffffffffffffffffff16815260200190815260200160002060006101000a81548160ff02191690831515021790555050565b60016020528060005260406000206000915054906101000a900460ff1681565b60008060006002600086815260200190815260200160002060010160009054906101000a900473ffffffffffffffffffffffffffffffffffffffff1673ffffffffffffffffffffffffffffffffffffffff163373ffffffffffffffffffffffffffffffffffffffff1614151515610a4657600080fd5b6002600086815260200190815260200160002060070160009054906101000a900460ff161515610a7557600080fd5b60026000868152602001908152602001600020600401543410151515610a9a57600080fd5b339250600091505b600360008573ffffffffffffffffffffffffffffffffffffffff1673ffffffffffffffffffffffffffffffffffffffff16815260200190815260200160002080549050821015610bb45784600360008673ffffffffffffffffffffffffffffffffffffffff1673ffffffffffffffffffffffffffffffffffffffff16815260200190815260200160002083815481101515610b3957fe5b9060005260206000209001541415610ba757600360008573ffffffffffffffffffffffffffffffffffffffff1673ffffffffffffffffffffffffffffffffffffffff16815260200190815260200160002082815481101515610b9757fe5b9060005260206000209001600090555b8180600101925050610aa2565b600090505b600680549050811015610c185784600682815481101515610bd657fe5b9060005260206000209001541415610c0b57600681815481101515610bf757fe5b906000526020600020900160009055610c18565b8080600101915050610bb9565b600360008473ffffffffffffffffffffffffffffffffffffffff1673ffffffffffffffffffffffffffffffffffffffff1681526020019081526020016000208054806001018281610c699190611b1c565b916000526020600020900160008790919091505550826002600087815260200190815260200160002060010160006101000a81548173ffffffffffffffffffffffffffffffffffffffff021916908373ffffffffffffffffffffffffffffffffffffffff16021790555060006002600087815260200190815260200160002060070160006101000a81548160ff021916908315150217905550600060026000878152602001908152602001600020600501541415610d8f576000809054906101000a900473ffffffffffffffffffffffffffffffffffffffff1673ffffffffffffffffffffffffffffffffffffffff166108fc600234811515610d6857fe5b049081150290604051600060405180830381858888f193505050501515610d8e57600080fd5b5b600160026000878152602001908152602001600020600501600082825401925050819055505050505050565b60095481565b6000610dcb611b08565b610dd3611b48565b600160003373ffffffffffffffffffffffffffffffffffffffff1673ffffffffffffffffffffffffffffffffffffffff16815260200190815260200160002060009054906101000a900460ff161515610e2b57600080fd5b6001600754019250600160076000828254019250508190555061012060405190810160405280848152602001600860009054906101000a900473ffffffffffffffffffffffffffffffffffffffff1673ffffffffffffffffffffffffffffffffffffffff1681526020014281526020016009548152602001600a5481526020016000815260200183815260200160011515815260200142815250905060036000600860009054906101000a900473ffffffffffffffffffffffffffffffffffffffff1673ffffffffffffffffffffffffffffffffffffffff1673ffffffffffffffffffffffffffffffffffffffff1681526020019081526020016000208054806001018281610f3a9190611b1c565b91600052602060002090016000859091909150555080600260008581526020019081526020016000206000820151816000015560208201518160010160006101000a81548173ffffffffffffffffffffffffffffffffffffffff021916908373ffffffffffffffffffffffffffffffffffffffff16021790555060408201518160020155606082015181600301556080820151816004015560a0820151816005015560c0820151816006019080519060200190610ff8929190611bb3565b5060e08201518160070160006101000a81548160ff02191690831515021790555061010082015181600801559050506006805480600101828161103b9190611b1c565b916000526020600020900160008590919091505550600954600b60008282540192505081905550505050565b60046020528160005260406000206020528060005260406000206000915091509054906101000a900460ff1681565b600a5481565b600860009054906101000a900473ffffffffffffffffffffffffffffffffffffffff1681565b6110ca611b08565b6110d2611b08565b6002600084815260200190815260200160002060010160009054906101000a900473ffffffffffffffffffffffffffffffffffffffff1673ffffffffffffffffffffffffffffffffffffffff163373ffffffffffffffffffffffffffffffffffffffff1614151561114257600080fd5b620151806002600085815260200190815260200160002060080154420311151561116b57600080fd5b8282600081518110151561117b57fe5b9060200190602002018181525050611192826115e4565b90504260026000858152602001908152602001600020600801819055503373ffffffffffffffffffffffffffffffffffffffff166108fc8260008151811015156111d857fe5b906020019060200201519081150290604051600060405180830381858888f19350505050151561120757600080fd5b3373ffffffffffffffffffffffffffffffffffffffff16837f12bb6df7d3f023952e2af1ef146450890b0f750d47ed0ac466a542b81646e06a4284600081518110151561125057fe5b90602001906020020151604051808381526020018281526020019250505060405180910390a3505050565b6000809054906101000a900473ffffffffffffffffffffffffffffffffffffffff1673ffffffffffffffffffffffffffffffffffffffff163373ffffffffffffffffffffffffffffffffffffffff161415156112d657600080fd5b6000809054906101000a900473ffffffffffffffffffffffffffffffffffffffff1673ffffffffffffffffffffffffffffffffffffffff166108fc3073ffffffffffffffffffffffffffffffffffffffff16319081150290604051600060405180830381858888f19350505050151561134e57600080fd5b565b60036020528160005260406000208181548110151561136b57fe5b9060005260206000209001600091509150505481565b6000809054906101000a900473ffffffffffffffffffffffffffffffffffffffff1673ffffffffffffffffffffffffffffffffffffffff163373ffffffffffffffffffffffffffffffffffffffff161415156113dc57600080fd5b60018060008373ffffffffffffffffffffffffffffffffffffffff1673ffffffffffffffffffffffffffffffffffffffff16815260200190815260200160002060006101000a81548160ff02191690831515021790555050565b6002600083815260200190815260200160002060010160009054906101000a900473ffffffffffffffffffffffffffffffffffffffff1673ffffffffffffffffffffffffffffffffffffffff163373ffffffffffffffffffffffffffffffffffffffff161415156114a657600080fd5b6002600083815260200190815260200160002060070160009054906101000a900460ff161515156114d657600080fd5b6000811115156114e557600080fd5b600680548060010182816114f99190611b1c565b91600052602060002090016000849091909150555080600260008481526020019081526020016000206004018190555060016002600084815260200190815260200160002060070160006101000a81548160ff0219169083151502179055505050565b60058181548110151561156b57fe5b90600052602060002090016000915090505481565b611588611b08565b60068054806020026020016040519081016040528092919081815260200182805480156115d457602002820191906000526020600020905b8154815260200190600101908083116115c0575b5050505050905090565b600b5481565b6115ec611b08565b60006115f6611b08565b6000806000600a3073ffffffffffffffffffffffffffffffffffffffff163181151561161e57fe5b04945086516040518059106116305750595b90808252806020026020018201604052509350600092505b86518310156116c757600b5460026000898681518110151561166657fe5b9060200190602002015181526020019081526020016000206003015481151561168b57fe5b049150670de0b6b3a76400008583020290508084848151811015156116ac57fe5b90602001906020020181815250508280600101935050611648565b8395505050505050919050565b6000809054906101000a900473ffffffffffffffffffffffffffffffffffffffff1681565b611701611b08565b60008060008411151561171357600080fd5b6002600085815260200190815260200160002060010160009054906101000a900473ffffffffffffffffffffffffffffffffffffffff1673ffffffffffffffffffffffffffffffffffffffff163373ffffffffffffffffffffffffffffffffffffffff1614151561178357600080fd5b600260008581526020019081526020016000206006018054806020026020016040519081016040528092919081815260200182805480156117e357602002820191906000526020600020905b8154815260200190600101908083116117cf575b505050505092508260018451038151811015156117fc57fe5b9060200190602002015142039150620151808211151561181b57600080fd5b620151808281151561182957fe5b049050600160046000868152602001908152602001600020600083815260200190815260200160002060006101000a81548160ff0219169083151502179055506002600085815260200190815260200160002060060180548060010182816118919190611b1c565b916000526020600020900160004290919091505550600160026000868152602001908152602001600020600301600082825401925050819055506001600b600082825401925050819055503373ffffffffffffffffffffffffffffffffffffffff16847fbaaac593555e8c1b93639a9540811000f432755855c955a831f11fdaeb907852426040518082815260200191505060405180910390a350505050565b60006002600083815260200190815260200160002060010160009054906101000a900473ffffffffffffffffffffffffffffffffffffffff1673ffffffffffffffffffffffffffffffffffffffff163373ffffffffffffffffffffffffffffffffffffffff161415156119a357600080fd5b6002600083815260200190815260200160002060070160009054906101000a900460ff1615156119d257600080fd5b600090505b600680549050811015611a3657816006828154811015156119f457fe5b9060005260206000209001541415611a2957600681815481101515611a1557fe5b906000526020600020900160009055611a36565b80806001019150506119d7565b60006002600084815260200190815260200160002060070160006101000a81548160ff0219169083151502179055505050565b60075481565b60026020528060005260406000206000915090508060000154908060010160009054906101000a900473ffffffffffffffffffffffffffffffffffffffff16908060020154908060030154908060040154908060050154908060070160009054906101000a900460ff16908060080154905088565b600681815481101515611af357fe5b90600052602060002090016000915090505481565b602060405190810160405280600081525090565b815481835581811511611b4357818360005260206000209182019101611b429190611c00565b5b505050565b6101206040519081016040528060008152602001600073ffffffffffffffffffffffffffffffffffffffff16815260200160008152602001600081526020016000815260200160008152602001611b9d611c25565b8152602001600015158152602001600081525090565b828054828255906000526020600020908101928215611bef579160200282015b82811115611bee578251825591602001919060010190611bd3565b5b509050611bfc9190611c00565b5090565b611c2291905b80821115611c1e576000816000905550600101611c06565b5090565b90565b6020604051908101604052806000815250905600a165627a7a72305820052735826105a59b7b058d21f9970b17bad1f7f132c084c9befa8487a76312c20029",
  "source": "pragma solidity ^0.4.18;\r\n\r\ncontract Admin {\r\n  address public owner;\r\n  mapping(address => bool) public isAdmin;\r\n\r\n  modifier onlyOwner() {\r\n    require(msg.sender == owner);\r\n    _;\r\n  }\r\n\r\n  modifier onlyAdmin() {\r\n    require(isAdmin[msg.sender]);\r\n    _;\r\n  }\r\n\r\n  function Admin() public {\r\n    owner = msg.sender;\r\n    addAdmin(owner);\r\n  }\r\n\r\n  function addAdmin(address _admin) public onlyOwner {\r\n    isAdmin[_admin] = true;\r\n  }\r\n\r\n  function removeAdmin(address _admin) public onlyOwner {\r\n    isAdmin[_admin] = false;\r\n  }\r\n}\r\n\r\n// To add a tree do the following:\r\n// - Create a new Tree with the ID, owner, treeValue and power to generate fruits\r\n// - Update the treeBalances and treeOwner mappings\r\ncontract Trees is Admin {\r\n  event LogWaterTree(uint256 indexed treeId, address indexed owner, uint256 date);\r\n  event LogRewardPicked(uint256 indexed treeId, address indexed owner, uint256 date, uint256 amount);\r\n\r\n  // Get the tree information given the id\r\n  mapping(uint256 => Tree) public treeDetails;\r\n  // A mapping with all the tree IDs of that owner\r\n  mapping(address => uint256[]) public ownerTreesIds;\r\n  // Tree id and the days the tree has been watered\r\n  // Tree id => day number => isWatered\r\n  mapping(uint256 => mapping(uint256 => bool)) public treeWater;\r\n\r\n  struct Tree {\r\n    uint256 ID;\r\n    address owner;\r\n    uint256 purchaseDate;\r\n    uint256 treePower; // How much ether that tree is generating from 0 to 100 where 100 is the total power combined of all the trees\r\n    uint256 salePrice;\r\n    uint256 timesExchanged;\r\n    uint256[] waterTreeDates;\r\n    bool onSale;\r\n    uint256 lastRewardPickedDate; // When did you take the last reward\r\n  }\r\n\r\n  uint256[] public trees;\r\n  uint256[] public treesOnSale;\r\n  uint256 public lastTreeId;\r\n  address public defaultTreesOwner = msg.sender;\r\n  uint256 public defaultTreesPower = 1; // 10% of the total power\r\n  uint256 public defaultSalePrice = 1 ether;\r\n  uint256 public totalTreePower;\r\n\r\n  // This will be called automatically by the server\r\n  // The contract itself will hold the initial trees\r\n  function generateTree() public onlyAdmin {\r\n    uint256 newTreeId = lastTreeId + 1;\r\n    lastTreeId += 1;\r\n    uint256[] memory emptyArray;\r\n    Tree memory newTree = Tree(newTreeId, defaultTreesOwner, now, defaultTreesPower, defaultSalePrice, 0, emptyArray, true, now);\r\n\r\n    // Update the treeBalances and treeOwner mappings\r\n    // We add the tree to the same array position to find it easier\r\n    ownerTreesIds[defaultTreesOwner].push(newTreeId);\r\n    treeDetails[newTreeId] = newTree;\r\n    treesOnSale.push(newTreeId);\r\n    totalTreePower += defaultTreesPower;\r\n  }\r\n\r\n  // This is payable, the user will send the payment here\r\n  // We delete the tree from the owner first and we add that to the receiver\r\n  // When you sell you're actually putting the tree on the market, not losing it yet\r\n  function putTreeOnSale(uint256 _treeNumber, uint256 _salePrice) public {\r\n    require(msg.sender == treeDetails[_treeNumber].owner);\r\n    require(!treeDetails[_treeNumber].onSale);\r\n    require(_salePrice > 0);\r\n\r\n    treesOnSale.push(_treeNumber);\r\n    treeDetails[_treeNumber].salePrice = _salePrice;\r\n    treeDetails[_treeNumber].onSale = true;\r\n  }\r\n\r\n  function buyTree(uint256 _treeNumber, address _originalOwner) public payable {\r\n    require(msg.sender != treeDetails[_treeNumber].owner);\r\n    require(treeDetails[_treeNumber].onSale);\r\n    require(msg.value >= treeDetails[_treeNumber].salePrice);\r\n    address newOwner = msg.sender;\r\n    // Move id from old to new owner\r\n    // Find the tree of that user and delete it\r\n    for(uint256 i = 0; i < ownerTreesIds[_originalOwner].length; i++) {\r\n        if(ownerTreesIds[_originalOwner][i] == _treeNumber) delete ownerTreesIds[_originalOwner][i];\r\n    }\r\n    // Remove the tree from the array of trees on sale\r\n    for(uint256 a = 0; a < treesOnSale.length; a++) {\r\n        if(treesOnSale[a] == _treeNumber) {\r\n            delete treesOnSale[a];\r\n            break;\r\n        }\r\n    }\r\n    ownerTreesIds[newOwner].push(_treeNumber);\r\n    treeDetails[_treeNumber].owner = newOwner;\r\n    treeDetails[_treeNumber].onSale = false;\r\n    if(treeDetails[_treeNumber].timesExchanged == 0) {\r\n        // Reward the owner for the initial trees as a way of monetization. Keep half for the treasury\r\n        owner.transfer(msg.value / 2);\r\n    }\r\n    treeDetails[_treeNumber].timesExchanged += 1;\r\n  }\r\n\r\n  // To take a tree out of the market without selling it\r\n  function cancelTreeSell(uint256 _treeId) public {\r\n    require(msg.sender == treeDetails[_treeId].owner);\r\n    require(treeDetails[_treeId].onSale);\r\n    // Remove the tree from the array of trees on sale\r\n    for(uint256 a = 0; a < treesOnSale.length; a++) {\r\n        if(treesOnSale[a] == _treeId) {\r\n            delete treesOnSale[a];\r\n            break;\r\n        }\r\n    }\r\n    treeDetails[_treeId].onSale = false;\r\n  }\r\n\r\n  // Improves the treePower\r\n  function waterTree(uint256 _treeId) public {\r\n    require(_treeId > 0);\r\n    require(msg.sender == treeDetails[_treeId].owner);\r\n    uint256[] memory waterDates = treeDetails[_treeId].waterTreeDates;\r\n    uint256 lastWaterDate = now - waterDates[waterDates.length - 1];\r\n    require(lastWaterDate > 1 days);\r\n    // We want to store at what day the tree was watered\r\n    uint256 day = lastWaterDate / 1 days;\r\n    treeWater[_treeId][day] = true;\r\n    treeDetails[_treeId].waterTreeDates.push(now);\r\n    treeDetails[_treeId].treePower += 1;\r\n    totalTreePower += 1;\r\n    LogWaterTree(_treeId, msg.sender, now);\r\n  }\r\n\r\n  // To get the ether from the rewards\r\n  function pickReward(uint256 _treeId) public {\r\n    require(msg.sender == treeDetails[_treeId].owner);\r\n    require(now - treeDetails[_treeId].lastRewardPickedDate > 1 days);\r\n    uint256[] memory formatedId;\r\n    formatedId[0] = _treeId;\r\n    uint256[] memory reward = checkRewards(formatedId);\r\n    treeDetails[_treeId].lastRewardPickedDate = now;\r\n    msg.sender.transfer(reward[0]);\r\n    LogRewardPicked(_treeId, msg.sender, now, reward[0]);\r\n  }\r\n\r\n  // Returns an array of how much ether all those trees have generated today\r\n  // All the tree power combiined for instance 10293\r\n  // The tree power for this tree for instance 298\r\n  // What percentage do you get: 2%\r\n  // Total money in the treasury: 102 ETH\r\n  // A 10% of the total is distributed daily across all the users\r\n  // For instance 10.2 ETH today\r\n  // So if you pick your rewards right now, you'll get a 2% of 10.2 ETH which is 0.204 ETH\r\n  function checkRewards(uint256[] _treeIds) public constant returns(uint256[]) {\r\n    uint256 amountInTreasuryToDistribute = this.balance / 10;\r\n    uint256[] memory results = new uint256[](_treeIds.length);\r\n    for(uint256 i = 0; i < _treeIds.length; i++) {\r\n        uint256 yourPercentage = treeDetails[_treeIds[i]].treePower / totalTreePower;\r\n        uint256 amountYouGet = yourPercentage * amountInTreasuryToDistribute * 1 ether;\r\n        results[i] = amountYouGet;\r\n    }\r\n    return results;\r\n  }\r\n\r\n  // To get all the tree IDs of one user\r\n  function getTreeIds(address _account) public constant returns(uint256[]) {\r\n    if(_account != address(0)) return ownerTreesIds[_account];\r\n    else return ownerTreesIds[msg.sender];\r\n  }\r\n\r\n  // To get all the trees on sale\r\n  function getTreesOnSale() public constant returns(uint256[]) {\r\n      return treesOnSale;\r\n  }\r\n\r\n  // To extract the ether in an emergency\r\n  function emergencyExtract() public onlyOwner {\r\n    owner.transfer(this.balance);\r\n  }\r\n}\r\n",
  "sourcePath": "C:\\Users\\merunas\\Desktop\\money-trees\\contracts\\Trees.sol",
  "compiler": {
    "name": "solc",
    "version": "0.4.18+commit.9cf6e910.Emscripten.clang"
  },
  "schemaVersion": "1.0.1",
  "updatedAt": "2018-01-26T21:00:43.065Z"
}