{
  "contractName": "Trees",
  "abi": [
    {
      "constant": false,
      "inputs": [
        {
          "name": "_account",
          "type": "address"
        }
      ],
      "name": "getTreeIds",
      "outputs": [
        {
          "components": [
            {
              "name": "ID",
              "type": "uint256"
            },
            {
              "name": "owner",
              "type": "address"
            },
            {
              "name": "treeValue",
              "type": "uint256"
            },
            {
              "name": "treePower",
              "type": "uint256"
            },
            {
              "name": "onSale",
              "type": "bool"
            }
          ],
          "name": "",
          "type": "tuple[]"
        }
      ],
      "payable": false,
      "stateMutability": "nonpayable",
      "type": "function"
    },
    {
      "constant": true,
      "inputs": [
        {
          "name": "",
          "type": "uint256"
        }
      ],
      "name": "treeOwner",
      "outputs": [
        {
          "name": "",
          "type": "address"
        }
      ],
      "payable": false,
      "stateMutability": "view",
      "type": "function"
    },
    {
      "constant": false,
      "inputs": [
        {
          "name": "_admin",
          "type": "address"
        }
      ],
      "name": "removeAdmin",
      "outputs": [],
      "payable": false,
      "stateMutability": "nonpayable",
      "type": "function"
    },
    {
      "constant": true,
      "inputs": [
        {
          "name": "",
          "type": "address"
        }
      ],
      "name": "isAdmin",
      "outputs": [
        {
          "name": "",
          "type": "bool"
        }
      ],
      "payable": false,
      "stateMutability": "view",
      "type": "function"
    },
    {
      "constant": false,
      "inputs": [
        {
          "name": "_treeNumber",
          "type": "uint256"
        },
        {
          "name": "_originalOwner",
          "type": "address"
        }
      ],
      "name": "buyTree",
      "outputs": [],
      "payable": true,
      "stateMutability": "payable",
      "type": "function"
    },
    {
      "constant": true,
      "inputs": [],
      "name": "defaultTreesPower",
      "outputs": [
        {
          "name": "",
          "type": "uint256"
        }
      ],
      "payable": false,
      "stateMutability": "view",
      "type": "function"
    },
    {
      "constant": false,
      "inputs": [],
      "name": "generateTree",
      "outputs": [],
      "payable": false,
      "stateMutability": "nonpayable",
      "type": "function"
    },
    {
      "constant": true,
      "inputs": [],
      "name": "defaultTreesOwner",
      "outputs": [
        {
          "name": "",
          "type": "address"
        }
      ],
      "payable": false,
      "stateMutability": "view",
      "type": "function"
    },
    {
      "constant": false,
      "inputs": [
        {
          "name": "_admin",
          "type": "address"
        }
      ],
      "name": "addAdmin",
      "outputs": [],
      "payable": false,
      "stateMutability": "nonpayable",
      "type": "function"
    },
    {
      "constant": true,
      "inputs": [
        {
          "name": "",
          "type": "uint256"
        }
      ],
      "name": "trees",
      "outputs": [
        {
          "name": "",
          "type": "uint256"
        }
      ],
      "payable": false,
      "stateMutability": "view",
      "type": "function"
    },
    {
      "constant": true,
      "inputs": [
        {
          "name": "",
          "type": "address"
        },
        {
          "name": "",
          "type": "uint256"
        }
      ],
      "name": "treeBalances",
      "outputs": [
        {
          "name": "ID",
          "type": "uint256"
        },
        {
          "name": "owner",
          "type": "address"
        },
        {
          "name": "treeValue",
          "type": "uint256"
        },
        {
          "name": "treePower",
          "type": "uint256"
        },
        {
          "name": "onSale",
          "type": "bool"
        }
      ],
      "payable": false,
      "stateMutability": "view",
      "type": "function"
    },
    {
      "constant": true,
      "inputs": [],
      "name": "owner",
      "outputs": [
        {
          "name": "",
          "type": "address"
        }
      ],
      "payable": false,
      "stateMutability": "view",
      "type": "function"
    },
    {
      "constant": true,
      "inputs": [],
      "name": "defaultTreesValue",
      "outputs": [
        {
          "name": "",
          "type": "uint256"
        }
      ],
      "payable": false,
      "stateMutability": "view",
      "type": "function"
    },
    {
      "constant": true,
      "inputs": [],
      "name": "lastTreeId",
      "outputs": [
        {
          "name": "",
          "type": "uint256"
        }
      ],
      "payable": false,
      "stateMutability": "view",
      "type": "function"
    },
    {
      "constant": false,
      "inputs": [
        {
          "name": "_id",
          "type": "uint256"
        }
      ],
      "name": "getTreeById",
      "outputs": [
        {
          "components": [
            {
              "name": "ID",
              "type": "uint256"
            },
            {
              "name": "owner",
              "type": "address"
            },
            {
              "name": "treeValue",
              "type": "uint256"
            },
            {
              "name": "treePower",
              "type": "uint256"
            },
            {
              "name": "onSale",
              "type": "bool"
            }
          ],
          "name": "",
          "type": "tuple"
        }
      ],
      "payable": false,
      "stateMutability": "nonpayable",
      "type": "function"
    },
    {
      "constant": false,
      "inputs": [
        {
          "name": "_user",
          "type": "address"
        }
      ],
      "name": "getTreesByAddress",
      "outputs": [
        {
          "components": [
            {
              "name": "ID",
              "type": "uint256"
            },
            {
              "name": "owner",
              "type": "address"
            },
            {
              "name": "treeValue",
              "type": "uint256"
            },
            {
              "name": "treePower",
              "type": "uint256"
            },
            {
              "name": "onSale",
              "type": "bool"
            }
          ],
          "name": "",
          "type": "tuple[]"
        }
      ],
      "payable": false,
      "stateMutability": "nonpayable",
      "type": "function"
    },
    {
      "constant": true,
      "inputs": [
        {
          "name": "",
          "type": "uint256"
        }
      ],
      "name": "treesOnSale",
      "outputs": [
        {
          "name": "",
          "type": "uint256"
        }
      ],
      "payable": false,
      "stateMutability": "view",
      "type": "function"
    },
    {
      "constant": false,
      "inputs": [
        {
          "name": "_treeNumber",
          "type": "uint256"
        },
        {
          "name": "_receiver",
          "type": "address"
        }
      ],
      "name": "putTreeOnSale",
      "outputs": [],
      "payable": true,
      "stateMutability": "payable",
      "type": "function"
    }
  ],
  "bytecode": "0x606060405233600760006101000a81548173ffffffffffffffffffffffffffffffffffffffff021916908373ffffffffffffffffffffffffffffffffffffffff1602179055506001600855600a600955336000806101000a81548173ffffffffffffffffffffffffffffffffffffffff021916908373ffffffffffffffffffffffffffffffffffffffff1602179055506100cc6000809054906101000a900473ffffffffffffffffffffffffffffffffffffffff166100d164010000000002610f7f176401000000009004565b610186565b6000809054906101000a900473ffffffffffffffffffffffffffffffffffffffff1673ffffffffffffffffffffffffffffffffffffffff163373ffffffffffffffffffffffffffffffffffffffff1614151561012c57600080fd5b60018060008373ffffffffffffffffffffffffffffffffffffffff1673ffffffffffffffffffffffffffffffffffffffff16815260200190815260200160002060006101000a81548160ff02191690831515021790555050565b6114e2806101956000396000f3006060604052600436106100fc576000357c0100000000000000000000000000000000000000000000000000000000900463ffffffff1680630a425a33146101015780630d4c055a1461018a5780631785f53c146101ed57806324d7806c146102265780632ab28ce414610277578063388a1526146102ae57806340f555a5146102d757806353458f5e146102ec57806370480275146103415780637a5080221461037a5780638259de1a146103b15780638da5cb5b1461045357806395647f45146104a8578063b1ae9887146104d1578063b47e4364146104fa578063ca084f9614610531578063e5c7bc6c146105ba578063f71d211a146105f1575b600080fd5b341561010c57600080fd5b610138600480803573ffffffffffffffffffffffffffffffffffffffff16906020019091905050610628565b60405180806020018281038252838181518152602001915080516000925b818410156101795782849060200190602002015181526020019260010192610156565b925050509250505060405180910390f35b341561019557600080fd5b6101ab60048080359060200190919050506108bf565b604051808273ffffffffffffffffffffffffffffffffffffffff1673ffffffffffffffffffffffffffffffffffffffff16815260200191505060405180910390f35b34156101f857600080fd5b610224600480803573ffffffffffffffffffffffffffffffffffffffff169060200190919050506108f2565b005b341561023157600080fd5b61025d600480803573ffffffffffffffffffffffffffffffffffffffff169060200190919050506109a8565b604051808215151515815260200191505060405180910390f35b6102ac600480803590602001909190803573ffffffffffffffffffffffffffffffffffffffff169060200190919050506109c8565b005b34156102b957600080fd5b6102c1610cf2565b6040518082815260200191505060405180910390f35b34156102e257600080fd5b6102ea610cf8565b005b34156102f757600080fd5b6102ff610f59565b604051808273ffffffffffffffffffffffffffffffffffffffff1673ffffffffffffffffffffffffffffffffffffffff16815260200191505060405180910390f35b341561034c57600080fd5b610378600480803573ffffffffffffffffffffffffffffffffffffffff16906020019091905050610f7f565b005b341561038557600080fd5b61039b6004808035906020019091905050611034565b6040518082815260200191505060405180910390f35b34156103bc57600080fd5b6103f1600480803573ffffffffffffffffffffffffffffffffffffffff16906020019091908035906020019091905050611058565b604051808681526020018573ffffffffffffffffffffffffffffffffffffffff1673ffffffffffffffffffffffffffffffffffffffff168152602001848152602001838152602001821515151581526020019550505050505060405180910390f35b341561045e57600080fd5b6104666110d7565b604051808273ffffffffffffffffffffffffffffffffffffffff1673ffffffffffffffffffffffffffffffffffffffff16815260200191505060405180910390f35b34156104b357600080fd5b6104bb6110fc565b6040518082815260200191505060405180910390f35b34156104dc57600080fd5b6104e4611102565b6040518082815260200191505060405180910390f35b341561050557600080fd5b61051b6004808035906020019091905050611108565b6040518082815260200191505060405180910390f35b341561053c57600080fd5b610568600480803573ffffffffffffffffffffffffffffffffffffffff1690602001909190505061123f565b60405180806020018281038252838181518152602001915080516000925b818410156105a95782849060200190602002015181526020019260010192610586565b925050509250505060405180910390f35b34156105c557600080fd5b6105db6004808035906020019091905050611373565b6040518082815260200191505060405180910390f35b610626600480803590602001909190803573ffffffffffffffffffffffffffffffffffffffff16906020019091905050611397565b005b61063061145a565b600073ffffffffffffffffffffffffffffffffffffffff168273ffffffffffffffffffffffffffffffffffffffff1614151561079257600260008373ffffffffffffffffffffffffffffffffffffffff1673ffffffffffffffffffffffffffffffffffffffff168152602001908152602001600020805480602002602001604051908101604052809291908181526020016000905b82821015610787578382906000526020600020906005020160a06040519081016040529081600082015481526020016001820160009054906101000a900473ffffffffffffffffffffffffffffffffffffffff1673ffffffffffffffffffffffffffffffffffffffff1673ffffffffffffffffffffffffffffffffffffffff16815260200160028201548152602001600382015481526020016004820160009054906101000a900460ff161515151581525050815260200190600101906106c5565b5050505090506108ba565b600260003373ffffffffffffffffffffffffffffffffffffffff1673ffffffffffffffffffffffffffffffffffffffff168152602001908152602001600020805480602002602001604051908101604052809291908181526020016000905b828210156108b3578382906000526020600020906005020160a06040519081016040529081600082015481526020016001820160009054906101000a900473ffffffffffffffffffffffffffffffffffffffff1673ffffffffffffffffffffffffffffffffffffffff1673ffffffffffffffffffffffffffffffffffffffff16815260200160028201548152602001600382015481526020016004820160009054906101000a900460ff161515151581525050815260200190600101906107f1565b5050505090505b919050565b60036020528060005260406000206000915054906101000a900473ffffffffffffffffffffffffffffffffffffffff1681565b6000809054906101000a900473ffffffffffffffffffffffffffffffffffffffff1673ffffffffffffffffffffffffffffffffffffffff163373ffffffffffffffffffffffffffffffffffffffff1614151561094d57600080fd5b6000600160008373ffffffffffffffffffffffffffffffffffffffff1673ffffffffffffffffffffffffffffffffffffffff16815260200190815260200160002060006101000a81548160ff02191690831515021790555050565b60016020528060005260406000206000915054906101000a900460ff1681565b60008060006109d561146e565b60006005878154811015156109e657fe5b906000526020600020900154141515156109ff57600080fd5b339350600260008673ffffffffffffffffffffffffffffffffffffffff1673ffffffffffffffffffffffffffffffffffffffff16815260200190815260200160002086815481101515610a4e57fe5b9060005260206000209060050201600201549250600260008673ffffffffffffffffffffffffffffffffffffffff1673ffffffffffffffffffffffffffffffffffffffff16815260200190815260200160002086815481101515610aae57fe5b906000526020600020906005020160030154915060a0604051908101604052808781526020018673ffffffffffffffffffffffffffffffffffffffff168152602001848152602001838152602001600015158152509050600260008673ffffffffffffffffffffffffffffffffffffffff1673ffffffffffffffffffffffffffffffffffffffff16815260200190815260200160002086815481101515610b5157fe5b90600052602060002090600502016000808201600090556001820160006101000a81549073ffffffffffffffffffffffffffffffffffffffff0219169055600282016000905560038201600090556004820160006101000a81549060ff0219169055505080600260008673ffffffffffffffffffffffffffffffffffffffff1673ffffffffffffffffffffffffffffffffffffffff16815260200190815260200160002087815481101515610c0257fe5b90600052602060002090600502016000820151816000015560208201518160010160006101000a81548173ffffffffffffffffffffffffffffffffffffffff021916908373ffffffffffffffffffffffffffffffffffffffff160217905550604082015181600201556060820151816003015560808201518160040160006101000a81548160ff021916908315150217905550905050836003600088815260200190815260200160002060006101000a81548173ffffffffffffffffffffffffffffffffffffffff021916908373ffffffffffffffffffffffffffffffffffffffff160217905550505050505050565b60095481565b6000610d0261146e565b600160003373ffffffffffffffffffffffffffffffffffffffff1673ffffffffffffffffffffffffffffffffffffffff16815260200190815260200160002060009054906101000a900460ff161515610d5a57600080fd5b6001600654019150600160066000828254019250508190555060a060405190810160405280838152602001600760009054906101000a900473ffffffffffffffffffffffffffffffffffffffff1673ffffffffffffffffffffffffffffffffffffffff16815260200160085481526020016009548152602001600115158152509050600760009054906101000a900473ffffffffffffffffffffffffffffffffffffffff166003600084815260200190815260200160002060006101000a81548173ffffffffffffffffffffffffffffffffffffffff021916908373ffffffffffffffffffffffffffffffffffffffff1602179055508060026000600760009054906101000a900473ffffffffffffffffffffffffffffffffffffffff1673ffffffffffffffffffffffffffffffffffffffff1673ffffffffffffffffffffffffffffffffffffffff16815260200190815260200160002083815481101515610ebf57fe5b90600052602060002090600502016000820151816000015560208201518160010160006101000a81548173ffffffffffffffffffffffffffffffffffffffff021916908373ffffffffffffffffffffffffffffffffffffffff160217905550604082015181600201556060820151816003015560808201518160040160006101000a81548160ff0219169083151502179055509050505050565b600760009054906101000a900473ffffffffffffffffffffffffffffffffffffffff1681565b6000809054906101000a900473ffffffffffffffffffffffffffffffffffffffff1673ffffffffffffffffffffffffffffffffffffffff163373ffffffffffffffffffffffffffffffffffffffff16141515610fda57600080fd5b60018060008373ffffffffffffffffffffffffffffffffffffffff1673ffffffffffffffffffffffffffffffffffffffff16815260200190815260200160002060006101000a81548160ff02191690831515021790555050565b60048181548110151561104357fe5b90600052602060002090016000915090505481565b60026020528160005260406000208181548110151561107357fe5b9060005260206000209060050201600091509150508060000154908060010160009054906101000a900473ffffffffffffffffffffffffffffffffffffffff16908060020154908060030154908060040160009054906101000a900460ff16905085565b6000809054906101000a900473ffffffffffffffffffffffffffffffffffffffff1681565b60085481565b60065481565b61111061146e565b600260006003600085815260200190815260200160002060009054906101000a900473ffffffffffffffffffffffffffffffffffffffff1673ffffffffffffffffffffffffffffffffffffffff1673ffffffffffffffffffffffffffffffffffffffff1681526020019081526020016000208281548110151561118f57fe5b906000526020600020906005020160a06040519081016040529081600082015481526020016001820160009054906101000a900473ffffffffffffffffffffffffffffffffffffffff1673ffffffffffffffffffffffffffffffffffffffff1673ffffffffffffffffffffffffffffffffffffffff16815260200160028201548152602001600382015481526020016004820160009054906101000a900460ff1615151515815250509050919050565b61124761145a565b600260008373ffffffffffffffffffffffffffffffffffffffff1673ffffffffffffffffffffffffffffffffffffffff168152602001908152602001600020805480602002602001604051908101604052809291908181526020016000905b82821015611368578382906000526020600020906005020160a06040519081016040529081600082015481526020016001820160009054906101000a900473ffffffffffffffffffffffffffffffffffffffff1673ffffffffffffffffffffffffffffffffffffffff1673ffffffffffffffffffffffffffffffffffffffff16815260200160028201548152602001600382015481526020016004820160009054906101000a900460ff161515151581525050815260200190600101906112a6565b505050509050919050565b60058181548110151561138257fe5b90600052602060002090016000915090505481565b60006005838154811015156113a857fe5b906000526020600020900154141515156113c157600080fd5b816005838154811015156113d157fe5b9060005260206000209001819055506001600260008373ffffffffffffffffffffffffffffffffffffffff1673ffffffffffffffffffffffffffffffffffffffff1681526020019081526020016000208381548110151561142e57fe5b906000526020600020906005020160040160006101000a81548160ff0219169083151502179055505050565b602060405190810160405280600081525090565b60a06040519081016040528060008152602001600073ffffffffffffffffffffffffffffffffffffffff168152602001600081526020016000815260200160001515815250905600a165627a7a72305820168ff09ddaa0ecfa252d03909ed79633061f8d1e8f4cedf05061e17a372f43830029",
  "source": "pragma solidity ^0.4.18;\r\n\r\ncontract Admin {\r\n  address public owner;\r\n  mapping(address => bool) public isAdmin;\r\n\r\n  modifier onlyOwner() {\r\n    require(msg.sender == owner);\r\n    _;\r\n  }\r\n\r\n  modifier onlyAdmin() {\r\n    require(isAdmin[msg.sender]);\r\n    _;\r\n  }\r\n\r\n  function Admin() public {\r\n    owner = msg.sender;\r\n    addAdmin(owner);\r\n  }\r\n\r\n  function addAdmin(address _admin) public onlyOwner {\r\n    isAdmin[_admin] = true;\r\n  }\r\n\r\n  function removeAdmin(address _admin) public onlyOwner {\r\n    isAdmin[_admin] = false;\r\n  }\r\n}\r\n\r\n// To add a tree do the following:\r\n// - Create a new Tree with the ID, owner, treeValue and power to generate fruits\r\n// - Update the treeBalances and treeOwner mappings\r\ncontract Trees is Admin {\r\n  // What address has what trees\r\n  mapping(address => Tree[]) public treeBalances;\r\n  // Who owns that tree ID\r\n  mapping(uint256 => address) public treeOwner;\r\n\r\n  struct Tree {\r\n    uint256 ID;\r\n    address owner;\r\n    uint256 treeValue;\r\n    uint256 treePower; // How much ether that tree is generating from 0 to 100 where 100 is the total power combined of all the trees\r\n    bool onSale;\r\n  }\r\n\r\n  uint256[] public trees;\r\n  uint256[] public treesOnSale;\r\n  uint256 public lastTreeId;\r\n  address public defaultTreesOwner = msg.sender;\r\n  uint256 public defaultTreesValue = 1; // 1 ether is the default value\r\n  uint256 public defaultTreesPower = 10; // 10% of the total power\r\n\r\n  // To get the tree information of a specific tree ID\r\n  function getTreeById(uint256 _id) public returns(Tree) {\r\n    return treeBalances[treeOwner[_id]][_id];\r\n  }\r\n\r\n  function getTreesByAddress(address _user) public returns(Tree[]) {\r\n    return treeBalances[_user];\r\n  }\r\n\r\n  // To get all the tree IDs of one user\r\n  function getTreeIds(address _account) public returns(Tree[]) {\r\n    if(_account != address(0)) return treeBalances[_account];\r\n    else return treeBalances[msg.sender];\r\n  }\r\n\r\n  // This will be called automatically by the server\r\n  // The contract itself will hold the initial trees\r\n  function generateTree() public onlyAdmin {\r\n    uint256 newTreeId = lastTreeId + 1;\r\n    lastTreeId += 1;\r\n    Tree memory newTree = Tree(newTreeId, defaultTreesOwner, defaultTreesValue, defaultTreesPower, true);\r\n\r\n    // Update the treeBalances and treeOwner mappings\r\n    // We add the tree to the same array position to find it easier\r\n    treeOwner[newTreeId] = defaultTreesOwner;\r\n    treeBalances[defaultTreesOwner][newTreeId] = newTree;\r\n  }\r\n\r\n  // This is payable, the user will send the payment here\r\n  // We delete the tree from the owner first and we add that to the receiver\r\n  // When you sell you're actually putting the tree on the market, not losing it yet\r\n  function putTreeOnSale(uint256 _treeNumber, address _receiver) public payable {\r\n    require(treesOnSale[_treeNumber] != 0);\r\n    treesOnSale[_treeNumber] = _treeNumber;\r\n    treeBalances[_receiver][_treeNumber].onSale = true;\r\n  }\r\n\r\n  function buyTree(uint256 _treeNumber, address _originalOwner) public payable {\r\n    require(treesOnSale[_treeNumber] != 0);\r\n    address newOwner = msg.sender;\r\n    uint256 treeValueCopy = treeBalances[_originalOwner][_treeNumber].treeValue;\r\n    uint256 treePowerCopy = treeBalances[_originalOwner][_treeNumber].treePower;\r\n    Tree memory treeCopy = Tree(_treeNumber, _originalOwner, treeValueCopy, treePowerCopy, false);\r\n\r\n    delete treeBalances[_originalOwner][_treeNumber];\r\n\r\n    // Updated the 2 mappings\r\n    treeBalances[newOwner][_treeNumber] = treeCopy;\r\n    treeOwner[_treeNumber] = newOwner;\r\n  }\r\n}\r\n",
  "sourcePath": "C:\\Users\\merunas\\Desktop\\money-trees\\contracts\\Trees.sol",
  "compiler": {
    "name": "solc",
    "version": "0.4.18+commit.9cf6e910.Emscripten.clang"
  },
  "schemaVersion": "1.0.1",
  "updatedAt": "2018-01-21T14:24:43.033Z"
}